:020000040800F2
:105C0000403C0020B15D0008616D0008BB5D0008EC
:105C10005D6D0008FD620008417000080000000092
:105C2000000000000000000000000000195D0008F6
:105C300099650008000000005D5D0008156E000811
:105C4000CB5D0008CB5D0008CB5D0008CB5D000894
:105C5000CB5D0008CB5D0008CB5D0008CB5D000884
:105C6000CB5D0008CB5D0008CB5D0008CB5D000874
:105C7000CB5D0008CB5D0008CB5D0008CB5D000864
:105C8000CB5D0008CB5D0008CB5D0008CB5D000854
:105C9000CB5D0008CB5D0008CB5D0008CB5D000844
:105CA000CB5D0008CB5D0008CB5D0008CB5D000834
:105CB000F56E0008CB5D0008CB5D0008F9690008AF
:105CC00055690008CB5D0008CB5D0008CB5D00087E
:105CD000CB5D000805700008CB5D0008CB5D0008B7
:105CE000CB5D0008CB5D0008CB5D00080000000024
:105CF00000000000000000000000000000000000A4
:105D0000CB5D0008DFF80CD000F0BAF8004800477F
:105D100039820008403C0020224B19680868B0E82E
:105D2000F00F80F30988BFF36F8F4FF0000080F30E
:105D300011884EF00D0E7047000000000648006804
:105D4000006880F3088862B661B6BFF34F8FBFF377
:105D50006F8F00DF00BF00BF08ED00E0EFF30980A8
:105D6000BFF36F8F0F4B1A6820E9F00F106008B572
:105D70004FF0500080F31188BFF34F8FBFF36F8F48
:105D800003F0F4FD4FF0000080F31188BDE80840F7
:105D900019680868B0E8F00F80F30988BFF36F8FC7
:105DA000704700BFFC010020EFF305807047000042
:105DB0000648804706480047FEE7FEE7FEE7FEE7A5
:105DC000FEE7FEE7FEE7FEE7FEE7FEE7496E0008B6
:105DD000055D000840EA01039B0703D009E008C9FC
:105DE000121F08C0042AFAD203E011F8013B00F8A0
:105DF000013B521EF9D27047D2B201E000F8012BEC
:105E0000491EFBD270470022F6E710B513460A463A
:105E100004461946FFF7F0FF204610BD2DE9F05F5C
:105E20000546002092469B46884606468146402409
:105E30001BE0284641464746224600F042F85346BA
:105E40005A46C01A914110D311461846224600F016
:105E500029F82D1A67EB01084F4622460120002140
:105E600000F020F817EB00094E41201EA4F10104B8
:105E7000DFDC484631462A464346BDE8F09F000035
:105E8000064C074D06E0E06840F0010394E8070087
:105E900098471034AC42F6D3FFF738FF709F0008E4
:105EA000909F0008202A04DB203A00FA02F100202B
:105EB00070479140C2F1200320FA03F31943904048
:105EC0007047202A04DB203A21FA02F000217047B3
:105ED00021FA02F3D040C2F1200291400843194652
:105EE000704770B58C1810F8015B15F0070301D1ED
:105EF00010F8013B2A1106D110F8012B03E010F82D
:105F0000016B01F8016B5B1EF9D12B0705D400234F
:105F1000521E0DD401F8013BFAE710F8013BCB1AF1
:105F2000921C03E013F8015B01F8015B521EF9D5E6
:105F3000A142D8D3002070BD70B504460D4600BF05
:105F400040F20161294801F0B7FF0028F8D1274845
:105F500002F038F800BF4FF4A061244801F0ACFF14
:105F60000028F8D06FF001027821204802F012F8E2
:105F700000BF40F201511D4801F09EFF0028F8D0FB
:105F800040F20151194801F083FF00BF40F2075170
:105F9000164801F091FF0128F8D12146134801F07D
:105FA0006FFF00BF40F20751104801F085FF002845
:105FB000F8D005B1032529460C4801F061FF00BF68
:105FC00040F20751094801F077FF0028F8D0074850
:105FD00001F0FDFF00BF0548006800F400700028D4
:105FE000F9D10021252000F033F970BD00580040A0
:105FF00010B5002400BF40F201612B4801F05CFFA6
:106000000028F8D1284801F0DDFF00BF4FF4A0615F
:10601000254801F051FF0028F8D06FF001027821E7
:10602000214801F0B7FF00BF40F201511E4801F0C6
:1060300043FF0028F8D040F201511B4801F028FF2F
:1060400000BF40F20751184801F036FF0128F8D18F
:106050002621154801F014FF00BF40F207511248F5
:1060600001F02AFF0028F8D000240CE003210E489C
:1060700001F006FF00BF40F207510B4801F01CFF82
:106080000028F8D0641C242CF0DB074801F09FFFA7
:1060900000BF0548006800F400700028F9D1002115
:1060A000252000F0D5F810BD0058004010B50024A0
:1060B00000BF40F201612B4801F0FEFE0028F8D13C
:1060C000284801F07FFF00BF4FF4A061254801F090
:1060D000F3FE0028F8D06FF001027821214801F08A
:1060E00059FF00BF40F201511E4801F0E5FE0028B3
:1060F000F8D040F201511B4801F0CAFE00BF40F247
:106100000751184801F0D8FE0128F8D1262115487A
:1061100001F0B6FE00BF40F20751124801F0CCFE7C
:106120000028F8D000240CE000210E4801F0A8FE61
:1061300000BF40F207510B4801F0BEFE0028F8D026
:10614000641C242CF0DB074801F041FF00BF054828
:10615000006800F400700028F9D10021252000F02B
:1061600077F810BD0058004070B50446002500BF08
:1061700040F201612B4801F09FFE0028F8D1294828
:1061800001F020FF00BF4FF4A061264801F094FE0B
:106190000028F8D06FF001027821224801F0FAFEC1
:1061A00000BF40F201511F4801F086FE0028F8D0E0
:1061B00040F201511B4801F06BFE00BF40F2075155
:1061C000184801F079FE0128F8D10121154801F0A5
:1061D00057FE00BF40F20751124801F06DFE002843
:1061E000F8D000250CE021460E4801F049FE00BF22
:1061F00040F207510B4801F05FFE0028F8D06D1CFB
:10620000242DF0DB074801F0E2FE00BF05480068DE
:1062100000F400700028F9D10021252000F018F8C2
:1062200070BD00000058004010B540F2036002F05D
:106230007FFC4FF4805303221021044801F01AFC24
:106240004FF48051014801F013FC10BD000C0140D7
:1062500070B504460D4600BF40F20161264801F0CA
:106260002BFE0028F8D1244801F0ACFE00BF4FF40B
:10627000A061214801F020FE0028F8D06FF0010253
:1062800078211D4801F086FE00BF40F201511A48F6
:1062900001F012FE0028F8D040F20151164801F03A
:1062A000F7FD00BF40F20751134801F005FE012839
:1062B000F8D12146104801F0E3FD00BF40F207513C
:1062C0000D4801F0F9FD0028F8D029460A4801F0F0
:1062D000D7FD00BF40F20751074801F0EDFD00284F
:1062E000F8D0054801F073FE00BF0348006800F4D1
:1062F00000700028F9D170BD0058004000BFFEE7D3
:1063000010B502460B460020002104E0545C044412
:10631000E0B24C1CE1B25C1E8C42F7DC10BD000008
:1063200070B50546A5F13000052804D2DFE800F07D
:106330000A1C22283700294621A000F083FE00F025
:10634000B1F800BF28A000F07DFE2A4801682AA00D
:1063500000F078FE2AA000F075FE052131A000F0C3
:1063600071FE02F077F829E033A000F06BFEFFF732
:106370003FFE23E036A000F065FEFFF797FE1DE02C
:1063800001F02EFB0446642C01DA601DC4B22146E4
:1063900036A000F057FE204602F024FD0EE001F08A
:1063A0001FFB0446052C01DB601FC4B2214636A04A
:1063B00000F048FE204602F015FD00BF00BF70BD92
:1063C0004552524F523A20436F6D6D616E642055B5
:1063D0006E6B6E6F7720636D64203D20307825787A
:1063E0002121210D0A0000002A4672656552544F92
:1063F000532A20002001002025730D0A0000000010
:10640000417574686F723A4A432644615A6869203C
:106410003C76783A3238353430383133363E0D0AEE
:106420000000000056657273696F6E203A202530B7
:1064300032640D0A000000004154393233365F4C9B
:1064400045445F6C69676874416C6C0D0A0000001C
:106450004154393233365F4C45445F6C6967687428
:10646000416C6C5F4F46460D0A0000007365745F17
:106470006B65796C6564735F70776D202B2B2B20B7
:1064800025640D0A000000007365745F6B65796C0C
:106490006564735F70776D202D2D2D2025640D0AA6
:1064A0000000000010B50BA000F0CCFD0DA000F026
:1064B000C9FD14A000F0C6FD18A000F0C3FD1DA08A
:1064C00000F0C0FD22A000F0BDFD28A000F0BAFD44
:1064D00010BD00000D0A446562756720636D643A63
:1064E0000D0A0000302E207072696E742050726F99
:1064F0006772616D206275696C642074696D650DE9
:106500000A000000312E206B65795F4C4544735FB3
:106510006C69676874416C6C0D0A0000322E206B48
:1065200065795F4C4544735F4F6666416C6C0D0A3C
:1065300000000000332E206B65795F4C45447320CA
:106540007365742050574D202B2B2B2B200D0A00E8
:10655000342E206B65795F4C45447320736574203D
:1065600050574D202D2D2D2D200D0A006F7468657C
:10657000722E207072696E742068656C700D0A004E
:1065800010B5044802F03CFFC4B22046FFF7C8FE35
:1065900010BD000000380140704700001D204C492C
:1065A000087001204870022088700320C870042001
:1065B000087105204871062088710E20C8711120CD
:1065C000087214204872172088720D20C872152096
:1065D0000873122048730F2088731020C87313208B
:1065E000087416204874182088741920C87427204D
:1065F00008751A2048751B2088752120C875202031
:1066000008761F2048760C2088760B20C8760A2052
:10661000087709204877082088770720C8771E2048
:1066200081F82000222081F82100232081F8220017
:10663000242081F82300262026490870272048704E
:10664000282088702920C8702A2008712B204871C2
:106650002C2088713420C87146200872412048726D
:106660003C2088723B20C872402008734520487344
:10667000352088733620C873442008743F2048743E
:106680003A2088743720C874432008753E20487526
:10669000392088753820C8753D2008764220487614
:1066A000332088763220C87631200877302048772A
:1066B0002F2088772E20C8772D2081F820002620D3
:1066C00081F8210081F8220081F823007047000042
:1066D000C8020020F80200201D204C49087001204B
:1066E0004870022088700320C870042008710520BB
:1066F0004871062088710E20C8711120087214207C
:106700004872172088720D20C87215200873122055
:1067100048730F2088731020C87313200874162044
:106720004874182088741920C874272008751A2006
:1067300048751B2088752120C875202008761F20E9
:1067400048760C2088760B20C8760A200877092026
:106750004877082088770720C8771E2081F8200016
:10676000222081F82100232081F82200242081F8B2
:10677000230026202649087027204870282088708A
:106780002920C8702A2008712B2048712C2088717C
:106790002D20C87131200872362048723C20887242
:1067A0003B20C87237200873322048732E2088732C
:1067B0002F20C873332008743F2048743A2088740F
:1067C0003020C874342008753E20487539208875FB
:1067D0003820C8753D2008763520487640208876D8
:1067E0004120C876422008774320487744208877A4
:1067F0004520C877462081F82000262081F8210016
:1068000081F8220081F8230070470000C8020020B0
:10681000F80200201D204D49087001204870022018
:1068200088700320C8700420087105204871062074
:1068300088710E20C8711120087214204872172028
:1068400088720D20C87215200873122048730F201B
:1068500088731020C87313200874162048741820F9
:1068600088741920C874272008751A2048751B20C1
:1068700088752120C875202008761F2048760C20B6
:1068800088760B20C8760A200877092048770820E8
:1068900088770720C8771E2081F82000222081F801
:1068A0002100232081F82200242081F823002620C3
:1068B0002749087027204870282088702920C87030
:1068C0002A2008712B2048712C2088712D20C87136
:1068D00031200872362048723C2088723B20C872F2
:1068E00037200873322048732E2088732F20C873F6
:1068F000332008743F2048743A2088743020C874CC
:10690000342008753E204875392088753820C875B0
:106910003D20087635204876402088764120C8768C
:106920004220087743204877442088774520C8775D
:10693000462081F82000472081F82100492081F875
:106940002200482081F8230070470000C802002080
:10695000F802002010B52049204801F0EDFA18B1E6
:106960001D491E4801F0D2FA1D491C4801F0E4FA05
:1069700018B11B49194801F0C9FA1A49174801F022
:10698000DBFA18B11749154801F0C0FA1649134847
:1069900001F0D2FA18B11449104801F0B7FA1349BE
:1069A0000E4801F0C9FA18B110490C4801F0AEFACE
:1069B0000F490A4801F0C0FA18B10D49074801F023
:1069C000A5FA0C49054801F0B7FA18B1094903487E
:1069D00001F09CFA10BD000008010A0500540040B7
:1069E00008010F0508010E0508010B05080109053E
:1069F0000801080508010C0510B55F495F4801F062
:106A00009BFA50B100205E4908705B495B4801F079
:106A10007DFA00205B4908709DE05B49574801F012
:106A20008BFAA8B1002056490870544801F024FAA6
:106A300056490A78891C8854891E0978481CC11750
:106A400000EB91618911A0EB8111504A117082E035
:106A50004F494A4801F070FA00283CD04D49474858
:106A600001F06AFA002836D1464800784A49097888
:106A700088422BDA434802780078401C414B18705A
:106A80004648815C3D4801F0FBF93E4800784249A8
:106A9000097888425FD1002040498870C870087129
:106AA00048718871012036490870002211463C481F
:106AB000006802F09DFE00203249087036480078D8
:106AC000072848DD07203449087044E000212B489E
:106AD00001F0D6F93FE03349284801F02DFA20B300
:106AE000264801F0D0F94FF48471244801F0F3F9FD
:106AF0004FF48571214801F0EEF940F209111F4869
:106B000001F0E9F9002211462748006802F070FE02
:106B100001201B490870002211462148006802F03C
:106B200067FE00201749087015E02049134801F05E
:106B300003FA20B11D49114801F0E8F90BE01449AE
:106B40000E4801F0F9F930B111490C4801F0DEF9B5
:106B500000200C4908704FF48471084801F0C8F90E
:106B600040F20911054801F0C3F94FF4857103485B
:106B700001F0BEF910BD00000901010500540040FC
:106B80005A0100205E010020090106054402002090
:106B90000901070508010A055C01002033010020F6
:106BA0002C0100200901040524010020090102052F
:106BB00010B540F2026001F0BBFF0421044800F070
:106BC00057FF042302221021014800F053FF10BD9B
:106BD0000008014010B5012206211F2001F0D0FB62
:106BE00001220621202001F0CBFB4FF484710748DD
:106BF00001F07EF940F20911044801F079F94FF4EF
:106C00008571024801F074F910BD00000054004085
:106C100010B540F2157001F08BFF002208490948B9
:106C200001F0B8F8802300221146064801F0BCF9B3
:106C3000044801F028F90121024801F09FF810BD35
:106C4000A08601000054004010B540F2036001F03E
:106C50006FFF4FF4C06001F06BFF0121022000F0D4
:106C600067FF4FF4407303221C21024800F002FF2B
:106C700010BD0000000C014010B5FFF7E5FFFFF765
:106C8000C7FFFFF7A7FF10BD10B540F2167001F067
:106C90004FFF00220849094801F07CF8AC2300228C
:106CA0001146064801F080F9044801F0ECF8012192
:106CB000024801F063F810BDA086010000580040B2
:106CC00010B540F2036001F033FF4FF4406303223C
:106CD0001C21024800F0CEFE10BD0000000C014057
:106CE00010B5FFF7EDFFFFF7CFFF00214F20FFF7B3
:106CF000AFFA01210020FFF7ABFA00214A20FFF78D
:106D0000A7FA01214B20FFF7A3FA042002F06AF84A
:106D1000FFF76EF910BD000010B5044624B1102134
:106D2000044800F0A5FE03E01021024800F09EFE9A
:106D300010BD0000000C014010B540F2036001F0EE
:106D4000F7FE102303221946034800F093FE10219A
:106D5000014800F08DFE10BD000C014000BFFEE7B1
:106D60007047000010B540F2046001F0E1FE4FF4FE
:106D7000C06001F0DDFE072302221021034800F06D
:106D800079FE07200149086110BD00000010014094
:106D90000721104A1161282806D0292808D02A285E
:106DA0000AD02B2810D10BE001210A4A51610FE0D3
:106DB0000221084A51610BE00421064A516107E0B3
:106DC0000721044A516103E00721024A116100BF13
:106DD00000BF704700100140282806D0292808D09D
:106DE0002A280AD02B280CD10CE00121084A116175
:106DF0000CE00221064A116108E00421044A1161F5
:106E000004E000BF0721024A116100BF00BF7047C4
:106E10000010014010B500BF502080F31188BFF36F
:106E20004F8FBFF36F8F00BF02F070FF18B14FF0AC
:106E300080500449086000BF002080F3118800BF23
:106E400010BD000004ED00E010B51448006840F0EB
:106E500001001249086008464068114908400F497E
:106E60004860084600680F4908400C490860084619
:106E7000006820F480200860084640680A490840FD
:106E8000064948600846006806490840034908600A
:106E90004FF41F00886002F00FF810BD0010024090
:106EA0000C00FFE8FFFFF6FEFFFF00F77FB5054689
:106EB0000C464FF4E06001F03BFE684602F000FA39
:106EC0000295ADF8004069464FF0804002F074F939
:106ED0004FF0804002F066F90121880702F0E0F9E6
:106EE000002207211C2001F04BFA0121880702F043
:106EF000D3F97FBD38B50025002000900121880717
:106F000002F0D2F9002873D00121880702F0C8F9F5
:106F10003848007800F001008DF80000354800780E
:106F200000F002008DF801003248007800F0040003
:106F30008DF802002F48007800F008008DF803005B
:106F40002D4890F82A00042813DA2B4890F82A00DC
:106F50002A49085C60BB284890F82A001DF8000008
:106F600008B1012000E0002001462B2000F0ECFADF
:106F70001EE000241AE02048005D042812DA1E48B2
:106F8000005D1E49085C78B91B4A125D1DF802209D
:106F90000AB1012200E000221146621CD0B200F0CA
:106FA000D3FA01E0681CC5B2601CC4B2292CE2DB34
:106FB000002416E01148005D401C104908550846A1
:106FC000005D0F49095D884209DB00200B49085527
:106FD0000120A04007490978484006490870601C14
:106FE000C4B2042CE6DB2A2D02D1680702F0DAF8DD
:106FF00038BD0000C90100204C030020C50100205D
:107000004C9F000810B50B490B4802F089FA30B1CB
:10701000FFF7B6FA0749084802F075FA08E0074991
:10702000054802F07DFA18B10449034802F06BFAF2
:1070300010BD0000050305000038014004030400F2
:1070400000BFFEE70FB4054B10B503A9044A029830
:1070500000F018F810BC5DF814FB0000657800081B
:107060004002002002E008C8121F08C1002AFAD11D
:1070700070477047002001E001C1121F002AFBD1B8
:10708000704700002DE9FF4F8DB00F4605460026E2
:1070900006E025280BD0DDE90F1290476D1C761C09
:1070A00028780028F5D111B03046BDE8F08F0024D3
:1070B000A246A1460122EC4900E0044315F8013F35
:1070C000203B02FA03F00842F7D128782A2810D092
:1070D0006FF02F022878A0F13001092914D80AEBAB
:1070E0008A0102EB410144F0020400EB010A6D1C2D
:1070F000F0E701CF5FEA000A03D544F40054CAF177
:10710000000A44F002046D1C28782E2817D115F8C7
:10711000010F44F004042A280ED06FF02F022878C3
:10712000A0F1300109290AD809EB890102EB4101DC
:1071300000EB01096D1CF2E757F8049B6D1C2878E1
:107140006C280FD006DC4C2817D068280DD06A2890
:1071500014D104E0742810D07A280FD10DE044F443
:1071600000140AE044F4801401E044F44014697807
:10717000814202D104F580146D1C6D1C2A786E2AA0
:107180001FD00CDC632A31D004DC002A8BD0582AB3
:1071900011D1A3E0642A68D0692A0CD165E0732A72
:1071A0002ED004DC6F2A73D0702A04D19BE0752A9C
:1071B0006FD0782A6ED01046DDE90F129047761C0A
:1071C00050E1C4F30250022806D0032809D0042855
:1071D00001CF09D0066045E101CFF117C0E9006198
:1071E00040E101CF06803DE106703BE117F8040B5A
:1071F0008DF8000000208DF80100EB46012003E02F
:1072000057F804BB4FF0FF3061074FF0000102D484
:107210000DE008F10101884649450FDA8045F8DBA9
:107220001BF808100029F4D108E008F10101884694
:107230008142FADB1BF808100029F6D1DDE90F23A3
:10724000AAEB08008146214600F036F9304400EBF5
:10725000080604E0DDE90F121BF8010B9047B8F1B6
:107260000108F7D221464846F7E00A21C4F3025349
:107270004FF0000B0891022B04D001CFC117032B54
:1072800009D00AE0FF1D27F00707F7E8020108E030
:1072900032E01FE020E000B2C117042B01D140B260
:1072A000C117031E71F1000307DA4FF0000CD0EB99
:1072B0000C006CEB01012D2302E0230504D52B23E8
:1072C0008DF82430012303E0E30701D02023F7E702
:1072D000984658E00A2110E010210EE010204FF0EF
:1072E000000B08900CE010214FF0000B44F0040458
:1072F0004FF00809089103E008214FF0000B0891B6
:10730000C4F30253022B04D001CF0021032B06D07B
:1073100006E0FF1D27F00707F7E8020103E080B24F
:10732000042B00D1C0B24FF0000823072BD5702AE0
:1073300007D0DDF820C08CF0100C5CEA0B0C05D0F7
:107340000EE040238DF82430012308E050EA0103C9
:1073500006D030238DF824308DF82520022398465E
:10736000DDF820C08CF0080C5CEA0B0C0BD150EA65
:10737000010301D1630706D530238DF824304FF087
:107380000108A9F10109582A04D038A20B9208AAD1
:107390000A920BE03AA2F9E75B46089AFEF73EFD37
:1073A0000B9B9B5C0A9A521E0A92137050EA0102D0
:1073B000F2D10A98ADEB000000F1200B600702D576
:1073C00024F4803401E04FF00109D94502DDA9EB36
:1073D0000B0000E0002000EB0B0141440890AAEBF9
:1073E000010AE00306D4DDE90F232146504600F0F0
:1073F00063F806444FF0000908E009A911F80900F4
:10740000DDE90F12904709F10109761CC145F4DB53
:10741000E0030CD5DDE90F232146504600F04CF87F
:10742000064404E0DDE90F1230209047761C0899ED
:10743000481E08900029F5DC08E00A980A990078AF
:10744000491C0A91DDE90F129047761CBBF100013F
:10745000ABF1010BF1DC21465046DDE90F2300F0D2
:1074600019F806446D1C1BE609280100303132333F
:107470003435363738396162636465660000000070
:10748000303132333435363738394142434445465A
:10749000000000002DE9F041044600251E46174675
:1074A000880404D405E039462020B0476D1C641ED2
:1074B000F9D52846BDE8F0812DE9F04104460025C4
:1074C0001E469046C80301D5302700E020278804D7
:1074D00004D505E041463846B0476D1C641EF9D519
:1074E0002846BDE8F081000010B54FF4407000F070
:1074F0009DFF00F017FA00F00BFA00200849087011
:10750000487008490870487000F048FE01F040FBE0
:1075100001F01EFC00F026FE03A0FFF793FD10BD56
:10752000440200208602002073797320696E69741A
:107530002066696E69736820323032332D30342D05
:1075400030360D0A000000002DE9F04104460D46DA
:107550005A27002C15DD282C13DA204600F094F869
:107560000646262E08DB14480078864204DC2946AD
:107570003046FEF7E1FC03E0A5273846BDE8F08180
:1075800018E0282C0ADB2A2C08DC1DB92046FFF75E
:1075900023FC0FE02046FFF7FBFB0BE02B2C06D172
:1075A00015B9FEF783FD05E0FEF722FD02E0A527F1
:1075B0003846E3E73846E1E73201002000F052FDAB
:1075C00005A0FFF73FFD00BF00F048FD4FF4FA7043
:1075D00002F0EAF8F8E70000666565645F777467B3
:1075E0005F7461736B2073746172740D0A00000024
:1075F000F8B504460D4616461F4621480178801C02
:107600004454811E0978481CC11700EB916189110F
:10761000A0EB81111A4A117010460178801C455464
:10762000811E0978481CC11700EB91618911A0EBFC
:107630008111117010460178801C4654811E097812
:10764000481CC11700EB91618911A0EB81111170E9
:1076500010460178801C4754811E0978481CC117C8
:1076600000EB91618911A0EB8111117000200223C0
:107670000246014600900348006802F04DFAF8BD4A
:10768000860200202C0100200246002107E0074866
:10769000405C904202D10648405C7047491C054856
:1076A00000788142F3DB0020F7E70000C8020020E9
:1076B000F80200203001002000B50346012200BF7F
:1076C00000F00CF802465B1E012A01D1002BF7D115
:1076D000012A00D10422104600BD000000200A4902
:1076E000C96801F0010109B101200CE00649C9682F
:1076F00001F0100109B1032005E00349C96801F058
:10770000040101B1022070470020024000B5034689
:10771000012200BF00F00CF802465B1E012A01D1D5
:10772000002BF7D1012A00D10422104600BD000031
:1077300000200A49C96C01F0010109B101200CE0E7
:107740000649C96C01F0100109B1032005E00349A5
:10775000C96C01F0040101B1022070470020024011
:1077600070B504460D4600262A480088B0F5007F13
:1077700035D22948844219D24FF47020FFF79CFF7C
:107780000646002E43D12548006940F001002349F8
:10779000086125804FF47020FFF78EFF06461F48D2
:1077A000006920F001001D49086130E04FF47020AD
:1077B000FFF7ACFF064656BB1848006D40F00100CD
:1077C0001649086525804FF47020FFF79FFF064695
:1077D0001248006D20F001001049086517E04FF4D1
:1077E0007020FFF769FF06468EB90C48006940F02B
:1077F00001000A49086125804FF47020FFF75CFF03
:1078000006460648006920F0010004490861304638
:1078100070BD0000E0F7FF1FFFFF070800200240D7
:107820000C48006900F0800020B10B48094948600D
:107830000A4848600A480088B0F5007F09D9054821
:10784000006D00F0800020B10348024948640348FD
:10785000486470470020024023016745AB89EFCDA3
:10786000E0F7FF1F70B504460D46E1B2054801F090
:10787000CCFD00BF0721034801F019FE0028F9D014
:10788000204670BD0038014030B502460B46164C0C
:10789000002145F25550154D286000BF1348C068BF
:1078A00000F00101601E041E01D00029F6D109B1CB
:1078B000002030BD0D4843600B4C00BF0B48C06832
:1078C00000F00201601E041E01D00029F6D109B1AA
:1078D0000020EEE7C2F30B00044DA8604AF6AA2090
:1078E00028600120E5E70000FFFF0F0000300040A6
:1078F0004AF6AA20014908607047000000300040A5
:1079000045F25550014908607047000000300040C2
:1079100010B5FEF789FCFFF725FAFFF70DFAFFF720
:1079200047F910BD10B540F2026001F001F940F2D4
:107930000E6001F0FDF84FF40073032218211E4879
:1079400000F098F84FF48063032204211A4800F0F5
:1079500091F81A4801F05EFD4FF4E131174801F04B
:1079600007FD0021154801F017FE0021134801F022
:1079700003FE0021114801F0EFFD00210F4801F046
:10798000ADFD00210D4801F0A1FD04210B4801F0DF
:10799000EBFD0821094801F0F7FD084801F082FDE0
:1079A00040F20531054801F0A1FD00220721252004
:1079B00000F0E6FC10BD0000000801400038014066
:1079C00010B50446044A52F82410044A52F8240020
:1079D00000F0A6F810BD000090000020000000207C
:1079E00001480078704700005F01002016A0FFF7F3
:1079F00029FB1A48006840884FF6FF71884205D17C
:107A0000FFF70EFFFF211648FFF7AAFE00BF00BFD9
:107A100000BF00BF00BFBFF34F8F00BF00BF00BF5C
:107A20001048006800F4E0600F490843001D0D494C
:107A3000086000BF00BF00BFBFF34F8F00BF00BF93
:107A400000BF00BF00BFFDE7676F746F5F6F7461B9
:107A50005F757064617465200D0A0000CC01002020
:107A6000025800080CED00E00000FA054161704783
:107A700001617047F0B5044616460025002201F06A
:107A80000F0501F0100707B1354300201EE0012764
:107A900087401F40C7B122684FEA800C0F2707FAC2
:107AA0000CF7BA43870005FA07F73A43282904D1AF
:107AB000012787401F40676105E0482903D101275E
:107AC00087401F4027612260471CB8B20828DED3D8
:107AD000082022E0012787401F40E7B16268A0F13B
:107AE00008074FEA870C0F2707FA0CF7BA43A0F1F3
:107AF0000807BF0005FA07F73A43282904D10127F0
:107B000087401F40676105E0482903D1012787406E
:107B10001F4027616260471CB8B21028DAD3F0BD5D
:107B200002469068084008B1012070470020FCE739
:107B3000F0B50A46002300240021002500F000468D
:107B4000B6F1004F02D11D4EF16901E01B4E716884
:107B5000C0F3034583B200F44016B6F5401F08D1C8
:107B600021F07061154E766826F07066134F7E60C6
:107B700012E000F48016B6F5801F06D1032606FA3F
:107B800005F4A14341F0706106E0460D360103FAA9
:107B900006F6B14341F0706122B1460D360103FA99
:107BA00006F6314300F00046B6F1004F02D1034E15
:107BB000F16101E0014E7160F0BD00000000014084
:107BC0007CB50446424909784031414A5278881AC6
:107BD000C11700EB91618911A0EB8111CEB2052E86
:107BE00001DA00207CBD00252FE039484178801C57
:107BF000405C207036494978481CC11700EB916100
:107C00008911A0EB8111324A5170207855281AD180
:107C100000BF2F484178801C405C60702C49497837
:107C2000481CC11700EB91618911A0EB8111284A12
:107C30005170681CC5B26078AA2800D107E060784E
:107C4000552800D1E5E7681CC5B2B542CDDB00BFC1
:107C500002E0032001F0A8FD1D49097840311C4ACB
:107C60005278881AC11700EB91618911A0EB81113C
:107C70000329EEDB022511E015484178801C405CA9
:107C8000605513494978481CC11700EB916189116F
:107C9000A0EB81110E4A5170681CC5B2052DEBDBBB
:107CA00005212046FEF72CFB217988420ED009A041
:107CB000FFF7C8F92079E178CDE90010A378627860
:107CC00021780AA0FFF7BEF900208BE7304689E74C
:107CD0004402002069326320726563762064617417
:107CE00061206572726F720D0A0000006461746138
:107CF0005B305D203D202523782C5B315D3D2025C8
:107D000023782C5B325D3D202523782C5B335D3D51
:107D1000202523782C5B345D3D202523780D0A0037
:107D200030B50246144C24784034134D6D78601BF6
:107D3000C41700EB9464A411A0EB8414E3B2042BE9
:107D400001DA002030BD002111E00B484478801C8E
:107D5000005D5054084C6478601CC41700EB9464B8
:107D6000A411A0EB8414044D6C70481CC1B204290A
:107D7000EBDB0420E6E7000086020020012904D1A5
:107D8000026842F48062026003E0026822F48062CA
:107D9000026070472DE9F05F04460E4693460220CC
:107DA00000F034FE07463148B7FBF0F9B9F13F0F58
:107DB00001D34FF03F09D4F804A02AF03F0A4AEA61
:107DC000090AC4F804A02A4886421ED82748B7FBEF
:107DD000F0F000F10108B8F13F0F02D33F2020621C
:107DE00007E0B8F1020F02D80220206201E0C4F8D7
:107DF00020807000B7FBF0F5042D00D20425E06967
:107E0000C5F30B010843E0612EE01A4886422BD8E7
:107E10004FF4967009FB00F04FF47A71B0FBF1F06B
:107E2000401C2062BBF1000F08D106EB4600B7FBF7
:107E3000F0F5E06920F48040E06109E006EBC6005F
:107E400000EB0610B7FBF0F5E06940F48040E0611C
:107E5000C5F30B0008B945F00105E06940F40040A6
:107E6000E061E0692843E061BDE8F09F40420F0017
:107E7000A0860100801A060001460869C0B270475A
:107E8000CAB202617047016841F0010101607047A8
:107E900010B540F20152914202D1426982690AE072
:107EA00000EB9112126801F01F040123A3409A43D2
:107EB00000EB91131A6010BD10B5024602EB911051
:107EC000006801F01F040123A340184008B10120FD
:107ED00010BD0020FCE710B500EB9112126801F014
:107EE0001F040123A3409A4300EB91131A6010BDB5
:107EF00010B500EB9112126801F01F040123A3409A
:107F00001A4300EB91131A6010BD000010B5094A26
:107F1000914202D1426982690AE000EB91521268F3
:107F2000C1F304440123A3409A4300EB91531A6028
:107F300010BD000009010105F0B502460023002430
:107F4000506800F48065C1F38910105801F01F07D4
:107F50000126BE4000EA060302EB91500068C1F31F
:107F600004470126BE4000EA06040848814202D0C8
:107F70000748814204D113B10DB1012300E0002371
:107F800014B10BB10120F0BD0020FCE7090106058A
:107F90000901070512F1020F02D121F0010101E0F0
:107FA00041F001010161704730B50C4600210168C4
:107FB00021F0020121430160C3F3090342EA0305F2
:107FC000856030BD016841F48071016070470168CF
:107FD00041F400710160704710B5044620780B49E8
:107FE00088706078C870A0780871E07848710721BF
:107FF0000648FEF785F90549887104210448FFF712
:1080000035FD04210248FFF733FD10BD3301002088
:10801000000801401CB50020009001901BE04FF0CB
:10802000FF321146002001F057F90FE000BF0A4867
:10803000007830B10020084908706846FFF7CCFF8F
:1080400003E00A2001F0B0FBF1E700BF6846FFF74C
:1080500067FE0028EADCE2E75A01002010B5FFF7CE
:1080600047FC10BD10B5FFF74BFC042140F6FF7034
:10807000FFF70AFC10BD00001CB5FEF731FE002121
:108080004F20FEF7E5F801210020FEF7E1F800217E
:108090004A20FEF7DDF801214B20FEF7D9F8042035
:1080A00000F0A0FEFDF7A4FF13A0FEF7CBFF00BF7A
:1080B0004FF0FF3001AB002211460090104601F056
:1080C000C7FD0198C5B20198C0F30724202D04D044
:1080D000602D06D0702D0ED108E0204600F082FE03
:1080E00009E00121204600F015F804E000212046B7
:1080F00000F010F800BFDBE76B65795F6C696768BB
:10810000745F636F6E74726F6C5F7461736B0D0A72
:108110000000000070B504460E462B2C00DC04B9AC
:1081200070BD2B2C0DD14FF0804001F03BF80025A5
:1081300004E005200A494855681CC5B22B2DF8DB20
:1081400003E00521601E064A11540EB1012000E033
:10815000002001462046FFF7F7F900BFE0E70000E6
:108160004C03002070B50B48006842F21071B0FB60
:10817000F1F0401E85B2294640F2E730FEF796FE48
:10818000002404E0052004490855601CC4B22B2CCF
:10819000F8DB70BD3C0200204C03002010B540F21B
:1081A000046000F0C5FC40F2056000F0C1FC40F244
:1081B000066000F0BDFC4FF6F87303224821094821
:1081C000FFF758FC4FF6FF73032248210648FFF7DC
:1081D00051FC41F6FF73032248210448FFF74AFC93
:1081E00010BD0000001001400014014000180140C3
:1081F00070B504460D462B2C00DC04B970BD05F0AB
:10820000030504F03F00401EC4B22B2C10DA4FF0DF
:10821000804000F0CCFF2A2C08D1002603E005485E
:108220008555701CC6B22B2EF9DB01E001480555BF
:1082300000BFE3E74C0300201CB54FF4B8414FF0FA
:10824000006000F0FDF8FFF74FF925A0FEF7FAFEF9
:108250002948016829A0FEF7F5FE2AA0FEF7F2FEE4
:108260000020012103464022CDE900102EA1314813
:1082700001F022FC304804210023C022CDE9001087
:108280002EA1304801F018FC002003210346802273
:10829000CDE900102CA12E4801F00EFC2D48022142
:1082A00000238022CDE900102BA12D4801F004FC11
:1082B0002C48042100238022CDE900102AA12D485A
:1082C00001F0FAFB0020022103464022CDE9001014
:1082D00029A12A4801F0F0FB01F000FB00BFFEE7F6
:1082E0006672656572746F73202C20696E697420E4
:1082F0006F6B21210D0A00002001002025730D0A5B
:1083000000000000417574686F723A4A4326446168
:108310005A6869203C76783A32383534303831330F
:10832000363E0D0A000000005461736B4C656431E9
:10833000000000006991000824010020546F437080
:10834000750000000D8F00086B65795F626F640037
:10835000C18E0008280100206C69676874730000F2
:10836000798000082C010020696963305F73656EB5
:10837000640000001580000877746700BD75000870
:108380002DE9F04103460D46164600240027A0467D
:108390002448006800F4E060B0F5A06F15D006DC5A
:1083A000B0F5407F18D0B0F5806F19D110E0B0F56E
:1083B000C06F06D0B0F5E06F12D100274FF004086F
:1083C00015E001274FF0030811E00227B8460EE040
:1083D00003274FF001080AE004274FF0000806E0E9
:1083E0004FF4A06000F022F80227B84600BF00BF9B
:1083F000C7F1040005FA00F4C8F104010F20C840D9
:108400003040044324010848C45403F01F010120F4
:1084100088405911890001F1E021C1F80001BDE84F
:10842000F08100000CED00E000E400E002490143AF
:10843000024A1160704700000000FA050CED00E0F0
:10844000024A0A400243024B1A60704780FFFF1F36
:1084500008ED00E030B589B024216846FDF7D3FC73
:10846000074D002403E0285D0DF80400641C202C57
:10847000F9DB694603A0FEF7E5FD09B030BD000059
:10848000005A00086D64353A2025730D0A0000007B
:108490002DE9F04105460E461C4807681C48006857
:1084A000001D01F081F850B91948006890F82C10AF
:1084B0000120884017490968814316480160681CFB
:1084C00038B936B112480168091D134801F0AAF8FD
:1084D0001AE07C190E4800684460BC4207D20C4880
:1084E0000168091D0D48006801F082F80CE0084899
:1084F0000168091D0A48006801F07AF80948006817
:10850000844201D207480460BDE8F08110020020D7
:10851000FC010020140200202C1C0020040200207A
:10852000000200202C02002010B5044601F086F85D
:1085300023480068401C224908602248006840B96E
:10854000204804600846006801280DD100F01CF99D
:108550000AE01D48006838B91A480068C06AE16A34
:10856000884201D81748046018480068401C174921
:10857000086094F82C1001208840154909680843C8
:1085800013490860E16A01EB8101124A02EB8100A4
:10859000211D01F047F801F073F80B48006868B13D
:1085A00008480068C06AE16A884207D24FF08050EC
:1085B00009490860BFF34F8FBFF36F8F10BD0000F4
:1085C0000C020020FC0100201802002028020020DC
:1085D00014020020781B002004ED00E010B516E026
:1085E00001F02CF80C48C068C468201D00F0DCFFC6
:1085F0000A480068401E0949086009480068401E92
:108600000749086001F03CF8204600F00BF80448E8
:1086100000680028E4D110BD181C00200C020020C6
:108620000802002010B50446206B01F03FF82046F8
:1086300001F03CF810BD000030B54FF4C0531748AE
:1086400000F007042CB1C01D20F00700134C041BE0
:108650001B1B0246124C22600024114D6C60D01886
:10866000083820F007000F4C206000240D4D2D68C5
:108670006C600C4D2D682C601146441A4C60094CFE
:1086800024680C60084D4C682C60084D4C682C60C8
:108690004FF00044064D2C6030BD000078030020F0
:1086A000D0010020D8010020E0010020DC010020E2
:1086B000EC01002000BFFFF791FF06480068012889
:1086C000F9D94FF0805004490860BFF34F8FBFF3D2
:1086D0006F8FF0E7781B002004ED00E02DE9F05FDC
:1086E00082460E4690469B460A9F0C9C4FEA8801A4
:1086F000A522206BFDF780FBA8F10100216B01EBA7
:10870000800929F0070909F0070008B9012000E0F5
:10871000002008B900BFFEE786B1002507E0715DC3
:1087200004F134004155705D00B902E06D1C0A2D62
:10873000F5D300BF00213D20015502E0002084F860
:108740003400052F00D30427E7622764002060640B
:10875000201D00F04AFF04F1180000F046FF2461DC
:10876000C7F10500A06164620020A06484F84C0099
:108770005A465146484600F037F920600B9808B138
:108780000B980460BDE8F09F10B5002407E004EBEF
:1087900084010F4A02EB810000F01AFF641C052CD3
:1087A000F5D30C4800F014FF0B4800F011FF0B4804
:1087B00000F00EFF0A4800F00BFF0A4800F008FF27
:1087C00004480949086004480849086010BD0000D1
:1087D000781B0020DC1B0020F01B0020041C002064
:1087E000181C00202C1C0020000200200402002085
:1087F00010B50146164800E0006803688B42FBD3C1
:108800000246436813448B4204D143684C682344B6
:10881000436001460A464B6813440468A34211D1E1
:108820000C4C03682468A34208D04B680468646851
:1088300023444B6003681B680B6005E0054B1B6815
:108840000B6001E003680B60884200D0016010BD3E
:10885000D0010020D801002009480068006808B94C
:10886000012000E0002020B14FF0FF3005490860F2
:1088700005E003480068C068006802490860704766
:10888000000200202C0200200A480068401C08B9A1
:10889000012000E0002008B900BFFEE700BF502023
:1088A00080F31188BFF34F8FBFF36F8F00BF00BFFE
:1088B000FEE70000F00100202DE9F04104464FF0F2
:1088C000000801F04BF84248006808B9FFF7B4FE11
:1088D00040480068204000286CD1F4B104F1080041
:1088E000A0421AD9083404F00700B8B104F0070018
:1088F000C0F108002044A0420DD904F00700C0F1E7
:108900000800044404F0070008B9012000E000203A
:1089100020B900BFFEE7002400E00024002C49D06D
:108920002D480068844245D82C4E3046056801E049
:108930002E462D686868A04202D228680028F7D128
:1089400023480068854235D0306800F1080828685F
:1089500030606868001B102810D92F1907F0070035
:1089600008B9012000E0002008B900BFFEE76868F0
:10897000001B78606C603846FFF73AFF164968685C
:108980000968081A1449086008460068144909680B
:10899000884203D210480068114908600D49686890
:1089A000096808436860002028600E480068401C81
:1089B0000C49086001F044FA08F0070008B90120EA
:1089C00000E0002008B900BFFEE74046BDE8F081A6
:1089D000D8010020EC010020DC010020D0010020A3
:1089E000E0010020E4010020001F4FF080730360CD
:1089F000001F21F001030360001F034B03601438C4
:108A00000260203870470000898800082DE9F04F87
:108A10008BB00746002009903EA090E8004CC0684B
:108A2000CDE905BECDF810A007900FF2EC0ADAE907
:108A3000000ACDE9020A0FF2E00ADAE9000ACDE9FC
:108A4000000A38484068C0F381000A900A9820B1B3
:108A5000012804D0022829D103E0334928E0324913
:108A600026E03048406800F48038B8F5803F09D1EE
:108A70002D4C2C48406800F40039B9F5003F02D174
:108A8000641000E0294C27484068C0F38342254821
:108A9000406800F0006008B142F010020F2A01D2D5
:108AA000921C00E0521C04FB02F101E01E4900BFD1
:108AB00000BF1C484068C0F3031504A8465D21FAB6
:108AC00006F318484068C0F3022502A8465D23FA61
:108AD00006FC14484068C0F3C2251DF8056023FA5F
:108AE00006F0089037B1012F06D0022F06D0032FD1
:108AF0000AD106E0099108E0099306E0CDF824C008
:108B000003E00898099000E000BF00BF09980BB08F
:108B1000BDE8F08F00000000000000000102030427
:108B2000060708090010024000127A0000093D0003
:108B3000064A02EB9011096800F01F0301229A40D7
:108B40001143024B03EB901211607047001002407A
:108B5000064A02EB9011096800F01F0301229A40B7
:108B60009143024B03EB90121160704700100240DA
:108B7000064A02EB9011096800F01F0301229A4097
:108B80001143024B03EB901211607047001002403A
:108B900010B586B018221F496846FDF71BF900245E
:108BA0000AE05DF824101C48FEF7BAFF012802D144
:108BB0001A490C7002E0641C062CF2DB00BF174857
:108BC000007858B115480078012807D0134800787C
:108BD000032803D011480078042803D1212010492C
:108BE000087015E00D480078022803D121200C49B7
:108BF00008700DE009480078052803D124200849B1
:108C0000087005E021200649087006A0FEF71AFA50
:108C100006B010BD349F000800180140310100204B
:108C20003001002063616E206E6F74207363616E8B
:108C300020626F617264206E756D0A0010B50021AC
:108C40004F20FDF705FB01210020FDF701FB00216E
:108C50004A20FDF7FDFA01214B20FDF7F9FA042027
:108C600000F0C0F8002002490870487010BD0000F4
:108C70004402002010B58AB0242101A8FDF7C3F8F2
:108C8000002440E02046FEF79BFE18B9012001A910
:108C9000085502E0002001A9085501A8005D1D4902
:108CA000095D884229D001A8005D1A49095D884202
:108CB00014DD19480078401C174908701748005DFA
:108CC000174908701548015D00231A460120FEF778
:108CD0008FFC611C13A0FEF7B5F90EE00F48005D94
:108CE000154908700D48015D00231A460220FEF761
:108CF0007FFC611C11A0FEF7A5F901A8005D0549E4
:108D00000855601CC4B2114800788442BADB0020C8
:108D10000AB010BD2803002059010020C80200201D
:108D200057010020627574746F6E20256420646F93
:108D3000776E0D0A000000005801002062757474FF
:108D40006F6E2025642075700D0A00003001002030
:108D500010B51948007858B117480078012807D095
:108D600015480078032803D013480078042805D15B
:108D7000FDF714FC4620114908701BE00E480078EE
:108D8000022805D1FDF7A8FC49200C49087011E024
:108D900009480078052805D1FDF73CFD4920074921
:108DA000087007E0FDF7FAFB46200449087004A0AC
:108DB000FEF748F910BD000031010020320100200B
:108DC00063616E206E6F74207363616E20626F61E9
:108DD0007264206D61702C736574206465666175C2
:108DE0006C740A0070B50446642C00DD64240548E8
:108DF0000470054803490978455C2846FDF7B4F935
:108E000070BD00005F0100206001002000200021F3
:108E1000264A126842F00102244B1A6000BF401C2F
:108E2000224A126802F0020111B9B0F5A06FF6D122
:108E30001E4A126802F002020AB900BFFEE71B4A8E
:108E400052681A4B5A601A4652685A601A4652685B
:108E500042F480625A601A465268154B1A40134B0E
:108E60005A601A465268134B1A43104B5A601A46FE
:108E7000126842F080721A6000BF0C4A126802F059
:108E80000072002AF9D0094A526822F00302074B07
:108E90005A601A46526842F002025A6000BF034A02
:108EA000526802F00802002AF9D070470010024010
:108EB000FFFFC3F70000280810B5FFF7A7FF10BD9C
:108EC000002409A0FEF7BEF800BF04E000200E4910
:108ED0000855601CC4B2242CF8DB04E0FFF7CAFE7E
:108EE000322000F061FCF9E77461736B3220736328
:108EF000616E5F6B65795F626F617264207374612C
:108F000072740D0A00000000280300200EB5002036
:108F1000019002900027DFF8F0917CA0FEF792F814
:108F2000FDF7AAFEEEE04FF0FF321146002000F000
:108F3000D3F901A8FEF744FE0028F3DD9DF8066092
:108F40009DF80750402E4ED00CDC102E23D004DCB0
:108F5000012E10D0022E7CD115E0202E25D0302EEF
:108F6000F9D138E0502E45D0602E4CD0702E5DD017
:108F7000D02EF0D16EE06E48037800221146022018
:108F8000FEF736FBBDE06B48037800221146022055
:108F9000FEF72EFBB5E0FEF723FD83465B4600227D
:108FA00011461020FEF724FBABE0202040EA052A02
:108FB000642D00DD64255A23002211462020FEF78F
:108FC00017FB002003235246014600905A480068D0
:108FD00000F0A2FD95E059480378002211463020A8
:108FE000FEF706FB8DE00523002211464020FEF728
:108FF000FFFA86E0FFF722FE5A2300221146502096
:10900000FEF7F6FA7DE0602040EA052A00200323FF
:109010005246014600904848006800F07DFD5A2302
:10902000002211466020FEF7E3FA6AE0702040EA71
:10903000052A002003235246014600903E4800685E
:1090400000F06AFD5A23002211467020FEF7D0FA84
:1090500057E040E0B5B9FF2700240AE019F80410F2
:10906000374AA01C115419F804003844C7B2601CD8
:10907000C4B2202CF2DB3249A01C0F54232031490A
:10908000087027E0012D02D1FEF7B0FC22E0022D8E
:1090900020D1FF2700240FE004F10B002A490968C2
:1090A000095C274AA01C1154093027490968085C4B
:1090B0003844C7B2601CC4B2142CEDDB0521204A31
:1090C000A01C1154781DC7B21146E01C0F54182083
:1090D0001C49087015E006F0FC00802810D12A46D3
:1090E00031461AA0FDF7AEFF06F0030841462846B8
:1090F000FFF77EF85A23002211463046FEF778FA31
:1091000000BF00BF0FE70000005A00087461736BD6
:109110003320636F6D756E6963617465206370756C
:10912000206969632073746172740D0A0000000085
:1091300057010020580100202801002031010020A3
:10914000330100205C01002020010020636D645F7A
:1091500074797065203D202523782C636D64203D53
:109160002025640D0A000000002408A0FDF76AFF16
:1091700001210B48FEF7DCFC07E0E443E0B2FDF719
:10918000CBFD4FF4FA7000F00FFBF6E77461736BE0
:10919000345F66756E632073746172740D0A00002B
:1091A00000023000016821F0010101607047016890
:1091B00041F00101016070470A888262294A9042A9
:1091C00020D0B0F1804F1DD0274A90421AD0274AB4
:1091D000904217D0264A904214D0264A904211D08D
:1091E000254A90420ED0254A90420BD0244A904204
:1091F00008D0244A904205D0234A904202D0234A04
:1092000090420FD1026822F07002026002688B78EF
:1092100003F060031A43026002680B7903F0100345
:109220001A4302608A68C262194A90420CD0194AF5
:10923000904209D0026822F44072026002688B8971
:1092400003F440731A430260064A904202D0094A6E
:10925000904201D18A7B0263426942F0010242617D
:1092600070470000002C014000040040000800404E
:10927000000C004000340140004C0140005001400F
:109280000054014000180040001C00400020004035
:109290000010004000140040C2680A43C2607047DA
:1092A00002698A43026170470246D06800EA0103FE
:1092B0001069084010B10BB1012070470020FCE795
:1092C00000210180418081804FF6FF718160002183
:1092D00081818173704700002DE9F04104460F46FB
:1092E00016460CB9012000E0002008B900BFFEE7D7
:1092F00000F0A4F91C480068483050F8240080B9F8
:109300000121194800684C30015556B13046FFF72D
:10931000BFF84FF0805015490860BFF34F8FBFF37F
:109320006F8F00F0ADF900F089F90F480068483000
:1093300050F824506DB137B100210B480068483017
:1093400040F8241005E0681E07490968483141F8D3
:1093500024000021044800684C30015500F090F9C9
:109360002846BDE8F0810000FC01002004ED00E08B
:109370002DE9F04704460D460027B846B9460026B9
:109380001D49601A8C421CD006DC1C48204470B178
:10939000B0F5806F1FD10FE0B0F5806F16D0B0F53B
:1093A0006C4F18D10320FFF731FB074614E0022071
:1093B000FFF72CFB07460FE00220FFF727FB0746CD
:1093C0000AE00220FFF722FB074605E00220FFF734
:1093D0001DFB074600E000BF00BF07EB5500B0FBD8
:1093E000F5F64FF6F07006EA000806F00F0948EAB5
:1093F0000900A060BDE8F087004C004000BCFFBF42
:1094000001464868C0F308007047C1F30802426093
:109410007047000010B504462049601A8C4228D0DD
:1094200006DC1F48204490B1B0F5806F33D117E0BF
:10943000B0F5806F26D0B0F56C4F2CD140F20E30D5
:10944000FFF796FB40F20E30FFF782FB24E040F27C
:109450001140FFF78DFB40F21140FFF779FB1BE055
:1094600040F21240FFF784FB40F21240FFF770FB1E
:1094700012E040F21340FFF77BFB40F21340FFF78E
:1094800067FB09E040F21440FFF772FB40F2144022
:10949000FFF75EFB00E000BF00BF10BD004C0040C6
:1094A00000BCFFBFC16841F40051C160704710B5F6
:1094B000024602EB9110006801F01F040123A34053
:1094C000184008B1012010BD0020FCE70A46002129
:1094D000416921F400711143416170470A4600213E
:1094E000416921F4807111434161704710B5C1F3A6
:1094F0008912825801F01F040123A3401A43C1F3CB
:109500008913C25010BD10B500EB91521268C1F31F
:1095100004440123A3409A4300EB91531A6010BD09
:1095200070B5024600230024C1F38910105801F0E1
:109530001F060125B54000EA050302EB91500068C3
:10954000C1F304460125B54000EA050414B10BB18E
:10955000012070BD0020FCE7C26822F4C062C26036
:10956000C2680A43C26070470A460021C16821F000
:1095700004011143C1607047026922F44052026144
:1095800002690A43026170470A460021C16821F05E
:1095900008011143C1607047C26822F48052C26062
:1095A000C2680A43C260704701460A69D1E90130C6
:1095B0009860D1E9010358605068884201D18868F9
:1095C0005060002008611068401E106010687047ED
:1095D00000F1080141604FF0FF31816000F10801A6
:1095E000C160016100210160704700210161704785
:1095F00010B502460B685C1C0CB9106907E002F15B
:10960000080000E04068446824689C42FAD9446835
:109610004C604C68A160886041600A611468641CF9
:10962000146010BD42684A6093688B60936859600B
:109630009160086103685B1C0360704700BF5020A5
:1096400080F31188BFF34F8FBFF36F8F00BF0A48BD
:109650000068401C0849086008460068012809D1D4
:1096600006480068C0B208B9012000E0002008B92F
:1096700000BFFEE770470000F001002004ED00E0AD
:109680000948006808B900BFFEE707480068401EA7
:10969000054908600846006820B9002080F3118859
:1096A00000BF00BF70470000F001002070B5064603
:1096B0003546002E32D0083D2C46194960680968AD
:1096C000084008B1012000E0002008B900BFFEE713
:1096D000206808B9012000E0002008B900BFFEE7BB
:1096E0000F49606809680840C0B12068B0B90C49EA
:1096F000606809688843606000F030F90949606873
:1097000009680844074908602046FFF771F80648D1
:109710000068401C0449086000F092FB70BD000026
:10972000EC010020DC010020E801002000204FF0C7
:10973000E02108618861064800684FF47A71B0FB47
:10974000F1F0401E4FF0E0214861072008617047AA
:109750003C02002070B5FCF727FB0546102D0DD309
:1097600005F1E02090F8F0430C480078844201DBDA
:10977000012000E0002008B900BFFEE708480068AB
:1097800000F4E06007490968884201D8012000E040
:10979000002008B900BFFEE770BD0000F401002002
:1097A0000CED00E0F801002070B5044600258CB1F6
:1097B0000D48006808B9012000E0002008B900BF8A
:1097C000FEE700F0CBF800212046FEF761FE00F036
:1097D00037FB05463DB94FF0805004490860BFF3A0
:1097E0004F8FBFF36F8F70BD3802002004ED00E093
:1097F0002DE9F04705460E4690460DB900BFFEE73D
:109800000EB9012000E0002008B900BFFEE7FFF715
:10981000A1FF2C4600BF5021EFF3118081F3118886
:10982000BFF34F8FBFF36F8F00BF074604F14C00AB
:1098300010F8069002218155001F50F82600401CA8
:1098400004F1480141F82600B9F1010F34D1A06AB2
:1098500008B9012000E0002008B900BFFEE7194860
:109860000068A8B9201DFFF79FFE94F82C10012076
:10987000884015490968084313490860E16A01EB0B
:109880008101124A02EB8100211DFFF7CBFE04E0AB
:1098900004F118010E48FFF7C5FE0E49E06A096899
:1098A000C96A884208D9B8F1000F02D00120C8F86F
:1098B000000001200849086000BF87F3118800BF3D
:1098C000BDE8F0873802002014020020781B002039
:1098D000041C0020FC010020200200201CB51748B9
:1098E00000210B464022CDE9001015A1164800F0DA
:1098F000E3F80446012C15D100BF502080F31188F5
:10990000BFF34F8FBFF36F8F00BF4FF0FF300F4992
:10991000086001200E49086000200E49086000F030
:1099200061F807E0601C08B1012000E0002008B9E0
:1099300000BFFEE7084800681CBD000030020020A0
:1099400049444C4500000000B58600082C02002068
:109950001802002010020020340200200248006893
:10996000401C014908607047380200201848006810
:1099700018B101201749086029E000201549086046
:1099800015480068B0FA80F0C0F11F0101EB8100BA
:10999000124A52F8200008B1012000E0002008B966
:1099A00000BFFEE701EB81020C4B03EB8200426833
:1099B0005268426000F108024368934202D1426853
:1099C000526842604268D268054B1A6000BF704717
:1099D000380200202002002014020020781B002002
:1099E000FC0100201CB52F48014609780191FF2198
:1099F000024611700146097800919DF8001001F0AF
:109A0000F0019DF80020914201D1012100E00021E8
:109A100009B900BFFEE79DF8001001F05001224A8D
:109A200011700721214A116009E020490968491E87
:109A30001E4A11609DF800104906090E00919DF81C
:109A4000001001F080018029EFD018490968C1F1A8
:109A50000701042901D1012100E0002109B900BF5B
:109A6000FEE7124909680902104A11601146098887
:109A700001F4E06111600B4A019911700C48006813
:109A800040F470000A4908600846006840F07040E1
:109A90000860FFF74BFE002006490860FCF74EF90E
:109AA00000201CBD00E400E0F4010020F8010020CB
:109AB00020ED00E0F00100202DE9FF4F85B0804649
:109AC00089461746DDE912ABB800FEF7F5FE0646FB
:109AD00056B15020FEF7F0FE04460CB1266304E0B8
:109AE0003046FFF7E3FD00E000247CB10020CDE923
:109AF00000ABCDE902403A4649464046089BFEF796
:109B0000EDFD2046FEF710FD012501E04FF0FF3589
:109B1000284609B0BDE8F08F2DE9F05F07460D46F5
:109B200016469846DDF828A04FF0010B0DB901202C
:109B300000E0002008B900BFFEE70FB900BFFEE754
:109B40003C46FFF77BFDBAF1000F05D004F1480059
:109B500050F82500CAF8000004F14C0010F80590F8
:109B600002214155B8F1050F29D2DFE808F027039B
:109B70000D171C0004F1480050F82500304304F193
:109B8000480141F8250024E004F1480050F8250080
:109B9000401C04F1480141F825001AE004F1480096
:109BA00040F8256015E0B9F1020F04D004F1480037
:109BB00040F8256001E04FF0000B0AE009E01F4883
:109BC000006808B9012000E0002008B900BFFEE7E6
:109BD00000BF00BFB9F1010F2AD1201DFFF7E4FC3F
:109BE00094F82C100120884015490968084314494D
:109BF0000860E16A01EB8101124A02EB8100211D3C
:109C0000FFF710FDA06A08B9012000E0002008B9A4
:109C100000BFFEE70C49E06A0968C96A884207D9B3
:109C20004FF0805009490860BFF34F8FBFF36F8F2B
:109C3000FFF726FD5846BDE8F09F00001002002007
:109C400014020020781B0020FC01002004ED00E03D
:109C50002DE9F04704460F4690461D46DDF820905A
:109C60000CB9012000E0002008B900BFFEE7FFF7B3
:109C7000E5FC244800684C30005D02281AD02149D8
:109C80000968483101EB84000168B9430160012192
:109C90001C4800684C300155B9F1000F0AD0484605
:109CA000FEF7F6FB4FF0805017490860BFF34F8F67
:109CB000BFF36F8FFFF7E4FCFFF7C0FC2DB1114835
:109CC0000068483050F8240028600E4800684C3086
:109CD000005D022801D0002609E00A4909684831E0
:109CE00001EB8400016821EA0801016001260021DE
:109CF000044800684C300155FFF7C2FC3046BDE80F
:109D0000F0870000FC01002004ED00E02DE9F041A7
:109D10004FF000083F480068002873D13E480068B3
:109D2000451C3D480560CDB93C480068006808B94D
:109D3000012000E0002008B900BFFEE737480768AF
:109D4000374800683549086035480760354800687D
:109D5000401C34490860FEF77FFD00BF32480068B0
:109D600085423CD300BF2D480068006808B9012037
:109D700000E0002020B14FF0FF302B4908602DE0BB
:109D800026480068C068C4686668B54202D22648A2
:109D9000066023E0201DFFF707FCA06A18B104F15C
:109DA0001800FFF701FC94F82C10012088401F498F
:109DB000096808431D490860E16A01EB81011C4AFA
:109DC00002EB8100211DFFF72DFC1A49E06A0968AA
:109DD000C96A8842C7D34FF00108C4E700BF1548DD
:109DE0000068C06A00EB8000114951F8200001288A
:109DF00001D94FF001081048006808B14FF0010880
:109E000005E0FFE70D480068401C0C49086040462B
:109E1000BDE8F0813802002010020020000200207E
:109E200004020020240200202C0200201402002042
:109E3000781B0020FC010020200200201C020020D2
:109E400070B5002400263248006808B900BFFEE75C
:109E5000FFF7F4FB2E480068401E2D4908600846B5
:109E6000006800284FD12B48006800284BD024E020
:109E70002948C068C46804F11800FFF795FB201D4D
:109E8000FFF792FB94F82C100120884023490968C1
:109E9000084322490860E16A01EB8101204A02EB94
:109EA0008100211DFFF7BEFB1E49E06A0968C96AEF
:109EB000884202D301201C4908601748006808B98D
:109EC000012000E000200028D2D00CB1FEF7C4FC35
:109ED0001648056865B100BFFFF718FF10B10120F3
:109EE000114908606D1E002DF6D100200F49086051
:109EF0000D48006838B1012630070D490860BFF3EE
:109F00004F8FBFF36F8FFFF7BBFB304670BD000074
:109F1000380200200C020020041C00201402002043
:109F2000781B0020FC010020200200201C020020E1
:109F300004ED00E0800000000001000000020000CD
:109F400000040000000800000010000005080A14CA
:109F50004275696C6474696D65203A4D6179203190
:109F60003820323032332030393A34373A343800FE
:109F7000909F00080000002044020000E25E0008FC
:109F800040A0000844020020FC3900007470000862
:109F9000110C2F100140040A3D14040A1818043251
:109FA000083210322032404280320132023204093B
:109FB0001121091D1F093B403B509F13A112FF03B4
:109FC0002555AA1201420780650F1923323C3E40F5
:109FD000424446484A4C4E50525456585A5C5E6071
:109FE000626466686A6C6E70727476787A7C7E8061
:109FF000828486888A8C8E90929496989A9C9EA051
:10A00000A2A4A6A8AAACAEB0B2B4B6B8BABCBEC040
:10A01000C2C4C6C8CACCCED0D2D4D6D8DADCDEE030
:10A02000E2E4E6E8EAECEEF0F2F4F6F8FADA58AC3C
:10A0300001131AAA010140820444F36F06000000D4
:0400000508005D058D
:00000001FF
