:020000040800F2
:10000000B03C0020B1010008F9130008BB01000852
:10001000F5130008FD060008D916000800000000CE
:1000200000000000000000000000000019010008AE
:10003000550C0008000000005D010008AD14000828
:10004000CB010008CB010008CB010008CB01000860
:10005000CB010008CB010008CB010008CB01000850
:10006000CB010008CB010008CB010008CB01000840
:10007000CB010008CB010008CB010008CB01000830
:10008000CB010008CB010008CB010008CB01000820
:10009000CB010008CB010008CB010008CB01000810
:1000A000CB010008CB010008CB010008CB01000800
:1000B0008D150008CB010008CB010008B510000821
:1000C00011100008CB010008CB010008CB0100088B
:1000D000CB0100089D160008CB010008CB010008E9
:1000E000CB010008CB010008CB0100080000000094
:1000F0000000000000000000000000000000000000
:10010000CB010008DFF80CD000F0BAF80048004737
:10011000A5260008B03C0020224B19680868B0E80A
:10012000F00F80F30988BFF36F8F4FF0000080F36A
:1001300011884EF00D0E7047000000000648006860
:10014000006880F3088862B661B6BFF34F8FBFF3D3
:100150006F8F00DF00BF00BF08ED00E0EFF3098004
:10016000BFF36F8F0F4B1A6820E9F00F106008B5CE
:100170004FF0500080F31188BFF34F8FBFF36F8FA4
:1001800003F094FE4FF0000080F31188BDE80840B2
:1001900019680868B0E8F00F80F30988BFF36F8F23
:1001A000704700BFE4010020EFF3058070470000B6
:1001B0000648804706480047FEE7FEE7FEE7FEE701
:1001C000FEE7FEE7FEE7FEE7FEE7FEE7E1140008D4
:1001D0000501000840EA01039B0703D009E008C9B4
:1001E000121F08C0042AFAD203E011F8013B00F8FC
:1001F000013B521EF9D27047D2B201E000F8012B48
:10020000491EFBD270470022F6E710B513460A4696
:1002100004461946FFF7F0FF204610BD2DE9F05FB8
:100220000546002092469B46884606468146402465
:100230001BE0284641464746224600F042F8534616
:100240005A46C01A914110D311461846224600F072
:1002500029F82D1A67EB01084F462246012000219C
:1002600000F020F817EB00094E41201EA4F1010414
:10027000DFDC484631462A464346BDE8F09F000091
:10028000064C074D06E0E06840F0010394E80700E3
:1002900098471034AC42F6D3FFF738FF784800088F
:1002A00098480008202A04DB203A00FA02F10020D6
:1002B00070479140C2F1200320FA03F319439040A4
:1002C0007047202A04DB203A21FA02F0002170470F
:1002D00021FA02F3D040C2F12002914008431946AE
:1002E000704770B58C1810F8015B15F0070301D149
:1002F00010F8013B2A1106D110F8012B03E010F889
:10030000016B01F8016B5B1EF9D12B0705D40023AB
:10031000521E0DD401F8013BFAE710F8013BCB1A4D
:10032000921C03E013F8015B01F8015B521EF9D542
:10033000A142D8D3002070BD70B504460D4600BF61
:1003400040F20161294801F0EDFF0028F8D127486B
:1003500002F06EF800BF4FF4A061244801F0E2FF04
:100360000028F8D06FF001027821204802F048F808
:1003700000BF40F201511D4801F0D4FF0028F8D021
:1003800040F20151194801F0B9FF00BF40F2075196
:10039000164801F0C7FF0128F8D12146134801F0A3
:1003A000A5FF00BF40F20751104801F0BBFF002835
:1003B000F8D005B1032529460C4801F097FF00BF8E
:1003C00040F20751094801F0ADFF0028F8D0074876
:1003D00002F033F800BF0548006800F40070002800
:1003E000F9D10021252000F033F970BD00580040FC
:1003F00010B5002400BF40F201612B4801F092FFCC
:100400000028F8D1284802F013F800BF4FF4A0618B
:10041000254801F087FF0028F8D06FF0010278210D
:10042000214801F0EDFF00BF40F201511E4801F0EC
:1004300079FF0028F8D040F201511B4801F05EFF1F
:1004400000BF40F20751184801F06CFF0128F8D1B5
:100450002621154801F04AFF00BF40F2075112481B
:1004600001F060FF0028F8D000240CE003210E48C2
:1004700001F03CFF00BF40F207510B4801F052FF72
:100480000028F8D0641C242CF0DB074801F0D5FFCD
:1004900000BF0548006800F400700028F9D1002171
:1004A000252000F0D5F810BD0058004010B50024FC
:1004B00000BF40F201612B4801F034FF0028F8D161
:1004C000284801F0B5FF00BF4FF4A061254801F0B6
:1004D00029FF0028F8D06FF001027821214801F0AF
:1004E0008FFF00BF40F201511E4801F01BFF0028A2
:1004F000F8D040F201511B4801F000FF00BF40F26C
:100500000751184801F00EFF0128F8D1262115489F
:1005100001F0ECFE00BF40F20751124801F002FF6B
:100520000028F8D000240CE000210E4801F0DEFE87
:1005300000BF40F207510B4801F0F4FE0028F8D04C
:10054000641C242CF0DB074801F077FF00BF05484E
:10055000006800F400700028F9D10021252000F087
:1005600077F810BD0058004070B50446002500BF64
:1005700040F201612B4801F0D5FE0028F8D129484E
:1005800001F056FF00BF4FF4A061264801F0CAFEFB
:100590000028F8D06FF001027821224801F030FFE6
:1005A00000BF40F201511F4801F0BCFE0028F8D006
:1005B00040F201511B4801F0A1FE00BF40F207517B
:1005C000184801F0AFFE0128F8D10121154801F0CB
:1005D0008DFE00BF40F20751124801F0A3FE002833
:1005E000F8D000250CE021460E4801F07FFE00BF48
:1005F00040F207510B4801F095FE0028F8D06D1C21
:10060000242DF0DB074801F018FF00BF0548006803
:1006100000F400700028F9D10021252000F018F81E
:1006200070BD00000058004010B540F2036002F0B9
:1006300039FD4FF4805303221021044801F050FC8F
:100640004FF48051014801F049FC10BD000C0140FD
:1006500070B504460D4600BF40F20161264801F026
:1006600061FE0028F8D1244801F0E2FE00BF4FF4FB
:10067000A061214801F056FE0028F8D06FF0010279
:1006800078211D4801F0BCFE00BF40F201511A481C
:1006900001F048FE0028F8D040F20151164801F060
:1006A0002DFE00BF40F20751134801F03BFE012828
:1006B000F8D12146104801F019FE00BF40F2075161
:1006C0000D4801F02FFE0028F8D029460A4801F015
:1006D0000DFE00BF40F20751074801F023FE00283D
:1006E000F8D0054801F0A9FE00BF0348006800F4F7
:1006F00000700028F9D170BD0058004000BFFEE72F
:1007000000207221AD4A1170262151701321917081
:10071000522111712722A9494A7116228A71422158
:10072000A64A11722822A5494A7218228A725A21B1
:10073000A24A11732922A1494A730D228A735821B2
:100740009E4A11742A229D494A7415228A74702186
:100750009A4A11752B2299494A7512228A7550219D
:10076000964A11762C2295494A7617228A7660217C
:10077000924A11772D2291494A7714228A7748218B
:100780008E4A82F820102E228C4981F821201122D5
:1007900081F822204021894A82F824102F2287499B
:1007A00081F825200E2281F826206821834A82F8CC
:1007B00028103022814981F829200F2281F82A202F
:1007C0005B217E4A82F82C1031227C4981F82D2051
:1007D000062281F82E206B21784A82F830103222CE
:1007E000764981F83120052281F832207321734A3D
:1007F00082F834103322714981F83520042281F8BF
:10080000362053216D4A82F8381034226B4981F822
:100810003920032281F83A206321684A82F83C108B
:100820003522664981F83D20022281F83E204B2185
:10083000624A82F840103622604981F84120012244
:1008400081F8422043215D4A82F8441037225B49F7
:1008500081F845201D2281F846204121574A82F81F
:1008600048103822554981F849201E2281F84A2033
:100870004921524A82F84C103922504981F84D20C2
:10088000072281F84E2061214C4A82F850103A220A
:100890004A4981F85120082281F852205121474AC3
:1008A00082F854103B22454981F85520092281F8ED
:1008B00056207121414A82F858103C223F4981F864
:1008C00059200A2281F85A2069213C4A82F85C109A
:1008D0003D223A4981F85D200B2281F85E205921A2
:1008E000364A82F860103E22344981F861200C2299
:1008F00081F862206221314A82F864103F222F4938
:1009000081F86520102281F866206A212B4A82F83E
:1009100068104022294981F86920192281F86A204B
:100920006421264A82F86C104122244981F86D2006
:100930001F2281F86E204A21204A82F8701042223C
:100940001E4981F871201A2281F8722054211B4A15
:1009500082F874104322194981F87520202281F809
:1009600076204C21154A82F878104422134981F8E8
:1009700079201B2281F87A205C21104A82F87C10B1
:1009800045220E4981F87D20212281F87E204421D4
:100990000A4A82F880104622084981F881201C22E8
:1009A00081F8822000BF05E00021044A02EB8002AA
:1009B000D170401C2128F7DB70470000B0020020F6
:1009C00010B502460B460020002104E0545C0444AC
:1009D000E0B24C1CE1B25C1E8C42F7DC10BD0000A2
:1009E00070B50546A5F13000052804D2DFE800F017
:1009F0000A1A20263500294620A000F06FFE00F0DC
:100A0000AFF800BF27A000F069FE2948016829A0BF
:100A100000F064FE29A000F061FE042130A000F087
:100A20005DFE29E033A000F059FEFFF7E1FC23E072
:100A300036A000F053FEFFF739FD1DE001F046FA45
:100A40000446642C01DA601DC4B2214636A000F0D1
:100A500045FE204602F08CFC0EE001F037FA044619
:100A6000052C01DB601FC4B2214636A000F036FE23
:100A7000204602F07DFC00BF00BF70BD4552524FC2
:100A8000523A20436F6D6D616E6420556E6B6E6FD0
:100A90007720636D64203D20307825782121210D59
:100AA0000A0000002A4672656552544F532A2000FE
:100AB0002001002025730D0A0000000041757468B4
:100AC0006F723A4A432644615A6869203C76783A04
:100AD0003238353430383133363E0D0A00000000EC
:100AE00056657273696F6E203A20253032640D0AA4
:100AF000000000004154393233365F4C45445F6C8E
:100B000069676874416C6C0D0A0000004154393209
:100B100033365F4C45445F6C69676874416C6C5F49
:100B20004F46460D0A0000007365745F6B65796C73
:100B30006564735F70776D202B2B2B2025640D0A65
:100B4000000000007365745F6B65796C6564735FAA
:100B500070776D202D2D2D2025640D0A00000000DA
:100B600010B50BA000F0BAFD0DA000F0B7FD14A069
:100B700000F0B4FD18A000F0B1FD1DA000F0AEFD26
:100B800022A000F0ABFD28A000F0A8FD10BD0000E1
:100B90000D0A446562756720636D643A0D0A0000B2
:100BA000302E207072696E742050726F6772616DA2
:100BB000206275696C642074696D650D0A0000001F
:100BC000312E206B65795F4C4544735F6C696768B3
:100BD00074416C6C0D0A0000322E206B65795F4CFD
:100BE0004544735F4F6666416C6C0D0A000000005F
:100BF000332E206B65795F4C4544732073657420F8
:100C000050574D202B2B2B2B200D0A00342E206B00
:100C100065795F4C454473207365742050574D20AF
:100C20002D2D2D2D200D0A006F746865722E2070F9
:100C300072696E742068656C700D0A0010B5044806
:100C400002F058FEC4B22046FFF7CAFE10BD0000F5
:100C500000380140704700001D204C4908700120F9
:100C60004870022088700320C87004200871052095
:100C70004871062088710E20C87111200872142056
:100C80004872172088720D20C87215200873122030
:100C900048730F2088731020C8731320087416201F
:100CA0004874182088741920C874272008751A20E1
:100CB00048751B2088752120C875202008761F20C4
:100CC00048760C2088760B20C8760A200877092001
:100CD0004877082088770720C8771E2081F82000F1
:100CE000222081F82100232081F82200242081F88D
:100CF0002300262026490870272048702820887065
:100D00002920C8702A2008712B2048712C20887156
:100D10003420C87146200872412048723C208872F5
:100D20003B20C872402008734520487335208873E3
:100D30003620C873442008743F2048743A208874D1
:100D40003720C874432008753E20487539208875BF
:100D50003820C8753D2008764220487633208876B2
:100D60003220C87631200877302048772F208877C6
:100D70002E20C8772D2081F82000262081F8210020
:100D800081F8220081F8230070470000340300201E
:100D9000640300201D204C49087001204870022087
:100DA00088700320C870042008710520487106204F
:100DB00088710E20C8711120087214204872172003
:100DC00088720D20C87215200873122048730F20F6
:100DD00088731020C87313200874162048741820D4
:100DE00088741920C874272008751A2048751B209C
:100DF00088752120C875202008761F2048760C2091
:100E000088760B20C8760A200877092048770820C2
:100E100088770720C8771E2081F82000222081F8DB
:100E20002100232081F82200242081F8230026209D
:100E30002649087027204870282088702920C8700B
:100E40002A2008712B2048712C2088712D20C87110
:100E500031200872362048723C2088723B20C872CC
:100E600037200873322048732E2088732F20C873D0
:100E7000332008743F2048743A2088743020C874A6
:100E8000342008753E204875392088753820C8758B
:100E90003D20087635204876402088764120C87667
:100EA0004220087743204877442088774520C87738
:100EB000462081F82000262081F8210081F82200B8
:100EC00081F82300704700003403002064030020F1
:100ED0001D204D49087001204870022088700320B1
:100EE000C8700420087105204871062088710E2002
:100EF000C8711120087214204872172088720D20C2
:100F0000C87215200873122048730F2088731020B0
:100F1000C873132008741620487418208874192088
:100F2000C874272008751A2048751B208875212051
:100F3000C875202008761F2048760C2088760B2064
:100F4000C8760A2008770920487708208877072084
:100F5000C8771E2081F82000222081F8210023205C
:100F600081F82200242081F82300262027490870D8
:100F700027204870282088702920C8702A200871EE
:100F80002B2048712C2088712D20C87131200872C7
:100F9000362048723C2088723B20C8723720087384
:100FA000322048732E2088732F20C8733320087492
:100FB0003F2048743A2088743020C8743420087563
:100FC0003E204875392088753820C8753D20087640
:100FD00035204876402088764120C8764220087720
:100FE00043204877442088774520C877462081F8F9
:100FF0002000472081F82100492081F82200482064
:1010000081F82300704700003403002064030020AF
:1010100010B52049204801F0C5F918B11D491E48F6
:1010200001F0AAF91D491C4801F0BCF918B11B498F
:10103000194801F0A1F91A49174801F0B3F918B19C
:101040001749154801F098F91649134801F0AAF913
:1010500018B11449104801F08FF913490E4801F0F6
:10106000A1F918B110490C4801F086F90F490A4856
:1010700001F098F918B10D49074801F07DF90C49C4
:10108000054801F08FF918B10949034801F074F9D6
:1010900010BD000008010A050054004008010F05BA
:1010A00008010E0508010B050801090508010805DE
:1010B00008010C0510B55649564801F073F9A8B15E
:1010C0000020554908705249524801F055F9002056
:1010D00052490870084602780078401C0B46187088
:1010E0004F48815C4B4801F001F980E04D49494887
:1010F00001F058F990B1474801F0F4F84A490A78EC
:10110000891C8854891E0978481CC11700EB91611D
:101110008911A0EB8111444A117068E043493D48B0
:1011200001F040F948B342493A4801F03BF920BB8D
:101130003A48007807285ADA3948384A1278815CE8
:10114000344801F0D3F835480078401C3349087022
:101150000846007807284AD1002031498870C870B5
:1011600008714871887101202B49087000221146CE
:101170003048006802F0B6FD39E02F49254801F0FB
:1011800011F908B3234801F0B4F84FF484712148F1
:1011900001F0D7F84FF485711E4801F0D2F840F203
:1011A00009111C4801F0CDF80022114623480068BF
:1011B00002F098FD012018490870002211461D48D0
:1011C000006802F08FFD12E01D49124801F0EAF8B4
:1011D00020B11B490F4801F0CFF808E013490D4832
:1011E00001F0E0F818B111490A4801F0C5F84FF4D0
:1011F0008471084801F0B2F840F20911054801F085
:10120000ADF84FF48571034801F0A8F810BD000057
:101210000901010500540040480100204A01002056
:101220003E010020090106052C02002009010705E6
:1012300008010A052C0100200901040524010020F1
:101240000901020510B540F2026001F02BFF0421F4
:10125000044800F043FE042302221021014800F05C
:101260003FFE10BD0008014010B5012206211F20DD
:1012700001F0C6FA01220621202001F0C1FA4FF444
:101280008471074801F06AF840F20911044801F03E
:1012900065F84FF48571024801F060F810BD000058
:1012A0000054004010B540F2157001F0FBFE002222
:1012B0000849094800F0A4FF80230022114606488F
:1012C00001F0A8F8044801F014F80121024800F0E8
:1012D0008BFF10BDA08601000054004010B540F205
:1012E000036001F0DFFE4FF4C06001F0DBFE01217E
:1012F000022000F053FE4FF4407303221C210248E9
:1013000000F0EEFD10BD0000000C014010B5FFF72D
:10131000E5FFFFF7C7FFFFF7A7FF10BD10B540F2CD
:10132000167001F0BFFE00220849094800F068FF6E
:10133000AC2300221146064801F06CF8044800F086
:10134000D8FF0121024800F04FFF10BDA086010028
:101350000058004010B540F2036001F0A3FE4FF4C6
:10136000406303221C21024800F0BAFD10BD0000BA
:10137000000C014010B5FFF7EDFFFFF7CFFFFFF7BF
:10138000BFF900214F20FFF763F901210020FFF78B
:101390005FF900214A20FFF75BF901214B20FFF79D
:1013A00057F9042001F0E4FFFFF722F810BD000018
:1013B00010B5044624B11021044800F08FFD03E06D
:1013C0001021024800F088FD10BD0000000C014013
:1013D00010B540F2036001F065FE102303221946A8
:1013E000034800F07DFD1021014800F077FD10BD9D
:1013F000000C014000BFFEE77047000010B540F24E
:10140000046001F04FFE4FF4C06001F04BFE072373
:1014100002221021034800F063FD07200149086102
:1014200010BD0000001001400721104A116128285A
:1014300006D0292808D02A280AD02B2810D10BE062
:1014400001210A4A51610FE00221084A51610BE073
:101450000421064A516107E00721044A516103E073
:101460000721024A116100BF00BF70470010014010
:10147000282806D0292808D02A280AD02B280CD1C1
:101480000CE00121084A11610CE00221064A1161B9
:1014900008E00421044A116104E000BF0721024A68
:1014A000116100BF00BF70470010014010B500BFC0
:1014B000502080F31188BFF34F8FBFF36F8F00BFB1
:1014C00003F018F818B14FF080500449086000BFCD
:1014D000002080F3118800BF10BD000004ED00E083
:1014E00010B51448006840F0010012490860084631
:1014F0004068114908400F494860084600680F4994
:1015000008400C4908600846006820F48020086004
:10151000084640680A49084006494860084600688D
:1015200006490840034908604FF41F00886001F035
:1015300089FF10BD001002400C00FFE8FFFFF6FE1F
:10154000FFFF00F77FB505460C464FF4E06001F061
:10155000A9FD684602F02EF90295ADF800406946F3
:101560004FF0804002F0A2F84FF0804002F094F873
:101570000121880702F00EF9002207211C2001F04A
:101580003FF90121880702F001F97FBD38B5002538
:10159000002000900121880702F000F9002873D094
:1015A0000121880702F0F6F83848007800F00100C1
:1015B0008DF800003548007800F002008DF8010039
:1015C0003248007800F004008DF802002F480078BF
:1015D00000F008008DF803002D4890F82A00042838
:1015E00013DA2B4890F82A002A49085C60BB284887
:1015F00090F82A001DF8000008B1012000E000204A
:1016000001462B2000F0ECFA1EE000241AE02048EE
:10161000005D042812DA1E48005D1E49085C78B996
:101620001B4A125D1DF802200AB1012200E00022CF
:101630001146621CD0B200F0D3FA01E0681CC5B2BA
:10164000601CC4B2292CE2DB002416E01148005DC6
:10165000401C104908550846005D0F49095D884245
:1016600009DB00200B4908550120A04007490978F3
:10167000484006490870601CC4B2042CE6DB2A2DE1
:1016800002D1680702F008F838BD0000B50100205B
:10169000B8030020B10100205448000810B50B49E0
:1016A0000B4802F0B7F930B1FFF7C8FA074908480C
:1016B00002F0A3F908E00749054802F0ABF918B1B8
:1016C0000449034802F099F910BD00000503050024
:1016D000003801400403040000BFFEE70FB4054BCF
:1016E00010B503A9044A029800F018F810BC5DF880
:1016F00014FB0000511D00082802002002E008C869
:10170000121F08C1002AFAD170477047002001E07B
:1017100001C1121F002AFBD1704700002DE9FF4FC5
:101720008DB00F460546002606E025280BD0DDE9E2
:101730000F1290476D1C761C28780028F5D111B047
:101740003046BDE8F08F0024A246A1460122EC49B4
:1017500000E0044315F8013F203B02FA03F0084281
:10176000F7D128782A2810D06FF02F022878A0F11E
:101770003001092914D80AEB8A0102EB410144F037
:10178000020400EB010A6D1CF0E701CF5FEA000ADA
:1017900003D544F40054CAF1000A44F002046D1C5D
:1017A00028782E2817D115F8010F44F004042A28B0
:1017B0000ED06FF02F022878A0F1300109290AD845
:1017C00009EB890102EB410100EB01096D1CF2E715
:1017D00057F8049B6D1C28786C280FD006DC4C2829
:1017E00017D068280DD06A2814D104E0742810D0CE
:1017F0007A280FD10DE044F400140AE044F4801478
:1018000001E044F440146978814202D104F5801467
:101810006D1C6D1C2A786E2A1FD00CDC632A31D017
:1018200004DC002A8BD0582A11D1A3E0642A68D0A6
:10183000692A0CD165E0732A2ED004DC6F2A73D09C
:10184000702A04D19BE0752A6FD0782A6ED010469A
:10185000DDE90F129047761C50E1C4F302500228D4
:1018600006D0032809D0042801CF09D0066045E13D
:1018700001CFF117C0E9006140E101CF06803DE1F1
:1018800006703BE117F8040B8DF8000000208DF87E
:101890000100EB46012003E057F804BB4FF0FF3096
:1018A00061074FF0000102D40DE008F10101884604
:1018B00049450FDA8045F8DB1BF808100029F4D100
:1018C00008E008F1010188468142FADB1BF80810A4
:1018D0000029F6D1DDE90F23AAEB08008146214655
:1018E00000F036F9304400EB080604E0DDE90F12A1
:1018F0001BF8010B9047B8F10108F7D22146484682
:10190000F7E00A21C4F302534FF0000B0891022BB9
:1019100004D001CFC117032B09D00AE0FF1D27F027
:101920000707F7E8020108E032E01FE020E000B21C
:10193000C117042B01D140B2C117031E71F100037E
:1019400007DA4FF0000CD0EB0C006CEB01012D23FB
:1019500002E0230504D52B238DF82430012303E076
:10196000E30701D02023F7E7984658E00A2110E06A
:1019700010210EE010204FF0000B08900CE0102119
:101980004FF0000B44F004044FF00809089103E005
:1019900008214FF0000B0891C4F30253022B04D02E
:1019A00001CF0021032B06D006E0FF1D27F007071B
:1019B000F7E8020103E080B2042B00D1C0B24FF07F
:1019C000000823072BD5702A07D0DDF820C08CF043
:1019D000100C5CEA0B0C05D00EE040238DF824308F
:1019E000012308E050EA010306D030238DF82430AB
:1019F0008DF8252002239846DDF820C08CF0080CD5
:101A00005CEA0B0C0BD150EA010301D1630706D548
:101A100030238DF824304FF00108A9F10109582A2C
:101A200004D038A20B9208AA0A920BE03AA2F9E776
:101A30005B46089AFEF7F2FB0B9B9B5C0A9A521ED0
:101A40000A92137050EA0102F2D10A98ADEB00003D
:101A500000F1200B600702D524F4803401E04FF040
:101A60000109D94502DDA9EB0B0000E0002000EBE5
:101A70000B0141440890AAEB010AE00306D4DDE91A
:101A80000F232146504600F063F806444FF000094A
:101A900008E009A911F80900DDE90F12904709F1E2
:101AA0000109761CC145F4DBE0030CD5DDE90F2309
:101AB0002146504600F04CF8064404E0DDE90F12E0
:101AC00030209047761C0899481E08900029F5DCC4
:101AD00008E00A980A990078491C0A91DDE90F127A
:101AE0009047761CBBF10001ABF1010BF1DC214604
:101AF0005046DDE90F2300F019F806446D1C1BE683
:101B000009280100303132333435363738396162D3
:101B10006364656600000000303132333435363797
:101B20003839414243444546000000002DE9F04168
:101B3000044600251E461746880404D405E03946AD
:101B40002020B0476D1C641EF9D52846BDE8F08101
:101B50002DE9F041044600251E469046C80301D5F4
:101B6000302700E02027880404D505E041463846A8
:101B7000B0476D1C641EF9D52846BDE8F081000011
:101B800010B54FF4407000F091FE00F041F900F004
:101B900035F90020084908704870084908704870F5
:101BA00000F032FD01F0AEFA01F098FB00F010FDFC
:101BB00003A0FFF793FD10BD2C0200206E02002051
:101BC00073797320696E69742066696E6973682021
:101BD000323032332D30342D30360D0A0000000003
:101BE0002DE9F04104460D465A27002C15DD282C1E
:101BF00013DA204600F094F80646262E08DB144837
:101C00000078864204DC29463046FEF795FB03E067
:101C1000A5273846BDE8F08118E0282C0ADB2A2CDD
:101C200008DC1DB92046FFF723FC0FE02046FFF734
:101C3000FBFB0BE02B2C06D115B9FEF737FC05E0BA
:101C4000FEF7D6FB02E0A5273846E3E73846E1E792
:101C50003601002000F03AFC05A0FFF73FFD00BF71
:101C600000F030FC4FF4FA7002F018F8F8E70000CA
:101C7000666565645F7774675F7461736B20737406
:101C80006172740D0A000000F8B504460D46164650
:101C90001F4621480178801C4454811E0978481C45
:101CA000C11700EB91618911A0EB81111A4A1170E3
:101CB00010460178801C4554811E0978481CC117C4
:101CC00000EB91618911A0EB811111701046017830
:101CD000801C4654811E0978481CC11700EB916195
:101CE0008911A0EB8111117010460178801C4754B6
:101CF000811E0978481CC11700EB91618911A0EB86
:101D00008111117000200223024601460090034811
:101D1000006802F0F5FAF8BD6E0200202C010020E8
:101D20000246002107E00748405C904202D1064885
:101D3000405C7047491C054800788142F3DB002075
:101D4000F7E7000034030020640300203401002082
:101D500070B504460D46E1B2054801F0D0FD00BF64
:101D60000721034801F01DFE0028F9D0204670BD70
:101D70000038014030B502460B46164C002145F2B2
:101D80005550154D286000BF1348C06800F0010190
:101D9000601E041E01D00029F6D109B1002030BD1B
:101DA0000D4843600B4C00BF0B48C06800F00201B7
:101DB000601E041E01D00029F6D109B10020EEE713
:101DC000C2F30B00044DA8604AF6AA202860012047
:101DD000E5E70000FFFF0F00003000404AF6AA20B0
:101DE00001490860704700000030004045F255503E
:101DF00001490860704700000030004010B5FEF750
:101E000013FCFFF7FBFAFFF7E3FAFFF71BFA10BD2D
:101E100010B540F2026001F045F940F20E6001F0A9
:101E200041F94FF40073032218211E4800F058F8BE
:101E30004FF48063032204211A4800F051F81A4835
:101E400001F062FD4FF4E131174801F00BFD002174
:101E5000154801F01BFE0021134801F007FE002188
:101E6000114801F0F3FD00210F4801F0B1FD002100
:101E70000D4801F0A5FD04210B4801F0EFFD0821FC
:101E8000094801F0FBFD084801F086FD40F20531EC
:101E9000054801F0A5FD00220721252000F0B0FC37
:101EA00010BD0000000801400038014010B5044694
:101EB000044A52F82410044A52F8240000F066F84C
:101EC00010BD0000900000200000002001480078B4
:101ED000704700004B01002041617047016170476D
:101EE000F0B5044616460025002201F00F0501F06A
:101EF000100707B1354300201EE0012787401F402F
:101F0000C7B122684FEA800C0F2707FA0CF7BA43D3
:101F1000870005FA07F73A43282904D101278740AB
:101F20001F40676105E0482903D1012787401F4012
:101F300027612260471CB8B20828DED3082022E0BF
:101F4000012787401F40E7B16268A0F108074FEA08
:101F5000870C0F2707FA0CF7BA43A0F10807BF0058
:101F600005FA07F73A43282904D1012787401F4083
:101F7000676105E0482903D1012787401F40276199
:101F80006260471CB8B21028DAD3F0BD02469068F0
:101F9000084008B1012070470020FCE7F0B50A4670
:101FA000002300240021002500F00046B6F1004F78
:101FB00002D11D4EF16901E01B4E7168C0F303456B
:101FC00083B200F44016B6F5401F08D121F07061CD
:101FD000154E766826F07066134F7E6012E000F4AE
:101FE0008016B6F5801F06D1032606FA05F4A14334
:101FF00041F0706106E0460D360103FA06F6B14382
:1020000041F0706122B1460D360103FA06F6314304
:1020100000F00046B6F1004F02D1034EF16101E03D
:10202000014E7160F0BD0000000001407CB5044627
:10203000424909784031414A5278881AC11700EB69
:1020400091618911A0EB8111CEB2052E01DA002039
:102050007CBD00252FE039484178801C405C207011
:1020600036494978481CC11700EB91618911A0EBF2
:102070008111324A5170207855281AD100BF2F485B
:102080004178801C405C60702C494978481CC1171D
:1020900000EB91618911A0EB8111284A5170681CF5
:1020A000C5B26078AA2800D107E06078552800D131
:1020B000E5E7681CC5B2B542CDDB00BF02E00320F6
:1020C00001F0ECFD1D49097840311C4A5278881A0C
:1020D000C11700EB91618911A0EB81110329EEDB9F
:1020E000022511E015484178801C405C6055134979
:1020F0004978481CC11700EB91618911A0EB81114F
:102100000E4A5170681CC5B2052DEBDB0521204637
:10211000FEF756FC217988420ED009A0FFF7DEFABF
:102120002079E178CDE90010A378627821780AA0BF
:10213000FFF7D4FA00208BE7304689E72C02002015
:102140006932632072656376206461746120657210
:10215000726F720D0A000000646174615B305D2073
:102160003D202523782C5B315D3D202523782C5B99
:10217000325D3D202523782C5B335D3D202523787F
:102180002C5B345D3D202523780D0A0030B50246D6
:10219000144C24784034134D6D78601BC41700EB49
:1021A0009464A411A0EB8414E3B2042B01DA0020A0
:1021B00030BD002111E00B484478801C005D505474
:1021C000084C6478601CC41700EB9464A411A0EB65
:1021D0008414044D6C70481CC1B20429EBDB04204C
:1021E000E6E700006E020020012904D1026842F4F3
:1021F0008062026003E0026822F48062026070473D
:102200002DE9F05F04460E469346022000F0B8FE2A
:1022100007463148B7FBF0F9B9F13F0F01D34FF052
:102220003F09D4F804A02AF03F0A4AEA090AC4F890
:1022300004A02A4886421ED82748B7FBF0F000F1D8
:102240000108B8F13F0F02D33F20206207E0B8F148
:10225000020F02D80220206201E0C4F82080700042
:10226000B7FBF0F5042D00D20425E069C5F30B019E
:102270000843E0612EE01A4886422BD84FF496704E
:1022800009FB00F04FF47A71B0FBF1F0401C2062C2
:10229000BBF1000F08D106EB4600B7FBF0F5E06993
:1022A00020F48040E06109E006EBC60000EB061078
:1022B000B7FBF0F5E06940F48040E061C5F30B0046
:1022C00008B945F00105E06940F40040E061E069CB
:1022D0002843E061BDE8F09F40420F00A086010066
:1022E000801A060001460869C0B27047CAB202618E
:1022F0007047016841F001010160704710B540F27C
:102300000152914202D1426982690AE000EB9112C6
:10231000126801F01F040123A3409A4300EB9113BC
:102320001A6010BD10B5024602EB9110006801F072
:102330001F040123A340184008B1012010BD002054
:10234000FCE710B500EB9112126801F01F040123A5
:10235000A3409A4300EB91131A6010BD10B500EB37
:102360009112126801F01F040123A3401A4300EBED
:1023700091131A6010BD000010B5094A914202D1B4
:10238000426982690AE000EB91521268C1F3044489
:102390000123A3409A4300EB91531A6010BD000043
:1023A00009010105F0B5024600230024506800F43D
:1023B0008065C1F38910105801F01F070126BE4047
:1023C00000EA060302EB91500068C1F304470126BE
:1023D000BE4000EA06040848814202D00748814214
:1023E00004D113B10DB1012300E0002314B10BB1EE
:1023F0000120F0BD0020FCE70901060509010705E1
:1024000012F1020F02D121F0010101E041F00101BE
:102410000161704730B50C460021016821F00201CE
:1024200021430160C3F3090342EA0305856030BD1F
:10243000016841F4807101607047016841F40071E6
:102440000160704710B5044620780B4988706078A9
:10245000C870A0780871E078487107210648FEF737
:10246000AFFA0549887104210448FFF735FD0421BE
:102470000248FFF733FD10BD3E0100200008014077
:102480001CB500200090019018E04FF0FF3211467B
:10249000002001F09BF90CE000BF0948007818B15A
:1024A0006846FFF7CFFF03E00A2001F0F7FBF4E7EF
:1024B00000BF6846FFF76AFE0028EDDCE5E7000094
:1024C0004801002010B5FFF789FC10BD10B5FFF7DB
:1024D0008DFC012140F6FF70FFF74CFC10BD0000A1
:1024E0001CB5FEF747FFFEF70BF900214F20FEF762
:1024F000AFF801210020FEF7ABF800214A20FEF7DB
:10250000A7F801214B20FEF7A3F8042000F030FFCC
:10251000FDF76EFF13A0FFF7E1F800BF4FF0FF30AB
:1025200001AB002211460090104601F085FF019892
:10253000C5B20198C0F30724202D04D0602D06D029
:10254000702D0ED108E0204600F012FF09E00121B5
:10255000204600F015F804E00021204600F010F8B5
:1025600000BFDBE76B65795F6C696768745F636FF9
:102570006E74726F6C5F7461736B0D0A0000000003
:1025800070B504460E462B2C00DC04B970BD2B2C14
:102590000DD14FF0804001F07FF8002504E00520C8
:1025A0000A494855681CC5B22B2DF8DB03E005210C
:1025B000601E064A11540EB1012000E000200146C1
:1025C0002046FFF70DFB00BFE0E70000B803002046
:1025D00070B50B48006842F21071B0FBF1F0401E7C
:1025E00085B2294640F2E730FEF7ACFF002404E054
:1025F000052004490855601CC4B22B2CF8DB70BDC3
:1026000024020020B803002010B540F2046000F05E
:1026100049FD40F2056000F045FD40F2066000F023
:1026200041FD4FF6F873032248210948FFF758FC93
:102630004FF6FF73032248210648FFF751FC41F68D
:10264000FF73032248210448FFF74AFC10BD000035
:1026500000100140001401400018014070B504460C
:102660000D462B2C00DC04B970BD05F0030504F009
:102670003F00401EC4B22B2C10DA4FF0804001F016
:1026800010F82A2C08D1002603E005488555701C57
:10269000C6B22B2EF9DB01E00148055500BFE3E788
:1026A000B80300201CB5FFF76BFA2CA0FFF716F853
:1026B0003048016830A0FFF711F831A0FFF70EF89D
:1026C00003220021012001F097FC36490860002315
:1026D0001A4619463348006801F006FD0020012122
:1026E00003462022CDE900102FA1324801F0D8FD89
:1026F000314804210023C022CDE900102FA1314828
:1027000001F0CEFD0020032103468022CDE9001018
:102710002DA12F4801F0C4FD2E4802210023802264
:10272000CDE900102CA12E4801F0BAFD2D4804215E
:1027300000238022CDE900102BA12E4801F0B0FD2E
:102740000020022103464022CDE900102AA12B4897
:1027500001F0A6FD01F062FB00BFFEE76672656551
:1027600072746F73202C20696E6974206F6B212145
:102770000D0A00002001002025730D0A0000000052
:10278000417574686F723A4A432644615A686920F9
:102790003C76783A3238353430383133363E0D0AAB
:1027A00000000000300100205461736B4C656431FF
:1027B000000000005D36000824010020546F4370C3
:1027C00075000000993400086B65795F626F6400E2
:1027D0004D340008280100206C696768747300009C
:1027E000E12400082C010020696963305F73656E85
:1027F000640000008124000877746700551C0008FD
:102800002DE9F04103460D46164600240027A04658
:102810002448006800F4E060B0F5A06F15D006DC35
:10282000B0F5407F18D0B0F5806F19D110E0B0F549
:10283000C06F06D0B0F5E06F12D100274FF004084A
:1028400015E001274FF0030811E00227B8460EE01B
:1028500003274FF001080AE004274FF0000806E0C4
:102860004FF4A06000F022F80227B84600BF00BF76
:10287000C7F1040005FA00F4C8F104010F20C840B4
:102880003040044324010848C45403F01F010120D0
:1028900088405911890001F1E021C1F80001BDE82B
:1028A000F08100000CED00E000E400E0024901438B
:1028B000024A1160704700000000FA050CED00E0CC
:1028C0002DE9F04105460E461C4807681C48006883
:1028D000001D01F0E3F850B91948006890F82C1079
:1028E0000120884017490968814316480160681C27
:1028F00038B936B112480168091D134801F00CF9C6
:102900001AE07C190E4800684460BC4207D20C48AB
:102910000168091D0D48006801F0E4F80CE0084862
:102920000168091D0A48006801F0DCF809480068E0
:10293000844201D207480460BDE8F081F80100201C
:10294000E4010020FC010020981C0020EC01002084
:10295000E80100201402002010B5044601F0E8F858
:1029600023480068401C224908602248006840B99A
:10297000204804600846006801280DD100F06EF977
:102980000AE01D48006838B91A480068C06AE16A60
:10299000884201D81748046018480068401C17494D
:1029A000086094F82C1001208840154909680843F4
:1029B00013490860E16A01EB8101124A02EB8100D0
:1029C000211D01F0A9F801F0D5F80B48006868B1A5
:1029D00008480068C06AE16A884207D24FF0805018
:1029E00009490860BFF34F8FBFF36F8F10BD000020
:1029F000F4010020E4010020000200201002002069
:102A0000FC010020E41B002004ED00E010B516E0FE
:102A100001F08EF80C48C068C468201D01F03EF833
:102A20000A480068401E0949086009480068401EBD
:102A30000749086001F09EF8204600F04AF8044873
:102A400000680028E4D110BD841C0020F40100209F
:102A5000F00100202DE9F04104460F4615464FF0E5
:102A60000008A66B206C48B9206800282CD1A0680B
:102A700001F0DAFD80460020A06025E07DB93946EE
:102A8000226C6068FDF7A6FB216C606808446060FA
:102A9000D4E90101884217D32068606014E0394608
:102AA000226CE068FDF796FB216CE068411AE1605A
:102AB0002168E068884203D2216CA068411AE16075
:102AC000022D01D106B1761E701CA0634046BDE800
:102AD000F08110B50446206B01F062F8204601F049
:102AE0005FF810BD30B54FF4C053174800F007042D
:102AF0002CB1C01D20F00700134C041B1B1B024609
:102B0000124C22600024114D6C60D018083820F05F
:102B100007000F4C206000240D4D2D686C600C4D9B
:102B20002D682C601146441A4C60094C24680C60D6
:102B3000084D4C682C60084D4C682C604FF00044E8
:102B4000064D2C6030BD0000E3030020B8010020DA
:102B5000C0010020C8010020C4010020D4010020D1
:102B600000BFFFF753FF064800680128F9D94FF06E
:102B7000805004490860BFF34F8FBFF36F8FF0E7B9
:102B8000E41B002004ED00E02DE9F04106460D466F
:102B900017469846069C0DB9246000E02760E6635E
:102BA00025640121204601F05DFABDE8F0812DE9A0
:102BB000F05F82460E4690469B460A9F0C9C4FEA69
:102BC0008801A522206BFDF717FBA8F10100216BFE
:102BD00001EB800929F0070909F0070008B9012075
:102BE00000E0002008B900BFFEE786B1002507E03D
:102BF000715D04F134004155705D00B902E06D1C57
:102C00000A2DF5D300BF00213D20015502E0002030
:102C100084F83400052F00D30427E76227640020DE
:102C20006064201D00F05BFF04F1180000F057FF06
:102C30002461C7F10500A06164620020A06484F8EB
:102C40004C005A465146484600F088F920600B98DF
:102C500008B10B980460BDE8F09F000010B5002497
:102C600007E004EB84010F4A02EB810000F02AFF29
:102C7000641C052CF5D30C4800F024FF0B4800F031
:102C800021FF0B4800F01EFF0A4800F01BFF0A4816
:102C900000F018FF04480949086004480849086022
:102CA00010BD0000E41B0020481C00205C1C00201C
:102CB000701C0020841C0020981C0020E8010020CB
:102CC000EC01002010B50146164800E000680368DA
:102CD0008B42FBD30246436813448B4204D14368C2
:102CE0004C682344436001460A464B681344046819
:102CF000A34211D10C4C03682468A34208D04B684E
:102D00000468646823444B6003681B680B6005E03B
:102D1000054B1B680B6001E003680B60884200D024
:102D2000016010BDB8010020C001002070B505464B
:102D300000F0FEFEA86BE96B884201D1012400E09F
:102D4000002400F017FF204670BD0000094800680D
:102D5000006808B9012000E0002020B14FF0FF30EA
:102D60000549086005E003480068C068006802493A
:102D700008607047E8010020140200200A4800683B
:102D8000401C08B9012000E0002008B900BFFEE7A0
:102D900000BF502080F31188BFF34F8FBFF36F8FB8
:102DA00000BF00BFFEE70000D801002070B5044658
:102DB00000F0BEFE94F9455010E0606A08B90120A9
:102DC00000E0002038B904F1240001F079FC18B1CA
:102DD00001F00AF800E003E0681E45B2002DECDCCB
:102DE00000BFFF2084F8450000F0C4FE00F0A0FE04
:102DF00094F9445010E0206908B9012000E0002057
:102E000048B904F1100001F05BFC08B100F0ECFFE0
:102E1000681E45B200E001E0002DECDC00BFFF20A1
:102E200084F8440000F0A6FE70BD00002DE9F041DA
:102E300004464FF0000801F031F84248006808B934
:102E4000FFF750FE40480068204000286CD1F4B1E4
:102E500004F10800A0421AD9083404F00700B8B100
:102E600004F00700C0F108002044A0420DD904F08E
:102E70000700C0F10800044404F0070008B901206D
:102E800000E0002020B900BFFEE7002400E000249D
:102E9000002C49D02D480068844245D82C4E30463D
:102EA000056801E02E462D686868A04202D22868B5
:102EB0000028F7D123480068854235D0306800F1FA
:102EC0000808286830606868001B102810D92F197E
:102ED00007F0070008B9012000E0002008B900BF92
:102EE000FEE76868001B78606C603846FFF7EAFE12
:102EF000164968680968081A144908600846006895
:102F000014490968884203D21048006811490860D2
:102F10000D496868096808436860002028600E4809
:102F20000068401C0C49086001F00EFC08F0070026
:102F300008B9012000E0002008B900BFFEE74046C4
:102F4000BDE8F081C0010020D4010020C4010020B0
:102F5000B8010020C8010020CC010020001F4FF064
:102F600080730360001F21F001030360001F034B07
:102F70000360143802602038704700007D2D00087F
:102F80002DE9F04F8BB00746002009903EA090E855
:102F9000004CC068CDE905BECDF810A007900FF237
:102FA000EC0ADAE9000ACDE9020A0FF2E00ADAE9EE
:102FB000000ACDE9000A38484068C0F381000A9051
:102FC0000A9820B1012804D0022829D103E033490E
:102FD00028E0324926E03048406800F48038B8F5EF
:102FE000803F09D12D4C2C48406800F40039B9F5D8
:102FF000003F02D1641000E0294C27484068C0F32C
:1030000083422548406800F0006008B142F0100299
:103010000F2A01D2921C00E0521C04FB02F101E0D5
:103020001E4900BF00BF1C484068C0F3031504A838
:10303000465D21FA06F318484068C0F3022502A84D
:10304000465D23FA06FC14484068C0F3C2251DF80B
:10305000056023FA06F0089037B1012F06D0022F41
:1030600006D0032F0AD106E0099108E0099306E093
:10307000CDF824C003E00898099000E000BF00BF2D
:1030800009980BB0BDE8F08F0000000000000000C0
:1030900001020304060708090010024000127A002A
:1030A00000093D00064A02EB9011096800F01F0379
:1030B00001229A401143024B03EB901211607047BA
:1030C00000100240064A02EB9011096800F01F034D
:1030D00001229A409143024B03EB9012116070471A
:1030E00000100240064A02EB9011096800F01F032D
:1030F00001229A401143024B03EB9012116070477A
:103100000010024010B586B018221F496846FDF72E
:1031100061F800240AE05DF824101C48FEF736FF31
:10312000012802D11A490C7002E0641C062CF2DB63
:1031300000BF1748007858B115480078012807D01B
:1031400013480078032803D011480078042803D1DD
:1031500021201049087015E00D480078022803D19D
:1031600021200C4908700DE009480078052803D19A
:1031700024200849087005E021200649087006A0AF
:10318000FEF7ACFA06B010BD3C480008001801403C
:10319000350100203401002063616E206E6F7420C1
:1031A0007363616E20626F617264206E756D0A00D8
:1031B00010B51148002101608180817155200E49B0
:1031C0000870AA20487000214F20FDF741FA012124
:1031D0000020FDF73DFA00214A20FDF739FA0121D0
:1031E0004B20FDF735FA042000F0C2F80020034917
:1031F0000870487010BD0000370100202C0200202C
:1032000010B58AB0242101A8FCF7FDFF002440E09E
:103210002046FEF74BFE18B9012001A9085502E02F
:10322000002001A9085501A8005D1D49095D8842DB
:1032300029D001A8005D1A49095D884214DD1948AA
:103240000078401C174908701748005D174908703E
:103250001548015D00231A460120FEF715FD611C8B
:1032600013A0FEF73BFA0EE00F48005D1549087009
:103270000D48015D00231A460220FEF705FD611C82
:1032800011A0FEF72BFA01A8005D05490855601C46
:10329000C4B2114800788442BADB00200AB010BDE5
:1032A0009403002047010020340300204501002042
:1032B000627574746F6E20256420646F776E0D0ADA
:1032C0000000000046010020627574746F6E2025B6
:1032D000642075700D0A00003401002010B51948F3
:1032E000007858B117480078012807D015480078B1
:1032F000032803D013480078042805D1FDF7ACFC5F
:103300004620114908701BE00E480078022805D1BC
:10331000FDF740FD49200C49087011E0094800788C
:10332000052805D1FDF7D4FD49200749087007E0BD
:10333000FDF792FC46200449087004A0FEF7CEF980
:1033400010BD0000350100203601002063616E20B1
:103350006E6F74207363616E20626F617264206DA2
:1033600061702C7365742064656661756C740A0005
:1033700070B50446642C00DD6424054804700548DB
:1033800003490978455C2846FDF7EEF870BD00005A
:103390004B0100204C01002000200021264A126829
:1033A00042F00102244B1A6000BF401C224A1268FE
:1033B00002F0020111B9B0F5A06FF6D11E4A1268F1
:1033C00002F002020AB900BFFEE71B4A52681A4B1C
:1033D0005A601A4652685A601A46526842F480622D
:1033E0005A601A465268154B1A40134B5A601A46D7
:1033F0005268134B1A43104B5A601A46126842F037
:1034000080721A6000BF0C4A126802F00072002A33
:10341000F9D0094A526822F00302074B5A601A4653
:10342000526842F002025A6000BF034A526802F03A
:103430000802002AF9D0704700100240FFFFC3F7CE
:103440000000280810B5FFF7A7FF10BD002409A051
:10345000FEF744F900BF04E000200E490855601C47
:10346000C4B2242CF8DB04E0FFF7CAFE322000F0DF
:1034700015FCF9E77461736B32207363616E5F6BE7
:1034800065795F626F6172642073746172740D0A92
:1034900000000000940300200EB50020019002906F
:1034A0005AA0FEF71BF9FDF731FFAEE04FF0FF32F7
:1034B0001146002000F08AF901A8FEF7B7FD0028A8
:1034C000F3DD9DF806409DF80750302C42D008DC13
:1034D000012C0FD0022C15D0102C1BD0202C7DD10C
:1034E00022E0402C3ED0502C43D0602C4AD0702C8F
:1034F00074D15FE04E480378002211460220FEF7A7
:10350000C3FB81E04B480378002211460220FEF7FE
:10351000BBFB79E0FEF7DAFC804643460022114609
:103520001020FEF7B1FB6FE0202040EA0527642D54
:1035300000DD64255A23002211462020FEF7A4FB5B
:10354000002003233A46014600903B48006800F003
:10355000D7FE59E039480378002211463020FEF7A3
:1035600093FB51E00423002211464020FEF78CFB20
:103570004AE0FFF71DFE5A23002211465020FEF7B5
:1035800083FB41E02A4621462DA0FEF7A7F86020E4
:1035900040EA0527002003233A46014600902648CA
:1035A000006800F0ADFE5A23002211466020FEF7AD
:1035B0006BFB29E0702040EA0527002003233A46F0
:1035C000014600901C48006800F09AFE5A23002231
:1035D00011467020FEF758FB16E0FFE704F0FC00F0
:1035E000802810D12A46214615A0FEF777F804F06E
:1035F000030631462846FFF731F85A2300221146C8
:103600002046FEF741FB00BF00BF4FE77461736BBC
:103610003320636F6D756E696361746520637075C7
:10362000206969632073746172740D0A00000000E0
:10363000450100204601002028010020350100201E
:10364000636D645F74797065203D2025642C636D23
:1036500064203D2025640D0A00000000002408A01D
:10366000FEF73CF801210B48FEF798FC07E0E44325
:10367000E0B2FDF79DFE4FF4FA7000F00FFBF6E7A5
:103680007461736B345F66756E63207374617274FA
:103690000D0A000000023000016821F00101016004
:1036A0007047016841F00101016070470A88826239
:1036B000294A904220D0B0F1804F1DD0274A904235
:1036C0001AD0274A904217D0264A904214D0264A50
:1036D000904211D0254A90420ED0254A90420BD0FC
:1036E000244A904208D0244A904205D0234A90426E
:1036F00002D0234A90420FD1026822F07002026089
:1037000002688B7803F060031A43026002680B7949
:1037100003F010031A4302608A68C262194A904299
:103720000CD0194A904209D0026822F4407202601B
:1037300002688B8903F440731A430260064A904280
:1037400002D0094A904201D18A7B0263426942F069
:103750000102426170470000002C0140000400405B
:1037600000080040000C004000340140004C0140C3
:10377000005001400054014000180040001C00406F
:10378000002000400010004000140040C2680A43BE
:10379000C260704702698A43026170470246D0687E
:1037A00000EA01031069084010B10BB10120704715
:1037B0000020FCE700210180418081804FF6FF71ED
:1037C0008160002181818173704700002DE9F04103
:1037D00004460F4616460CB9012000E0002008B947
:1037E00000BFFEE700F0A4F91C480068483050F81C
:1037F000240080B90121194800684C30015556B1A8
:103800003046FFF75DF84FF0805015490860BFF370
:103810004F8FBFF36F8F00F0ADF900F089F90F48BB
:103820000068483050F824506DB137B100210B4882
:103830000068483040F8241005E0681E0749096810
:10384000483141F824000021044800684C300155FB
:1038500000F090F92846BDE8F0810000E401002066
:1038600004ED00E02DE9F04704460D460027B84678
:10387000B94600261D49601A8C421CD006DC1C4843
:10388000204470B1B0F5806F1FD10FE0B0F5806FAC
:1038900016D0B0F56C4F18D10320FFF771FB074627
:1038A00014E00220FFF76CFB07460FE00220FFF751
:1038B00067FB07460AE00220FFF762FB074605E0C8
:1038C0000220FFF75DFB074600E000BF00BF07EBEB
:1038D0005500B0FBF5F64FF6F07006EA000806F06A
:1038E0000F0948EA0900A060BDE8F087004C0040DD
:1038F00000BCFFBF01464868C0F308007047C1F331
:10390000080242607047000010B504462049601A62
:103910008C4228D006DC1F48204490B1B0F5806F5F
:1039200033D117E0B0F5806F26D0B0F56C4F2CD1B5
:1039300040F20E30FFF7D6FB40F20E30FFF7C2FB2D
:1039400024E040F21140FFF7CDFB40F21140FFF7B9
:10395000B9FB1BE040F21240FFF7C4FB40F21240FB
:10396000FFF7B0FB12E040F21340FFF7BBFB40F261
:103970001340FFF7A7FB09E040F21440FFF7B2FB4A
:1039800040F21440FFF79EFB00E000BF00BF10BDF7
:10399000004C004000BCFFBFC16841F40051C16051
:1039A000704710B5024602EB9110006801F01F0449
:1039B0000123A340184008B1012010BD0020FCE7FE
:1039C0000A460021416921F40071114341617047A9
:1039D0000A460021416921F4807111434161704719
:1039E00010B5C1F38912825801F01F040123A340CE
:1039F0001A43C1F38913C25010BD10B500EB9152A8
:103A00001268C1F304440123A3409A4300EB91538D
:103A10001A6010BD70B5024600230024C1F389105E
:103A2000105801F01F060125B54000EA050302EB1E
:103A300091500068C1F304460125B54000EA050431
:103A400014B10BB1012070BD0020FCE7C26822F464
:103A5000C062C260C2680A43C26070470A46002161
:103A6000C16821F004011143C1607047026922F46A
:103A70004052026102690A43026170470A4600210E
:103A8000C16821F008011143C1607047C26822F487
:103A90008052C260C2680A43C260704701460A6928
:103AA000D1E901309860D1E901035860506888423B
:103AB00001D188685060002008611068401E1060C5
:103AC0001068704700F1080141604FF0FF318160DC
:103AD00000F10801C160016100210160704700210F
:103AE0000161704710B502460B685C1C0CB9106987
:103AF00007E002F1080000E04068446824689C4246
:103B0000FAD944684C604C68A160886041600A61E1
:103B10001468641C146010BD42684A6093688B602E
:103B2000936859609160086103685B1C036070478B
:103B300000BF502080F31188BFF34F8FBFF36F8F0A
:103B400000BF0A480068401C084908600846006831
:103B5000012809D106480068C0B208B9012000E078
:103B6000002008B900BFFEE770470000D801002020
:103B700004ED00E00948006808B900BFFEE7074807
:103B80000068401E054908600846006820B900200A
:103B900080F3118800BF00BF70470000D8010020EB
:103BA00070B506463546002E32D0083D2C461949E0
:103BB00060680968084008B1012000E0002008B9E9
:103BC00000BFFEE7206808B9012000E0002008B926
:103BD00000BFFEE70F49606809680840C0B120686F
:103BE000B0B90C49606809688843606000F056F914
:103BF0000949606809680844074908602046FFF7DA
:103C000061F806480068401C0449086000F09CFD0B
:103C100070BD0000D4010020C4010020D0010020AC
:103C200000204FF0E02108618861064800684FF4E9
:103C30007A71B0FBF1F0401E4FF0E021486107209F
:103C4000086170472402002070B5FCF7ADFA054604
:103C5000102D0DD305F1E02090F8F0430C480078CA
:103C6000844201DB012000E0002008B900BFFEE72C
:103C70000848006800F4E06007490968884201D8F4
:103C8000012000E0002008B900BFFEE770BD000081
:103C9000DC0100200CED00E0E001002070B50446DE
:103CA00000258CB10D48006808B9012000E0002013
:103CB00008B900BFFEE700F0F1F800212046FEF74A
:103CC000FFFD00F041FD05463DB94FF0805004492D
:103CD0000860BFF34F8FBFF36F8F70BD20020020CD
:103CE00004ED00E02DE9F04705460E4690460DB97B
:103CF00000BFFEE70EB9012000E0002008B900BFB8
:103D0000FEE7FFF7A1FF2C4600BF5021EFF3118023
:103D100081F31188BFF34F8FBFF36F8F00BF07464A
:103D200004F14C0010F8069002218155001F50F854
:103D30002600401C04F1480141F82600B9F1010FAA
:103D400034D1A06A08B9012000E0002008B900BF02
:103D5000FEE719480068A8B9201DFFF79FFE94F8F8
:103D60002C10012088401549096808431349086050
:103D7000E16A01EB8101124A02EB8100211DFFF78C
:103D8000CBFE04E004F118010E48FFF7C5FE0E4912
:103D9000E06A0968C96A884208D9B8F1000F02D000
:103DA0000120C8F8000001200849086000BF87F31F
:103DB000118800BFBDE8F08720020020FC01002030
:103DC000E41B0020701C0020E401002008020020F9
:103DD00003490968016003490968416070470000B0
:103DE0000C020020F8010020012001490860704702
:103DF0000802002070B504460D460CB900BFFEE76E
:103E00000548016818312046FFF76CFE012128465D
:103E1000FEF756FD70BD0000E40100201CB51748F8
:103E200000210B464022CDE9001015A1164800F0F4
:103E300037FA0446012C15D100BF502080F31188B9
:103E4000BFF34F8FBFF36F8F00BF4FF0FF300F49AD
:103E5000086001200E49086000200E49086000F04B
:103E600061F807E0601C08B1012000E0002008B9FB
:103E700000BFFEE7084800681CBD000018020020D3
:103E800049444C4500000000612B0008140200204A
:103E900000020020F80100201C02002002480068F7
:103EA000401C014908607047200200201848006843
:103EB00018B101201749086029E000201549086061
:103EC00015480068B0FA80F0C0F11F0101EB8100D5
:103ED000124A52F8200008B1012000E0002008B981
:103EE00000BFFEE701EB81020C4B03EB820042684E
:103EF0005268426000F108024368934202D142686E
:103F0000526842604268D268054B1A6000BF704731
:103F10002002002008020020FC010020E41B0020F9
:103F2000E40100201CB52F48014609780191FF21CA
:103F3000024611700146097800919DF8001001F0C9
:103F4000F0019DF80020914201D1012100E0002103
:103F500009B900BFFEE79DF8001001F05001224AA8
:103F600011700721214A116009E020490968491EA2
:103F70001E4A11609DF800104906090E00919DF837
:103F8000001001F080018029EFD018490968C1F1C3
:103F90000701042901D1012100E0002109B900BF76
:103FA000FEE7124909680902104A116011460988A2
:103FB00001F4E06111600B4A019911700C4800682E
:103FC00040F470000A4908600846006840F07040FC
:103FD0000860FFF725FE002006490860FCF7AEF8F0
:103FE00000201CBD00E400E0DC010020E001002016
:103FF00020ED00E0D80100202DE9F84306460F46E9
:1040000090460EB1012000E0002008B900BFFEE795
:1040100006FB07F51FB1B5FBF7F0B04201D1012057
:1040200000E0002008B900BFFEE705F14800A84203
:1040300001D9012000E0002008B900BFFEE705F12A
:104040004800FEF7F3FE04464CB1A14609F14809C9
:1040500043464A46394630460094FEF795FD2046D1
:10406000BDE8F88370B505460E462C460CB900BF76
:10407000FEE7FFF75DFDD4E90F12206801FB0200A7
:10408000A0600020A06320686060E06B401E226C8E
:10409000216800FB0211E160FF2084F8440084F8ED
:1040A00045009EB9206908B9012000E00020A8B9A8
:1040B00004F1100000F004FB80B14FF0805009497A
:1040C0000860BFF34F8FBFF36F8F07E004F110005C
:1040D000FFF7F8FC04F12400FFF7F4FCFFF74AFDBA
:1040E000012070BD04ED00E02DE9FF4383B00646DA
:1040F00088461D464FF0000934460CB900BFFEE764
:10410000B8F1000F01D1206C08B9012000E00020B7
:1041100008B900BFFEE7022D02D1E06B012801D1F2
:10412000012000E0002008B900BFFEE700BFFFF754
:10413000FFFCA06BE16B884201D3022D28D12A46F7
:1041400041462046FEF786FC0746606A08B9012012
:1041500000E0002068B904F1240000F0B1FA88B151
:104160004FF0805032490860BFF34F8FBFF36F8F1D
:1041700008E03FB14FF080502D490860BFF34F8FEA
:10418000BFF36F8FFFF7F6FC012007B0BDE8F083A7
:10419000059818B9FFF7EEFC0020F6E7B9F1000F1B
:1041A00004D101A8FFF714FE4FF00109FFF7E2FC6C
:1041B000FFF774FEFFF7BCFC94F94400401C10B9F3
:1041C000002084F8440094F94500401C10B90020F8
:1041D00084F84500FFF7CEFC05A901A800F02AF8F5
:1041E000F0B92046FEF7A2FDA0B104F11000059938
:1041F000FFF700FE2046FEF7D9FD00F0A5FA0028E3
:1042000095D14FF080500A490860BFF34F8FBFF33C
:104210006F8F8CE72046FEF7C9FD00F095FA86E720
:104220002046FEF7C3FD00F08FFA0020ADE7000046
:1042300004ED00E070B505460C460DB900BFFEE781
:104240000CB900BFFEE7FFF773FC1348036868680A
:104250001A1A2068401C08B9002619E00F4928687E
:104260000968884206D06868984203D80126002071
:1042700020600DE02068904207D92068801A2060F5
:104280002846FFF7A5FD002602E000202060012659
:10429000FFF770FC304670BDF80100200C020020D2
:1042A0002DE9FF4F85B0804689461746DDE912AB00
:1042B000B800FEF7BBFD064656B15020FEF7B6FD2E
:1042C00004460CB1266304E03046FFF769FC00E0C9
:1042D00000247CB10020CDE900ABCDE902403A4694
:1042E00049464046089BFEF762FC2046FEF734FB39
:1042F000012501E04FF0FF35284609B0BDE8F08FF9
:104300002DE9F05F07460D4616469846DDF828A0D1
:104310004FF0010B0DB9012000E0002008B900BFEB
:10432000FEE70FB900BFFEE73C46FFF701FCBAF11C
:10433000000F05D004F1480050F82500CAF800002D
:1043400004F14C0010F8059002214155B8F1050F19
:1043500029D2DFE808F027030D171C0004F14800FC
:1043600050F82500304304F1480141F8250024E0CD
:1043700004F1480050F82500401C04F1480141F8C0
:1043800025001AE004F1480040F8256015E0B9F175
:10439000020F04D004F1480040F8256001E04FF01E
:1043A000000B0AE009E01F48006808B9012000E09E
:1043B000002008B900BFFEE700BF00BFB9F1010F40
:1043C0002AD1201DFFF76AFB94F82C1001208840A9
:1043D00015490968084314490860E16A01EB810145
:1043E000124A02EB8100211DFFF796FBA06A08B973
:1043F000012000E0002008B900BFFEE70C49E06A98
:104400000968C96A884207D94FF080500949086095
:10441000BFF34F8FBFF36F8FFFF7ACFB5846BDE87C
:10442000F09F0000F8010020FC010020E41B0020A8
:10443000E401002004ED00E02DE9F04704460F46BA
:1044400090461D46DDF820900CB9012000E00020C8
:1044500008B900BFFEE7FFF76BFB244800684C304B
:10446000005D02281AD021490968483101EB840017
:104470000168B943016001211C4800684C300155B6
:10448000B9F1000F0AD04846FEF71AFA4FF08050F3
:1044900017490860BFF34F8FBFF36F8FFFF76AFBB9
:1044A000FFF746FB2DB111480068483050F8240052
:1044B00028600E4800684C30005D022801D00026BC
:1044C00009E00A490968483101EB8400016821EAE2
:1044D0000801016001260021044800684C300155A4
:1044E000FFF748FB3046BDE8F0870000E4010020FC
:1044F00004ED00E02DE9F0414FF000083F4800686E
:10450000002873D13E480068451C3D480560CDB980
:104510003C480068006808B9012000E0002008B9A4
:1045200000BFFEE73748076837480068354908602C
:104530003548076035480068401C34490860FEF77C
:1045400005FC00BF3248006885423CD300BF2D48BF
:104550000068006808B9012000E0002020B14FF099
:10456000FF302B4908602DE026480068C068C46809
:104570006668B54202D22648066023E0201DFFF798
:104580008DFAA06A18B104F11800FFF787FA94F8C1
:104590002C10012088401F49096808431D49086004
:1045A000E16A01EB81011C4A02EB8100211DFFF74A
:1045B000B3FA1A49E06A0968C96A8842C7D34FF05A
:1045C0000108C4E700BF15480068C06A00EB80001E
:1045D000114951F82000012801D94FF00108104875
:1045E000006808B14FF0010805E0FFE70D480068DA
:1045F000401C0C4908604046BDE8F08120020020C4
:10460000F8010020E8010020EC0100200C0200204D
:1046100014020020FC010020E41B0020E401002023
:10462000080200200402002070B505462C46002632
:10463000002D3CD01F480068844201D1012000E0D9
:10464000002008B900BFFEE7606C08B900BFFEE7B4
:10465000606C401E6064216CE06A884227D0606C08
:1046600028BB201DFFF71AFA40B994F82C1001203E
:1046700088401149096881430F480160206CE0625D
:10468000E06AC0F10500A06194F82C100120884078
:1046900009490968084308490860E16A01EB81019A
:1046A000064A02EB8100211DFFF736FA012630464B
:1046B00070BD0000E4010020FC010020E41B00208C
:1046C00070B50646F068C4680CB900BFFEE704F197
:1046D0001800FFF7E3F916480068A8B9201DFFF796
:1046E000DDF994F82C10012088401249096808432C
:1046F00010490860E16A01EB81010F4A02EB810079
:10470000211DFFF709FA04E004F118010B48FFF737
:1047100003FA0B49E06A0968C96A884204D901258D
:1047200001200849086000E00025284670BD00000F
:1047300020020020FC010020E41B0020701C00204F
:10474000E40100200802002070B500240026324851
:10475000006808B900BFFEE7FFF7EAF92E480068D5
:10476000401E2D4908600846006800284FD12B489C
:10477000006800284BD024E02948C068C46804F1D0
:104780001800FFF78BF9201DFFF788F994F82C101B
:104790000120884023490968084322490860E16AEA
:1047A00001EB8101204A02EB8100211DFFF7B4F9E2
:1047B0001E49E06A0968C96A884202D301201C497F
:1047C00008601748006808B9012000E000200028B0
:1047D000D2D00CB1FEF7BAFA1648056865B100BF31
:1047E000FFF788FE10B10120114908606D1E002DF1
:1047F000F6D100200F4908600D48006838B1012645
:1048000030070D490860BFF34F8FBFF36F8FFFF77D
:10481000B1F9304670BD000020020020F4010020F4
:10482000701C0020FC010020E41B0020E40100209B
:10483000080200200402002004ED00E080000000D7
:104840000001000000020000000400000008000059
:104850000010000005080A144275696C6474696DE3
:1048600065203A41707220323720323032332031A5
:10487000353A35353A3233009848000800000020B8
:104880002C020000E2020008444900082C0200202B
:10489000843A00000C170008110C2F100140040A84
:1048A0003D14040A181804320832103220324042F3
:1048B00080320132023204091121091D1F093B40D7
:1048C0003B584813E112FF5355AA59075963110089
:1048D00065270F1923323C3E40424446484A4C4E1D
:1048E00050525456585A5C5E60626466686A6C6ED8
:1048F00070727476787A7C7E80828486888A8C8EC8
:1049000090929496989A9C9EA0A2A4A6A8AAACAEB7
:10491000B0B2B4B6B8BABCBEC0C2C4C6C8CACCCEA7
:10492000D0D2D4D6D8DADCDEE0E2E4E6E8EAECEE97
:10493000F0F2F4F6F8FA1AAA010140820444F36F87
:04494000060000006D
:0400000508000105E9
:00000001FF
