:020000040800F2
:10000000D82C00201901000889080008E103000825
:1000100085080008270200083F11000800000000C2
:10002000000000000000000000000000E50A0008D9
:100030007702000800000000B9080008D70F000888
:1000400033010008330100083301000833010008C0
:1000500033010008330100083301000833010008B0
:1000600033010008330100083301000833010008A0
:100070003301000833010008330100083301000890
:100080003301000833010008330100083301000880
:100090003301000833010008330100083301000870
:1000A0003301000833010008330100083301000860
:1000B00033010008330100083301000889040008F7
:1000C000E50300083301000833010008330100088C
:1000D0003301000833010008330100083301000830
:1000E000330100083301000833010008000000005C
:1000F0000000000000000000000000000000000000
:1001000033010008DFF80CD000F05CF8004800472D
:100110001D2A0008D82C00200648804706480047C2
:10012000FEE7FEE7FEE7FEE7FEE7FEE7FEE7FEE7A7
:10013000FEE7FEE7E10F00080501000840EA0103C1
:100140009B0703D009E008C9121F08C0042AFAD28D
:1001500003E011F8013B00F8013B521EF9D2704751
:100160002DE9F05F0546002092469B4688460646EC
:10017000814640241BE0284641464746224600F07F
:1001800042F853465A46C01A914110D311461846B8
:10019000224600F029F82D1A67EB01084F46224647
:1001A0000120002100F020F817EB00094E41201E2D
:1001B000A4F10104DFDC484631462A464346BDE847
:1001C000F09F0000064C074D06E0E06840F0010398
:1001D00094E8070098471034AC42F6D3FFF796FF37
:1001E0002437000844370008202A04DB203A00FAAC
:1001F00002F1002070479140C2F1200320FA03F37E
:10020000194390407047202A04DB203A21FA02F07B
:100210000021704721FA02F3D040C2F12002914040
:1002200008431946704700BFFEE730B50246002379
:10023000541802E012F8015B2B44A242FAD3D8B260
:1002400030BDF0B505460E460024AF1905E015F89F
:10025000011BA0B200F04CFF0446BD42F7D3A0B290
:10026000002100F045FF04462046002100F040FF39
:1002700004462046F0BD70470349086000BF0249AC
:1002800009680029FBD17047440000200448006839
:1002900020B103480068401E014908607047000013
:1002A000440000202DE9F047002400250126022704
:1002B0004FF004084FF0010902F062FE05462448A1
:1002C000006828402249096888423BD002F0CCFDF2
:1002D00004461F48006828431D49086002F072FD6B
:1002E00081461B480068401C28B119480068C0437B
:1002F00002F0F2FD814604F00700072813D004F055
:10030000010000B9002604F0020000B9002704F043
:10031000040008B94FF0000808F0FF02F9B2F0B28B
:10032000082302F0A9FDB9F1000F07D109A000F0E0
:10033000C5FD104800F0C2FD01F0B6FB0EA000F0B4
:10034000BDFD02E017A000F0B9FDBDE8F087000098
:100350000C00002057726974652050726F746563D9
:1003600074696F6E2064697361626C65642E2E2EF1
:100370000D0A0000443500084572726F723A20463B
:100380006C61736820777269746520756E70726F26
:1003900074656374696F6E206661696C65642E2E86
:1003A0002E0D0A00466C617368206D656D6F727961
:1003B000206E6F742077726974652070726F746537
:1003C000637465640D0A000001B500200099C1F353
:1003D00009021AB1012202EB912000E0880A08BD4F
:1003E00000BFFEE710B52049204802F08BFA18B193
:1003F0001D491E4802F070FA1D491C4802F082FA9D
:1004000018B11B49194802F067FA1A49174802F057
:1004100079FA18B11749154802F05EFA16491348DF
:1004200002F070FA18B11449104802F055FA134955
:100430000E4802F067FA18B110490C4802F04CFA65
:100440000F490A4802F05EFA18B10D49074802F058
:1004500043FA0C49054802F055FA18B10949034816
:1004600002F03AFA10BD000008010A0500540040ED
:1004700008010F0508010E0508010B050801090513
:100480000801080508010C0570B55449544802F0EC
:1004900039FA20B15149524802F01EFA8DE0514913
:1004A0004F4802F02FFA90B14D4802F0EFF94E4953
:1004B0000A88091D8854081F0088401C4FF4816178
:1004C00090FBF1F201FB12004749088075E04749B3
:1004D000434802F017FAC8B34549414802F012FAFE
:1004E000A0BB42493E4802F0F7F942480078401C60
:1004F000404908704048008800F581603E494988BD
:10050000401A4FF4816190FBF1F201FB1200C5B279
:10051000002D1CDD3749087800EBD0714910A0EBA5
:100520004101A1B134484188001D445C001F40884E
:10053000401C4FF4816190FBF1F201FB12002E4947
:1005400048802146264802F0A5F936E004E0002163
:10055000234802F09FF930E02849214802F0D2F9FF
:10056000A8B11F4802F099F94FF484711C4802F0B9
:1005700099F94FF485711A4802F094F940F2091183
:10058000174802F08FF901201D49087015E01D4938
:10059000134802F0B7F920B11A49114802F09CF94A
:1005A0000BE012490E4802F0ADF930B10F490C488A
:1005B00002F092F90120124908704FF48471084842
:1005C00002F07DF940F20911054802F078F94FF484
:1005D0008571034802F073F970BD0000090101053F
:1005E0000054004009010605BE040020090107056A
:1005F00008010A052A000020CA0800200901040594
:10060000290000200901020510B5044640F20260ED
:1006100002F04EFD2748844212D12749086040F27B
:10062000117002F045FD042302221821234801F035
:10063000ABFF082302220421204801F0A5FF11E0AE
:1006400040F20E6002F034FD4FF4007302221821D4
:100650001A4801F099FF4FF48063022204211748E1
:1006600001F092FF204602F0B7FE4FF4E131204640
:1006700002F060FE0021204602F03AFF00212046F1
:1006800002F026FF0021204602F012FF0021204642
:1006900002F006FF0021204602F0FAFE0421204667
:1006A00002F00EFF0821204602F01AFF204602F059
:1006B000DBFE10BD004400404C000020000801405B
:1006C00010B5012206211F2002F01CFB0122062189
:1006D000202002F017FB4FF48471074802F0EFF876
:1006E00040F20911044802F0EAF84FF4857102481B
:1006F00002F0E5F810BD00000054004010B540F2D3
:10070000157002F0D5FC00220849094802F04CF8A7
:10071000802300221146064802F022F9044802F024
:10072000BCF80121024802F033F810BDA086010098
:100730000054004010B540F2036002F0B9FC4FF4E1
:10074000C06002F0B5FC0121022001F07BFF4FF4F4
:10075000407303221C21024801F016FF10BD000067
:10076000000C014010B5FFF7E5FFFFF7C7FFFFF7EB
:10077000A7FF00200349088048800349088048807B
:1007800010BD0000BE040020CA080020F0B5144AC5
:1007900000250024002320E0B1FBF2F6303606F0FD
:1007A000FF0C2E466D1C00F806C0B1FBF2F602FBF2
:1007B00016110A26B2FBF6F26E1E865D302E01D1AE
:1007C000012600E000260CB9012700E000273E408A
:1007D0000EB1002500E0641C5B1C0A2BDCD3F0BDCD
:1007E00000CA9A3B10B51021014801F0CBFE10BDA4
:1007F000000C014010B51021014801F0C1FE10BDF0
:10080000000C014010B51021054801F013FF04460B
:1008100014B9FFF7E7FF01E0FFF7ECFF10BD0000A0
:10082000000C014010B540F2036002F041FC1023BF
:1008300002221946034801F0A7FE1021014801F0E9
:100840009FFE10BD000C01400B480068A0F1006045
:10085000800A0A4908600846017801208840401E45
:10086000C0430749086002F0B5FC03E001F0ACFDAD
:1008700001F0E0FDFAE700002C0000200800002055
:100880000C00002000BFFEE77047000010B540F2EA
:10089000046002F00DFC0F2302221021054801F034
:1008A00073FE0421034801F06BFE0B21014801F0A7
:1008B00069FE10BD001001407047000070B504468D
:1008C0000D460648007820B92946204600F011F868
:1008D00070BD2946204600F003F8F9E72800002003
:1008E00070B505460C4622460121284601F0F2FE6D
:1008F00070BD70B505460C4606E0284600F01AFAB1
:10090000012801D1002070BD201EA4F10104F4D102
:10091000401EF8E72DE9FC5F04460F469146002093
:100920003860494601A8FFF7C9FF30B140A001F087
:1009300097F84FF0FF30BDE8FC9F9DF804001828A1
:1009400013D006DC012809D0022809D0042825D1BB
:1009500009E041281AD0612820D118E0802520E044
:100960004FF480651DE00020E5E7494601A8FFF748
:10097000A5FF40B99DF80400182804D14FF0FF30BE
:1009800038600020D7E74FF0FF30D4E700BF9DF874
:1009900004102DA001F064F80120CCE74FF0FF30E7
:1009A000C9E700BF9DF8040020709DF804B001263F
:1009B0000DE0A0194946FFF781FF30B1314629A06B
:1009C00001F04EF84FF0FF30B5E7701C86B2681D9D
:1009D0008642EEDB6178A07880F0FF00814206D08D
:1009E000617828A001F03CF84FF0FF30A3E72F48D2
:1009F0000078C8B12946E01CFFF723FC8046281D7B
:100A0000215CE81C205C41EA002AD0450CD0281D5E
:100A1000205C0090E81C235CEA1C414624A001F005
:100A20001FF84FF0FF3086E73D60002083E70000AD
:100A3000526563656976655F427974652074696D96
:100A4000656F75740D0A0000526563656976655FB0
:100A50005061636B65742063203D202523780D0A67
:100A600000000000666F7220526563656976655FFD
:100A700042797465206572726F722069203D20256D
:100A8000640D0A006572726F723A20646174615B72
:100A90005041434B45545F5345514E4F5F494E447F
:100AA00045585D203D202523780D0A0028000020B0
:100AB000636865636B73756D206572726F72206316
:100AC0006865636B73756D203D202523782C646108
:100AD00074615B25645D203D202523782C252378D7
:100AE0000D0A00007047000010B504460548007864
:100AF00018B9204600F01CF810BD204600F004F89C
:100B0000FAE7000028000020014608480288001D7E
:100B10008154001F0088401C4FF4816290FBF2F367
:100B200002FB1300014A108000207047CA08002011
:100B300010B50446204600F023F9002010BD000047
:100B400000B589B02CA207CA06AB07C32DA000F0E0
:100B5000B5F93B4800F074FB3A49086008463AA1F1
:100B6000026801A800F08CFF01A800F0A7F9354841
:100B70000068002822DD374800F0A0F9364800F070
:100B80009DF93048016806A8FFF700FE33A000F089
:100B900095F906A800F092F933A000F08FF935A07E
:100BA00000F08CF9364800F089F936A000F086F99B
:100BB00035A000F083F9002009B000BD214800688D
:100BC000401C18B936A000F079F912E01D48006801
:100BD000801C18B942A000F071F90AE019480068B9
:100BE000C01C18B945A000F069F902E049A000F066
:100BF00065F90120E0E700002020202020202020AF
:100C00002020000057616974696E6720666F72204A
:100C10007468652066696C6520746F206265207356
:100C2000656E74202E2E2E20287072657373202717
:100C3000612720746F2061626F7274290A0D0000B1
:100C40005C000020200000200D0A73697A653D25B4
:100C5000640D0A00D83500087E0400200A0D2053D8
:100C6000697A653A200000002042797465730D0AA4
:100C7000000000006D643573756D203A200000009F
:100C80005C040020200D0A002D2D2D2D2D2D2D2D45
:100C90002D2D2D2D2D2D2D2D2D2D2D0A000000005B
:100CA0000A0A0D54686520696D6167652073697A69
:100CB0006520697320686967686572207468616E71
:100CC0002074686520616C6C6F7765642073706157
:100CD0006365206D656D6F7279210A0D000000005B
:100CE0000A0A0D566572696669636174696F6E20E0
:100CF0006661696C6564210A0D0000000D0A0A41F5
:100D0000626F7274656420627920757365722E0A51
:100D10000D0000000A0D4661696C656420746F2047
:100D200072656365697665207468652066696C65BF
:100D3000210A0D0010B5044605210748006802F09D
:100D400098FB012806D10448006802F03BFB2070A4
:100D5000012010BD0020FCE74C00002010B5044627
:100D60000521064802F085FB012805D1034802F061
:100D700029FB2070012010BD0020FCE70038014055
:100D800010B5044600BF06210548006802F071FB5B
:100D90000028F8D021460248006802F018FB10BD78
:100DA0004C00002010B5044600BF0621044802F0A4
:100DB00060FB0028F9D02146014802F008FB10BD75
:100DC0000038014010B500240DA000F077F800F0C5
:100DD000A8F943280FD14FF4504217A11C4800F046
:100DE00007FD04461CB11BA000F068F806E024A033
:100DF00000F064F802E02BA000F060F810BD0000E5
:100E00000A0A0D53656C65637420526563656976E3
:100E1000652046696C65202E2E2E20287072657321
:100E20007320616E79206B657920746F2061626F29
:100E30007274290A0D00000055706C6F616465645E
:100E4000466C617368496D6167652E62696E00006A
:100E5000006000080A0D4572726F72204F6363755F
:100E6000726564207768696C65205472616E736D79
:100E7000697474696E672046696C650A0D0000002C
:100E80000A0D46696C6520547261736D69747465EE
:100E900064205375636365737366756C6C79200A9F
:100EA0000D0000000D0A0A41626F727465642062D1
:100EB0007920757365722E0A0D00000010B5044686
:100EC00003E02078FFF76EFF641C20780028F8D13B
:100ED00010BD70B502460C46002100250023107895
:100EE000302843D15078782802D0507858283DD106
:100EF000907808B9002070BD022130E0505C10B934
:100F0000236001252DE0505C412802DB505C46281F
:100F10000BDD505C612802DB505C662805DD505C0F
:100F2000302819DB505C392816DC505C302805DB92
:100F3000505C392802DC505C30380AE0505C4128B3
:100F400005DB505C462802DC505C373801E0505C21
:100F5000573800EB031301E0002502E0491C0B2980
:100F6000CCD300BF0B2934D3002532E000212AE086
:100F7000505C10B92360012527E0505C6B2802D03B
:100F8000505C4B2804D119B19B02236001251CE061
:100F9000505C6D2802D0505C4D2804D119B11B055E
:100FA0002360012511E0505C302809DB505C3928B2
:100FB00006DC505C303803EB830600EB460301E0AF
:100FC000002502E0491C0B29D2D300BF0B2900D316
:100FD000002528468FE710B500F068F810BD000026
:100FE00010B51448006840F0010012490860084636
:100FF0004068114908400F494860084600680F4999
:1010000008400C4908600846006820F48020086009
:10101000084640680A490840064948600846006892
:1010200006490840034908604FF41F00886002F039
:10103000CDF810BD001002400C00FFE8FFFFF6FEE7
:10104000FFFF00F730B5164800684FF47A72B0FB26
:10105000F2F1481EB0F1807F01D301201BE0481E51
:101060004FF0E022506150170F22002804DB1307D5
:101070001C0E0C4B1C5406E013071D0E0A4B00F00F
:101080000F04241F1D5500BF00204FF0E022906187
:1010900007201061002008B100BFFEE730BD00004E
:1010A0005400002000E400E018ED00E010B50F4807
:1010B0000088401C0D490880FFF7E8F80B480088BD
:1010C000012802D1FFF79EFB0EE008480088C928DE
:1010D00002D1FFF797FB07E004480088B0F5C87F0E
:1010E00002DD00200149088010BD000048000020FA
:1010F00010B503460C46194644F4807200BF4900FF
:10110000520002F4807000B1491C01F4803010B12B
:1011100041F22100414002F480300028EFD088B233
:1011200010BD08B50020009004E06846FFF702FEFD
:1011300000B100E0F9E700BF9DF8000008BD00BF66
:10114000FEE72DE9FE4305460F4690460120287034
:1011500000206870FF20A870002404E0395DE01CC6
:101160002954601C84B2385D08B1402CF6DB0021A4
:10117000E01C29546846D8F80010FFF707FB00264A
:10118000201D84B208E03046711C8EB21DF800208C
:101190002046611C8CB22A541DF806000028F2D1AA
:1011A000264603E00020A855701C86B2832EF9DB8A
:1011B000BDE8FE83F0B5074614461D46B5F5806FC1
:1011C00002D34FF4806C01E04FF0800C63469D42E7
:1011D00001D2AC4600E09C461FFA8CF2B3F5806F5A
:1011E00004D14FF0020C81F800C003E04FF0010C75
:1011F00081F800C04C706FEA040C81F802C03E46D2
:10120000032007E016F801CB01F800C000F1010C43
:101210001FFA8CF002F1030C6045F3DB9A420EDCFE
:101220001FFA8CF007E04FF01A0C01F800C000F133
:10123000010C1FFA8CF003F1030C6045F3DBF0BDE9
:101240002DE9F04FADF23C4D814600200590E2487B
:101250000390002002900090E048007818B1E04828
:10126000E049086002E0E048DE490860DD480068C7
:1012700001904FF0000BD8460020069000BF0026DA
:10128000002007904F4600BF4FF4801208A90DA818
:10129000FFF740FB10B101287ED145E14FF0000877
:1012A0000898B0F1FF3F01D070B907E00620FFF7C2
:1012B0001BFC00200DF23C4DBDE8F08F0620FFF72F
:1012C00013FC012007902DE19DF83500B04200DAB3
:1012D000DAE73146C5A000F0C3FB9DF83500F1B256
:1012E000884209D09DF835103246C6A000F0B8FB00
:1012F0001520FFF7F9FB14E1002E70D19DF837009F
:1013000000286DD000240DF1370505E015F8012BFC
:101310002046641CCB490A54287808B1402CF5DBE0
:1013200000222046641CC7490A545246C6A000F059
:1013300097FB00246D1C05E015F8012B2046641C6A
:1013400009A90A542878202801D0102CF4DB0022A7
:101350002046641C09A90A545246C1A000F080FB33
:1013600005A909A8FFF7B5FDC3A0059900F078FB12
:101370006D1C00246D1C0AE0285DC24908550398C5
:10138000005D295D884201D001200290641C202C60
:10139000F2DB0020BB4900E0D2E00855BAA000F023
:1013A0005FFB029840B91820FFF79EFB1820FFF75B
:1013B0009BFB6FF003007DE70598B0F5504F10D30D
:1013C0004CF6FF72B5A0059900F04AFB1820FFF714
:1013D0008BFB1820FFF788FB4FF0FF306AE737E000
:1013E0002FE00598FEF7F0FFB6490860084601684F
:1013F000B5A000F035FB0020B849086010E079493D
:101400000968B74A1288B54B1B6802FB031000F04D
:1014100097FEB4490870B1480068401CAF490860A5
:10142000AE480068A7490968884203D2AD480078F1
:101430000028E4D00620FFF757FB4320FFF754FBBA
:101440006CE00620FFF750FB01200790834669E01F
:101450000DF137013846089AFEF770FE012E22D1B1
:1014600038686FF31000B0F1005F0AD01820FFF762
:101470003BFB1820FFF738FB9BA000F0F1FAF01EB1
:1014800018E778686FF30B00574988420BD0182093
:10149000FFF72AFB1820FFF727FB9AA000F0E0FADD
:1014A0006FF0010006E79E48C0F800904FF0000A78
:1014B00023E09B48006801684A48006800F0D8FEB5
:1014C000484800680068964909680968884208D059
:1014D0001820FFF709FB1820FFF706FB6FF001004B
:1014E000E8E640480068001D3E4908608C480068F6
:1014F000001D8B4908600AF1040A0898824506DA43
:10150000059901980844374909688842D1D831467D
:1015100084A000F0A5FA0620FFF7E6FA761C012069
:10152000069000BF00BF43E089A000F099FA1820A0
:10153000FFF7DAFA1820FFF7D7FA6FF00200B9E6E2
:1015400088A000F08DFA0698002810DD08F1010847
:10155000B8F1050F17DD41468AA000F081FA182086
:10156000FFF7C2FA1820FFF7BFFA0020A2E60098A2
:10157000401CC0B200900098782804DB85A000F0E1
:101580006FFA002096E604A8FFF7E8FB60B19DF82B
:101590001000612808D11820FFF7A6FA1820FFF7DD
:1015A000A3FA6FF0020085E64320FFF79DFA00BF23
:1015B00000BF079818B17CA000F052FA00E063E683
:1015C00000BFBBF1000F3FF45AAE7CA000F048FA18
:1015D00000BF00BF05986DE6005E000828000020EF
:1015E000003001082C000020006000087061636B6F
:1015F0006574735F7265636569766564203D202557
:10160000640D0A007061636B65745F646174615B93
:101610005041434B45545F5345514E4F5F494E44F3
:1016200045585D203D20252378207061636B6574EB
:10163000735F7265636569766564203D2025640D7E
:101640000A0000007E04002066696C655F6E616DB3
:1016500065203D2025732C6A3D25640D0A0000009D
:1016600066696C655F73697A65203D25732C6A3DF8
:1016700025640D0A0000000073697A65203D20256D
:10168000640D0A005C0400206D643573756D5F6441
:101690006F776E203D2025730D0A000073697A650F
:1016A00028256429203E2028464C4153485F494D57
:1016B0004147455F53495A45202D2031292825644B
:1016C000290D0A00380000204E62724F6650616793
:1016D00065203D2025640D0A000000003400002034
:1016E000300000203C000020646F776E2066696C3B
:1016F00065206572726F7220312C61626F72740D99
:101700000A000000646F776E2066696C6520657260
:10171000726F7220322C61626F72740D0A000000C9
:1017200040000020666D635F776F72645F70726F58
:101730006772616D207061636B6574735F7265635E
:101740006569766564203D2025640D0A000000006F
:10175000313A2061626F727420627920757365720C
:101760000D0A00002D313A2074696D656F75742083
:101770006F72207061636B6574206572726F720D99
:101780000A0000006572726F7273203D2025640D9F
:101790000A000000646F776E6C6F61642074696D7D
:1017A000656F75740D0A000066696C655F646F6E25
:1017B0006520627265616B0D0A00000073657373CA
:1017C000696F6E5F646F6E6520627265616B0D0A92
:1017D0000000000070B505460E46002404E0285DB8
:1017E000FFF782F9601C84B2B442F8DB70BD0000E0
:1017F0002DE9F74FADF58B6D002001908146002457
:101800008046002606E0DDF85C04805D04A988556A
:10181000701CC6B23F2EF6DB012001900DF58C62E4
:1018200004A914A8FFF78DFC00BF832114A8FFF7BB
:10183000D1FF019860B180210DF15300FEF701FD49
:1018400005462812FFF750F9E8B2FFF74DF908E016
:1018500080210DF15300FEF7E8FC03900398FFF799
:1018600043F942F2107102A8FFF728F830B99DF849
:101870000800062803D14FF0010800E0641CB8F10D
:10188000000F01D10A2CD0D30A2C04D3E0B20DF200
:10189000644DBDE8F08FDDF858A4DDF860944FF09A
:1018A000010B59E00BF0FF024B4614A95046FFF71D
:1018B00081FC4FF0000800208DF80800002400BFD4
:1018C000B9F5806F02D34FF4806700E08027F81CE1
:1018D00081B214A8FFF77EFF019860B139460DF17F
:1018E0005300FEF7AEFC05462812FFF7FDF8E8B2FC
:1018F000FFF7FAF808E039460DF15300FEF795FCC2
:1019000003900398FFF7F0F8544902A8FEF7D6FFBA
:10191000C0B99DF80800062814D14FF00108B94558
:101920000CD9BA44A9EB0709BBF1340F01D1FF2050
:10193000ADE70BF101001FFA80FB04E0BA444FF061
:10194000000900E0641CB8F1000F01D10A2CB7D3E4
:101950000A2C01D3E0B29AE7B9F1000FA2D14FF0FF
:10196000000800208DF80800002400BF0420FFF7C5
:10197000BBF842F2107102A8FEF7A0FF30B99DF843
:101980000800062802D14FF0010800E0641CB8F1FD
:10199000000F01D10A2CE9D30A2C01D3E0B276E77B
:1019A0004FF0000800208DF80800002401208DF879
:1019B000500000208DF85100FF208DF852000326C2
:1019C00004E0002014A98855701CC6B2832EF8DBF1
:1019D00000BF832114A8FFF7FDFE80210DF1530005
:1019E000FEF72FFC05462812FFF77EF8E8B2FFF756
:1019F0007BF842F2107102A8FEF760FF30B99DF843
:101A00000800062803D14FF0010800E0641CB8F17B
:101A1000000F01D10A2CDCD30A2C01D3E0B236E747
:101A200000BF0420FFF760F842F2107102A8FEF731
:101A300045FF30B99DF80800062802D14FF0010893
:101A400000E0641CB8F1000F01D10A2CE9D30A2C84
:101A500001D3E0B21BE7002019E70000A0860100D7
:101A60000FB4054B10B503A9044A029800F04CF8D6
:101A700010BC5DF814FB0000312300085800002062
:101A80000FB4084B10B504A902AA039800F03CF863
:101A9000044602A9002000F097F9204610BC5DF82A
:101AA00014FB0000C91D000800BF00BF00BFBFF34A
:101AB0004F8F00BF00BF00BF0948006800F4E0601E
:101AC00008490843001D0649086000BF00BF00BF69
:101AD000BFF34F8F00BF00BF00BF00BF00BFFDE7D7
:101AE0000CED00E00000FA0502E008C8121F08C172
:101AF000002AFAD170477047002001E001C1121F8F
:101B0000002AFBD1704700002DE9FF4F8DB09B46A6
:101B10000F460446002606E025280BD05A460F99AA
:101B20009047641C761C20780028F5D111B030460F
:101B3000BDE8F08F0025A8460122984900E0054342
:101B400014F8013F203B02FA03F00842F7D1207855
:101B50002E2817D114F8010F45F004052A280ED0BD
:101B60006FF02F022078A0F1300109290AD808EB84
:101B7000880102EB410100EB0108641CF2E757F811
:101B8000048B641C20786C280DD004DC4C2812D007
:101B90006A2811D104E074280DD07A280CD10AE00B
:101BA00045F4001507E0617845F48015814202D1C3
:101BB000641C05F58015641C2278692A45D008DC70
:101BC000002AB3D0582A69D0632A10D0642A08D1D9
:101BD0003BE0702A67D0732A13D0752A5CD0782A2C
:101BE0005CD010465A460F999047761CD3E017F800
:101BF000040B8DF8000000208DF80100E94601205B
:101C000003E057F8049B4FF0FF3069074FF00005E1
:101C100001D40AE06D1C45450DDA8542FADB19F85E
:101C200005100029F6D106E06D1C8542FCDB19F891
:101C300005100029F8D12E4404E019F8010B5A468A
:101C40000F9990476D1EF8D2A5E00A200021CDE93A
:101C50000801C5F3025002280DD001CFC117031EA1
:101C600071F100030DDA4FF0000CD0EB0C006CEBBF
:101C700001012D2308E0FF1D27F00707F7E8020107
:101C8000EDE72B0504D52B238DF8283001233BE00D
:101C9000EB0739D02023F7E70A2000E010200021CD
:101CA000CDE9080107E01020002145F00405CDE949
:101CB00008014FF00808C5F3025002280FD001CFE9
:101CC00000214FF0000A2B071FD5702A0DD0DDE947
:101CD00008C38CF0100C5CEA030C0CD015E0FF1D5F
:101CE00027F00707F7E80201EBE740228DF82820EC
:101CF0004FF0010A0BE050EA010306D030238DF8C3
:101D000028308DF8292002239A46582A04D024A28C
:101D10000DF120090B9209E026A2F9E7DDE908237D
:101D2000FEF71EFA0B9B9B5C09F8013D50EA01028D
:101D3000F4D1ADEB090020300890680701D44FF0D2
:101D400001080899884502DDA8EB010000E00020A9
:101D50008046002506E00AA85A46405D0F99904744
:101D60006D1C761C5545F6DB04E030205A460F9971
:101D70009047761CB8F10001A8F10108F5DC05E0F8
:101D800019F8010B5A460F999047761C0899481E7E
:101D900008900029F4DC641CC5E600000928010055
:101DA00030313233343536373839616263646566D1
:101DB0000000000030313233343536373839414293
:101DC00043444546000000000A68531C0B60107035
:101DD0007047000010B511A0FFF770F81A48FFF720
:101DE0006DF81A48FFF76AF81948FFF767F81748BF
:101DF000FFF764F817A0FFF761F81B480068FFF7CA
:101E00005DF81AA0FFF75AF804A0FFF757F81DA0D5
:101E1000FFF754F8FEF718FD10BD00000D0A3D3D18
:101E20003D3D3D3D3D3D3D3D3D3D3D3D3D3D3D3DE2
:101E30003D3D3D3D3D3D3D3D3D3D3D3D3D3D3D3DD2
:101E40003D3D3D3D3D3D0000943600084C360008C8
:101E5000DC3600080D0A3D20202020204279204455
:101E6000617A6869200000002400002020202020E2
:101E70002020202020202020202020202020202062
:101E8000203D00000D0A0D0A000000002DE9F0477A
:101E90000027DFF8E080DFF8E0A0B94600F0C6F9DF
:101EA000D8F800006FF31000B0F1005F07D033A046
:101EB000FFF7D6FD00F00CFF0220BDE8F087D8F850
:101EC00004006FF30B002C49884206D02FA0FFF7C7
:101ED000C7FD00F0FDFE0220EFE730480068B0F5D6
:101EE000806F02DD2D48006802E02D4800684068E0
:101EF0000546B5F5806F02D3B5F5504F01D94FF4C3
:101F000050452A46294627A0FFF7AAFD2AE00024CB
:101F100011E018F809002F4908550846005DFF2810
:101F200004D1781CC7B2102F01DB07E00027601C2A
:101F300084B209F10109B4F5806FEADB00BF5046B5
:101F400000F0FEF8002608E022488159504600F0D3
:101F50008FF90AF1040A301D86B2A642F4DB102F75
:101F600000DB01E0A945D2D300BF00F0B1FE0020A4
:101F7000A3E7000000300108006000086E6F7420C5
:101F80007570646174650D0A000000006E6F742046
:101F900075706461746520330D0A00002000002014
:101FA00050000020666C6173685F646F776E6C6FC1
:101FB00061645F636F7079746F5F617070207369C3
:101FC0007A65203D20252378202F2F2025640D0AB7
:101FD000000000005C00002000B50346012200BFA5
:101FE00000F00CF802465B1E012A01D1002BF7D14C
:101FF000012A00D10422104600BD000000200A4939
:10200000C96801F0010109B101200CE00649C96865
:1020100001F0100109B1032005E00349C96801F08E
:10202000040101B1022070470020024000B50346C0
:10203000012200BF00F00CF802465B1E012A01D10C
:10204000002BF7D1012A00D10422104600BD000068
:1020500000200A49C96C01F0010109B101200CE01E
:102060000649C96C01F0100109B1032005E00349DC
:10207000C96C01F0040101B1022070470020024048
:1020800070B504460D4600262A480088B0F5007F4A
:1020900035D22948844219D24FF47020FFF79CFFB3
:1020A0000646002E43D12548006940F0010023492F
:1020B000086125804FF47020FFF78EFF06461F4809
:1020C000006920F001001D49086130E04FF47020E4
:1020D000FFF7ACFF064656BB1848006D40F0010004
:1020E0001649086525804FF47020FFF79FFF0646CC
:1020F0001248006D20F001001049086517E04FF408
:102100007020FFF769FF06468EB90C48006940F061
:1021100001000A49086125804FF47020FFF75CFF39
:1021200006460648006920F001000449086130466F
:1021300070BD0000E0F7FF1FFFFF0708002002400E
:1021400030B5054636480088B0F5007F48D9354897
:1021500085421ED24FF47020FFF73EFF0446002C4C
:102160005BD13148006940F002002F490861084600
:102170004561006940F0400008614FF47020FFF7AE
:102180002BFF04462848006920F002002649086118
:1021900043E04FF47020FFF749FF0446002C3CD188
:1021A0002148006D40F002001F490865084645655A
:1021B000C06900F0020008B1084645611A48006D88
:1021C00040F04000184908654FF47020FFF72EFFDB
:1021D00004461548006D20F00200134908651CE014
:1021E0004FF47020FFF7F8FE0446B4B90E480069BA
:1021F00040F002000C49086108464561006940F062
:10220000400008614FF47020FFF7E6FE04460648E0
:10221000006920F0020004490861204630BD00003A
:10222000E0F7FF1FFFFF0708002002400C4800698D
:1022300000F0800020B10B48094948600A48486016
:102240000A480088B0F5007F09D90548006D00F004
:10225000800020B10348024948640348486470473D
:102260000020024023016745AB89EFCDE0F7FF1F57
:1022700070B504460D4600262A480088B0F5007F58
:1022800035D92948844219D24FF47020FFF7A4FEB3
:102290000646002E43D12548006940F0010023493D
:1022A000086125604FF47020FFF796FE06461F4830
:1022B000006920F001001D49086130E04FF47020F2
:1022C000FFF7B4FE064656BB1848006D40F001000B
:1022D0001649086525604FF47020FFF7A7FE0646F3
:1022E0001248006D20F001001049086517E04FF416
:1022F0007020FFF771FE06468EB90C48006940F069
:1023000001000A49086125604FF47020FFF764FE60
:1023100006460648006920F001000449086130467D
:1023200070BD0000E0F7FF1FFFFF0708002002401C
:1023300070B504460D46E0B2FEF734FD204670BD90
:1023400030B502460B46164C002145F25550154D4E
:10235000286000BF1348C06800F00101601E041E21
:1023600001D00029F6D109B1002030BD0D484360ED
:102370000B4C00BF0B48C06800F00201601E041E39
:1023800001D00029F6D109B10020EEE7C2F30B001D
:10239000044DA8604AF6AA2028600120E5E7000065
:1023A000FFFF0F00003000404CF6CC4001490860B0
:1023B000704700000030004045F255500149086068
:1023C000704700000030004008B56846FEF7C6FCC4
:1023D00050B39DF80000312805D1002000F098FE90
:1023E000FEF7AEFB23E09DF80000322805D1002067
:1023F00000F08EFEFEF7E6FC19E09DF800003328A1
:1024000002D100F07DF812E09DF80000342801D1DF
:10241000FFF74AFB9DF80000352806D10448006804
:10242000012802D1FDF73EFF01E000F0D3FE08BD18
:1024300010000020F8B52E4D0026684600F082F905
:10244000002853D09DF80000552802D100202949CA
:1024500008709DF800002849264A127888542548BB
:10246000007805283FDA23480078401C214908708D
:1024700008460078052839D11F484078AA282ED16F
:102480001D488078D0282AD11B48C078D0B91A4876
:102490000079CF2816D1FF265A20FEF735FBA5205C
:1024A000FEF732FB002407E0285DFEF72DFB285DD8
:1024B0003044C6B2601CC4B2202CF5DB3046FEF7B7
:1024C00023FB0CE00C48C078012808D10A480079A9
:1024D000D02804D101200949087000F011F800202B
:1024E0000449087002E0002002490870F8BD0000AD
:1024F000005E00081C0000201400002028000020BE
:1025000016A0FFF7ADFA1A48006840884FF6FF7131
:10251000884205D1FFF78AFEFF211648FFF7B0FD7C
:1025200000BF00BF00BF00BF00BFBFF34F8F00BFA1
:1025300000BF00BF1048006800F4E0600F49084386
:10254000001D0D49086000BF00BF00BFBFF34F8FE3
:1025500000BF00BF00BF00BF00BFFDE7676F746F23
:102560005F6F74615F757064617465200D0A0000AF
:1025700050000020025C00080CED00E00000FA05AD
:102580004161704701617047F0B504461646002569
:10259000002201F00F0501F0100707B135430020BC
:1025A0001EE0012787401F40C7B122684FEA800C18
:1025B0000F2707FA0CF7BA43870005FA07F73A43E3
:1025C000282904D1012787401F40676105E0482979
:1025D00003D1012787401F4027612260471CB8B202
:1025E0000828DED3082022E0012787401F40E7B1FA
:1025F0006268A0F108074FEA870C0F2707FA0CF76B
:10260000BA43A0F10807BF0005FA07F73A432829A3
:1026100004D1012787401F40676105E0482903D1A5
:10262000012787401F4027616260471CB8B210280D
:10263000DAD3F0BD0246D068084008B101207047E7
:102640000020FCE7F0B50A46002300240021002505
:1026500000F00046B6F1004F02D11D4EF16901E0D5
:102660001B4E7168C0F3034583B200F44016B6F503
:10267000401F08D121F07061154E766826F0706613
:10268000134F7E6012E000F48016B6F5801F06D16D
:10269000032606FA05F4A14341F0706106E0460DF9
:1026A000360103FA06F6B14341F0706122B1460DDE
:1026B000360103FA06F6314300F00046B6F1004F4A
:1026C00002D1034EF16101E0014E7160F0BD0000E6
:1026D00000000140F0B50446154610E01848008897
:1026E00000F58160164E7688801B4FF4816690FB62
:1026F000F6F706FB170083B28B4200DB02E0681E90
:10270000051EEBD100BF8B4202DA4FF0FF30F0BD67
:10271000002211E00A484688001D805DA054084848
:102720004088401C4FF4816690FBF6F706FB1700CB
:10273000034E7080501C82B28A42EBDB0020E6E739
:10274000BE04002001461148008800F581600F4A50
:102750005288801A4FF4816290FBF2F302FB13005F
:10276000002801DC0020704708484288001D805C7A
:10277000087006484088401C4FF4816290FBF2F3D9
:1027800002FB1300014A50800120ECE7BE04002048
:10279000012904D1026842F48062026003E0026809
:1027A00022F48062026070472DE9F05F04460E4615
:1027B0009346022000F0EAFB07463148B7FBF0F9E8
:1027C000B9F13F0F01D34FF03F09D4F804A02AF02C
:1027D0003F0A4AEA090AC4F804A02A4886421ED8D9
:1027E0002748B7FBF0F000F10108B8F13F0F02D322
:1027F0003F20206207E0B8F1020F02D802202062D9
:1028000001E0C4F820807000B7FBF0F5042D00D281
:102810000425E069C5F30B010843E0612EE01A4886
:1028200086422BD84FF4967009FB00F04FF47A7172
:10283000B0FBF1F0401C2062BBF1000F08D106EBA9
:102840004600B7FBF0F5E06920F48040E06109E064
:1028500006EBC60000EB0610B7FBF0F5E06940F4AC
:102860008040E061C5F30B0008B945F00105E0695F
:1028700040F40040E061E0692843E061BDE8F09F7A
:1028800040420F00A0860100801A06000146086938
:10289000C0B27047CAB202617047016841F00101DD
:1028A0000160704710B500EB9112126801F01F042F
:1028B0000123A3409A4300EB91131A6010BD10B599
:1028C00000EB9112126801F01F040123A3401A4388
:1028D00000EB91131A6010BD10B5094A914202D164
:1028E000426982690AE000EB91521268C1F3044424
:1028F0000123A3409A4300EB91531A6010BD0000DE
:1029000009010105F0B5024600230024506800F4D7
:102910008065C1F38910105801F01F070126BE40E1
:1029200000EA060302EB91500068C1F30447012658
:10293000BE4000EA06040848814202D007488142AE
:1029400004D113B10DB1012300E0002314B10BB188
:102950000120F0BD0020FCE709010605090107057B
:1029600030B50C460021016821F0020121430160CD
:10297000C3F3090342EA0305856030BD10B507487B
:10298000006840884FF6FF71884204D004A0FEF72B
:1029900095FA012010BD0020FCE700005000002047
:1029A0003D69735F6D63755F6E6565645F757064C7
:1029B0006174652031203D3D3D3D0D0A0000000061
:1029C00010B50748006800884FF6FF71884204D1AF
:1029D00004A0FEF773FA012010BD0020FCE7000000
:1029E000500000203D69735F6D63755F6E656564BF
:1029F0005F7570646174652031203D3D3D3D0D0A79
:102A00000000000010B5FFF7D7FC042140F6FF706E
:102A1000FFF796FCFFF7C8FC10BD000008B50025C5
:102A200000244FF4A06000F0C3F94FF4C06000F040
:102A30003FFB01214748FFF705FEFEF703FBFDF7CB
:102A400025FF4548FDF7E0FDFDF78CFEFDF7EAFEAA
:102A5000FFF7ECFB41A0FEF731FA4A480068FEF7A9
:102A60002DFA49A0FEF72AFAFFF788FF88B1012066
:102A700000F04EFB45A0FEF721FA01204C490870FA
:102A8000FEF75EF8002827D100F0EAF8FFF7FEF91C
:102A900022E0FFF795FF28B146A0FEF70FFAFFF7F7
:102AA000F5F919E04CA0FEF709FA0CE06846FEF7CC
:102AB00055F928B19DF80000032801D1012407E051
:102AC0000120FDF7D9FB2846691C8DB2C828EDDB33
:102AD00000BF0CB1FFF77EF9474800686FF31000A4
:102AE000B0F1005F02D0FDF7AFFE08E04248406859
:102AF0006FF30B004049884201D0FDF7A5FE3FA0CF
:102B0000FEF7DCF93C48006848490840B0F1005F36
:102B100012D1FFF777FF72B6374840684449086022
:102B200008460068434908603349086880F308880C
:102B300000BF4048006880473FA0FEF7BFF908E0AB
:102B40003DA0FEF7BBF9FFF745F94FF47A70FDF7AA
:102B500093FBF5E700023000003801400D0A69617F
:102B6000702073746172742862792064617A686974
:102B7000406A63292C20696E6974206F6B21210DD6
:102B80000A000000240000200D0A00003D69735F68
:102B90006D63755F6E6565645F646F776E6C6F61A2
:102BA00064203D3D203120203D3D3D3D0D0A00008B
:102BB000280000203D69735F6D63755F6E65656415
:102BC0005F757064617465203D3D203120203D3D7E
:102BD0003D3D0D0A000000003D6764333220626F06
:102BE0006F746C6F616465722073746172743D3DC3
:102BF0003D3D3D3D0D0A0000006000083D2067643A
:102C0000333220626F6F746C6F616465722061751E
:102C1000746F20626F6F742032303233303530364B
:102C2000203D3D3D3D3D3D0D0A0000000000FE2FD2
:102C300004000020000000203D2067643332206241
:102C40006F6F746C6F61646572206572726F722051
:102C50007768696C6520313D3D3D3D3D3D0D0A0085
:102C600070B5104DFFF7E2FA0FA0FEF727F91548EF
:102C7000FFF766FA002407E0134801592846FFF7DA
:102C8000F7FA2D1D201DC4B2202CF5DB0F4800687B
:102C9000B0F5806F05DD0D4801680A48001DFFF79B
:102CA000E7FA70BD005E00083D6D63755F646F7785
:102CB0006E6C6F61645F646F6E653D3D3D3D0D0AF6
:102CC00000000000005C00085C04002020000020E0
:102CD00010B505A0FEF7F2F8FFF7A8FAFF210848A3
:102CE000FFF7CEF910BD00003D6D63755F75706430
:102CF0006174655F646F6E653D3D3D3D0D0A00008A
:102D0000005C00082DE9F04103460D4616460024FC
:102D10000027A0462448006800F4E060B0F5A06FEA
:102D200015D006DCB0F5407F18D0B0F5806F19D112
:102D300010E0B0F5C06F06D0B0F5E06F12D10027FB
:102D40004FF0040815E001274FF0030811E00227B7
:102D5000B8460EE003274FF001080AE004274FF0C1
:102D6000000806E04FF4A06000F022F80227B84601
:102D700000BF00BFC7F1040005FA00F4C8F1040168
:102D80000F20C8403040044324010848C45403F0D5
:102D90001F01012088405911890001F1E021C1F88B
:102DA0000001BDE8F08100000CED00E000E400E06F
:102DB00002490143024A1160704700000000FA0511
:102DC0000CED00E030B5A5254FF47020FFF704F9B5
:102DD000044600F03DF800B1BB2554BB1A48006919
:102DE00040F02000184908610846006940F04000A2
:102DF00008614FF47020FFF7EFF80446D4B9124889
:102E0000006920F02000104908610846006940F080
:102E1000100008610D4805804FF47020FFF7DCF8C2
:102E20000446042C0ED00848006920F01000064922
:102E3000086107E0042C05D00348006920F0100069
:102E400001490861204630BD0020024000F8FF1F04
:102E500000200449C96901F0020109B1012000E024
:102E600000207047002002400248C069C0F387007C
:102E700070470000002002402DE9F04305460E4651
:102E80001746984600244FF47020FFF7A5F8044633
:102E9000DCB90F48006940F010000D49086148EAAC
:102EA00005003043384340F0F0090A48A0F800908C
:102EB0004FF47020FFF790F80446042C05D0044826
:102EC000006920F01000024908612046BDE8F08347
:102ED0000020024002F8FF1F2DE9F04304464FF4A2
:102EE0007020FFF779F80546E443E6B2C4F30727FC
:102EF000C4F307484FEA1469DDBB1F48006940F07E
:102F000010001D490861FF2E06D01C4806804FF4B2
:102F10007020FFF761F805464DB9FF2F07D017481D
:102F2000801C07804FF47020FFF756F805465DB906
:102F3000B8F1FF0F08D01148001DA0F800804FF431
:102F40007020FFF749F805465DB9B9F1FF0F08D0C9
:102F50000A48801DA0F800904FF47020FFF73CF85D
:102F60000546042D05D00448006920F010000249F0
:102F700008612846BDE8F0830020024008F8FF1FE2
:102F80000148006A70470000002002402DE9F04F20
:102F90008BB00746002009903EA090E8004CC06826
:102FA000CDE905BECDF810A007900FF2EC0ADAE9E2
:102FB000000ACDE9020A0FF2E00ADAE9000ACDE9D7
:102FC000000A38484068C0F381000A900A9820B18E
:102FD000012804D0022829D103E0334928E03249EE
:102FE00026E03048406800F48038B8F5803F09D1C9
:102FF0002D4C2C48406800F40039B9F5003F02D14F
:10300000641000E0294C27484068C0F383422548FB
:10301000406800F0006008B142F010020F2A01D2AF
:10302000921C00E0521C04FB02F101E01E4900BFAB
:1030300000BF1C484068C0F3031504A8465D21FA90
:1030400006F318484068C0F3022502A8465D23FA3B
:1030500006FC14484068C0F3C2251DF8056023FA39
:1030600006F0089037B1012F06D0022F06D0032FAB
:103070000AD106E0099108E0099306E0CDF824C0E2
:1030800003E00898099000E000BF00BF09980BB06A
:10309000BDE8F08F00000000000000000102030402
:1030A000060708090010024000127A0000093D00DE
:1030B000064A02EB9011096800F01F0301229A40B2
:1030C0001143024B03EB9012116070470010024055
:1030D000064A02EB9011096800F01F0301229A4092
:1030E0009143024B03EB90121160704700100240B5
:1030F000064A02EB9011096800F01F0301229A4072
:103100001143024B03EB9012116070470010024014
:103110000149024A11607047003801404C0000200C
:1031200000200021264A126842F00102244B1A6056
:1031300000BF401C224A126802F0020111B9B0F52A
:10314000A06FF6D11E4A126802F002020AB900BF4F
:10315000FEE71B4A52681A4B5A601A4652685A6078
:103160001A46526842F480625A601A465268154BF9
:103170001A40134B5A601A465268134B1A43104BAD
:103180005A601A46126842F080721A6000BF0C4AF8
:10319000126802F00072002AF9D0094A526822F03F
:1031A0000302074B5A601A46526842F002025A6004
:1031B00000BF034A526802F00802002AF9D07047A3
:1031C00000100240FFFFC3F70000280810B5FFF70A
:1031D000A7FF10BD10B5FFF7D3FE134909680840DB
:1031E00011490968884203D001201049086002E0B3
:1031F00000200E4908600EA0FDF760FE1CA0FDF740
:103200005DFE2848FDF75AFE2748FDF757FE27A028
:10321000FDF754FE0548006810B12DA0FDF74EFEE5
:1032200034A0FDF74BFE10BD0C0000201000002064
:103230000D0A3D3D3D3D3D3D3D3D3D3D3D3D3D3D21
:103240003D3D3D3D204D61696E204D656E75203DD3
:103250003D3D3D3D3D3D3D3D3D3D3D3D3D3D3D3D9E
:103260003D3D3D3D3D3D3D3D3D3D3D0D0A000000A8
:10327000312E2020446F776E6C6F616420496D6140
:10328000676520546F2074686520474433324631A7
:10329000307820496E7465726E616C20466C617383
:1032A000680D0A000035000890350008342E2020F3
:1032B0005265626F6F7420746865207379737465EA
:1032C0006D202C2052756E20415050200D0A0000B8
:1032D000352E202044697361626C65207468652016
:1032E00077726974652070726F74656374696F6E4C
:1032F0000D0A00003D3D3D3D3D3D3D3D3D3D3D3DDB
:103300003D3D3D3D3D3D3D3D3D3D3D3D3D3D3D3DED
:103310003D3D3D3D3D3D3D3D3D3D3D3D3D3D3D3DDD
:103320003D3D3D3D3D3D3D3D3D3D3D3D3D3D0D0A30
:10333000000000002DE9F04704460D460027B8467E
:10334000B94600261D49601A8C421CD006DC1C4878
:10335000204470B1B0F5806F1FD10FE0B0F5806FE1
:1033600016D0B0F56C4F18D10320FFF70FFE0746BB
:1033700014E00220FFF70AFE07460FE00220FFF7E5
:1033800005FE07460AE00220FFF700FE074605E0BB
:103390000220FFF7FBFD074600E000BF00BF07EB80
:1033A0005500B0FBF5F64FF6F07006EA000806F09F
:1033B0000F0948EA0900A060BDE8F087004C004012
:1033C00000BCFFBF01464868C0F308007047C1F366
:1033D000080242607047000010B504462049601A98
:1033E0008C4228D006DC1F48204490B1B0F5806F95
:1033F00033D117E0B0F5806F26D0B0F56C4F2CD1EB
:1034000040F20E30FFF774FE40F20E30FFF760FE20
:1034100024E040F21140FFF76BFE40F21140FFF74D
:1034200057FE1BE040F21240FFF762FE40F21240EE
:10343000FFF74EFE12E040F21340FFF759FE40F254
:103440001340FFF745FE09E040F21440FFF750FE3D
:1034500040F21440FFF73CFE00E000BF00BF10BD8B
:10346000004C004000BCFFBFC16841F40051C16086
:10347000704710B5024602EB9110006801F01F047E
:103480000123A340184008B1012010BD0020FCE733
:103490000A460021416921F40071114341617047DE
:1034A0000A460021416921F480711143416170474E
:1034B000C26822F4C062C260C2680A43C260704738
:1034C0000A460021C16821F004011143C160704720
:1034D000026922F44052026102690A4302617047A4
:1034E0000A460021C16821F008011143C1607047FC
:1034F000C26822F48052C260C2680A43C260704748
:10350000322E202055706C6F616420496D616765B3
:103510002046726F6D20746865204744333246310F
:10352000307820496E7465726E616C20466C6173F0
:10353000682028646562756720207561727430297F
:103540000D0A00002E2E2E616E64206120537973C7
:1035500074656D2052657365742077696C6C2062A8
:10356000652067656E65726174656420746F207292
:10357000652D6C6F616420746865206E6577206FBF
:103580007074696F6E2062797465730D0A000000B3
:10359000332E2020446F776E6C6F616420496D611B
:1035A000676520546F207468652047443332463184
:1035B000307820496E7465726E616C20466C617360
:1035C000682066726F6D20726B33333939207561F4
:1035D00072740D0A000000000A0A0D2050726F6715
:1035E00072616D6D696E6720436F6D706C65746597
:1035F00064205375636365737366756C6C79210A17
:103600000D2D2D2D2D2D2D2D2D2D2D2D2D2D2D2D0A
:103610002D2D2D2D2D2D2D2D2D2D2D2D2D2D2D2DDA
:103620002D0D0A204E616D653A2000004275696CCF
:103630006474696D65203A4D6179202036203230FE
:1036400032332031363A31303A3433000D0A3D20DE
:10365000202020202020202020202020202020206A
:10366000202020202020202020202020202020205A
:10367000202020202020202020202020202020204A
:10368000202020202020202020202020202020203A
:10369000203D00000D0A3D20202020202020202059
:1036A000202028432920434F50595249474854204D
:1036B000323032332048754E616E48544A432042BE
:1036C000592064617A686920202020202020202051
:1036D0002020202020202020203D00000D0A3D2019
:1036E00020202020496E2D4170706C6963617469DF
:1036F0006F6E2050726F6772616D6D696E672041E9
:1037000070706C69636174696F6E202028566572F1
:1037100073696F6E20332E332E3129202020202014
:10372000203D000044370008000000205C0000003D
:10373000E81A0008A03700085C0000207C2C00007C
:10374000F81A00080000000000000000000000005F
:103750000000000000000000000000000000000069
:1037600000000000000000002C36000800010000EE
:1037700000600008000400000000000000000000DD
:103780000000000000000000000000000000000039
:1037900000380140005C000800F36F0600000000E4
:0400000508000105E9
:00000001FF
