:020000040800F2
:10000000D02800201901000855080008BD03000889
:100010005108000803020008FF100008000000005B
:10002000000000000000000000000000AD0A000811
:10003000530200080000000085080008970F000820
:1000400033010008330100083301000833010008C0
:1000500033010008330100083301000833010008B0
:1000600033010008330100083301000833010008A0
:100070003301000833010008330100083301000890
:100080003301000833010008330100083301000880
:100090003301000833010008330100083301000870
:1000A0003301000833010008330100083301000860
:1000B000330100083301000833010008650400081B
:1000C000C1030008330100083301000833010008B0
:1000D0003301000833010008330100083301000830
:1000E000330100083301000833010008000000005C
:1000F0000000000000000000000000000000000000
:1001000033010008DFF80CD000F04AF8004800473F
:1001100039290008D02800200648804706480047B3
:10012000FEE7FEE7FEE7FEE7FEE7FEE7FEE7FEE7A7
:10013000FEE7FEE7A10F0008050100082DE9F05FCA
:100140000546002092469B46884606468146402446
:100150001BE0284641464746224600F042F85346F7
:100160005A46C01A914110D311461846224600F053
:1001700029F82D1A67EB01084F462246012000217D
:1001800000F020F817EB00094E41201EA4F10104F5
:10019000DFDC484631462A464346BDE8F09F000072
:1001A000064C074D06E0E06840F0010394E80700C4
:1001B00098471034AC42F6D3FFF7A8FF8836000802
:1001C000A8360008202A04DB203A00FA02F10020B9
:1001D00070479140C2F1200320FA03F31943904085
:1001E0007047202A04DB203A21FA02F000217047F0
:1001F00021FA02F3D040C2F120029140084319468F
:10020000704700BFFEE730B502460023541802E0F5
:1002100012F8015B2B44A242FAD3D8B230BDF0B53C
:1002200005460E460024AF1905E015F8011BA0B2E3
:1002300000F03EFF0446BD42F7D3A0B2002100F01B
:1002400037FF04462046002100F032FF04462046D6
:10025000F0BD70470349086000BF024909680029E2
:10026000FBD17047380000200448006820B10348E3
:100270000068401E014908607047000038000020F7
:100280002DE9F04700240025012602274FF004083D
:100290004FF0010902F004FE05462448006828409A
:1002A0002249096888423BD002F06EFD04461F488F
:1002B000006828431D49086002F014FD81461B4870
:1002C0000068401C28B119480068C04302F094FD42
:1002D000814604F00700072813D004F0010000B99C
:1002E000002604F0020000B9002704F0040008B959
:1002F0004FF0000808F0FF02F9B2F0B2082302F054
:100300004BFDB9F1000F07D109A000F0B7FD10486F
:1003100000F0B4FD01F07AFB0EA000F0AFFD02E0AA
:1003200017A000F0ABFDBDE8F08700000C00002036
:1003300057726974652050726F74656374696F6E6B
:100340002064697361626C65642E2E2E0D0A0000B4
:10035000643400084572726F723A20466C617368AB
:1003600020777269746520756E70726F746563743E
:10037000696F6E206661696C65642E2E2E0D0A0011
:10038000466C617368206D656D6F7279206E6F7455
:100390002077726974652070726F74656374656428
:1003A0000D0A000001B500200099C1F309021AB13D
:1003B000012202EB912000E0880A08BD00BFFEE7A1
:1003C00010B52049204802F02BFA18B11D491E48EB
:1003D00002F010FA1D491C4802F022FA18B11B491C
:1003E000194802F007FA1A49174802F019FA18B129
:1003F0001749154802F0FEF91649134802F010FAA1
:1004000018B11449104802F0F5F913490E4802F0EA
:1004100007FA18B110490C4802F0ECF90F490A48E4
:1004200002F0FEF918B10D49074802F0E3F90C4952
:10043000054802F0F5F918B10949034802F0DAF964
:1004400010BD000008010A050054004008010F0516
:1004500008010E0508010B0508010905080108053A
:1004600008010C0570B55049504802F0D9F920B187
:100470004D494E4802F0BEF985E04D494B4802F027
:10048000CFF990B1494802F08FF94A490A88091D0D
:100490008854081F0088401C4FF4816190FBF1F2E2
:1004A00001FB1200434908806DE043493F4802F0D8
:1004B000B7F988B341493D4802F0B2F960BB3E4903
:1004C0003A4802F097F93E480078401C3C490870D1
:1004D0003C48008800F581603A494988401A4FF449
:1004E000816190FBF1F201FB1200C5B2002D14DD19
:1004F00034484188001D445C001F4088401C4FF474
:10050000816190FBF1F201FB12002E4948802146E7
:10051000264802F04DF936E004E00021234802F0BD
:1005200047F930E02849214802F07AF9A8B11F487C
:1005300002F041F94FF484711C4802F041F94FF484
:1005400085711A4802F03CF940F20911174802F08F
:1005500037F901201D49087015E01D49134802F0C4
:100560005FF920B11A49114802F044F90BE0124931
:100570000E4802F055F930B10F490C4802F03AF933
:100580000120124908704FF48471084802F025F9DF
:1005900040F20911054802F020F94FF48571034833
:1005A00002F01BF970BD0000090101050054004074
:1005B00009010605B20000200901070508010A0526
:1005C0002A000020BE0400200901040529000020A3
:1005D0000901020510B5044640F2026002F0F8FC81
:1005E0002748844212D12749086040F2117002F076
:1005F000EFFC042302221821234801F053FF0823B3
:1006000002220421204801F04DFF11E040F20E606B
:1006100002F0DEFC4FF40073022218211A4801F0A8
:1006200041FF4FF4806302220421174801F03AFF92
:10063000204602F061FE4FF4E131204602F00AFE4E
:100640000021204602F0E4FE0021204602F0D0FE08
:100650000021204602F0BCFE0021204602F0B0FE40
:100660000021204602F0A4FE0421204602F0B8FE3C
:100670000821204602F0C4FE204602F085FE10BD8F
:1006800000440040400000200008014010B5012255
:1006900006211F2002F0C6FA01220621202002F0C6
:1006A000C1FA4FF48471074802F097F840F209113B
:1006B000044802F092F84FF48571024802F08DF878
:1006C00010BD00000054004010B540F2157002F05B
:1006D0007FFC00220849094801F0F4FF8023002232
:1006E0001146064802F0CAF8044802F064F80121F5
:1006F000024801F0DBFF10BDA0860100005400405D
:1007000010B540F2036002F063FC4FF4C06002F0E9
:100710005FFC0121022001F023FF4FF4407303220C
:100720001C21024801F0BEFE10BD0000000C01407B
:1007300010B5FFF7E5FFFFF7C7FFFFF7A7FF0020A2
:1007400003490880488003490880488010BD0000A4
:10075000B2000020BE040020F0B5144A0025002499
:10076000002320E0B1FBF2F6303606F0FF0C2E46F7
:100770006D1C00F806C0B1FBF2F602FB16110A264A
:10078000B2FBF6F26E1E865D302E01D1012600E02E
:1007900000260CB9012700E000273E400EB10025DD
:1007A00000E0641C5B1C0A2BDCD3F0BD00CA9A3B42
:1007B00010B51021014801F073FE10BD000C01407E
:1007C00010B51021014801F069FE10BD000C014078
:1007D00010B51021054801F0BBFE044614B9FFF71F
:1007E000E7FF01E0FFF7ECFF10BD0000000C014047
:1007F00010B540F2036002F0EBFB10230222194611
:10080000034801F04FFE1021014801F047FE10BDE2
:10081000000C01400B480068A0F10060800A0A4902
:1008200008600846017801208840401EC0430749FF
:10083000086002F05FFC03E001F054FD01F088FD68
:10084000FAE700002C000020080000200C00002027
:1008500000BFFEE77047000010B540F2046002F0F0
:10086000B7FB0F2302221021054801F01BFE0421D3
:10087000034801F013FE0B21014801F011FE10BDE9
:10088000001001407047000070B504460D46064850
:10089000007820B92946204600F011F870BD29469D
:1008A000204600F003F8F9E72800002070B505465F
:1008B0000C4622460121284601F09AFE70BD70B513
:1008C00005460C4606E0284600F014FA012801D13E
:1008D000002070BD201EA4F10104F4D1401EF8E7F1
:1008E0002DE9FC4704460F469146002038604946F2
:1008F00001A8FFF7C9FF30B13FA001F063F84FF046
:10090000FF30BDE8FC879DF80400182813D006DCF2
:10091000012809D0022809D0042825D109E041285E
:100920001AD0612820D118E0802520E04FF480659E
:100930001DE00020E5E7494601A8FFF7A5FF40B903
:100940009DF80400182804D14FF0FF3038600020D3
:10095000D7E74FF0FF30D4E700BF9DF804102CA07C
:1009600001F030F80120CCE74FF0FF30C9E700BFBD
:100970009DF80400207001260DE0A0194946FFF7FC
:1009800083FF30B1314629A001F01CF84FF0FF3051
:10099000B7E7701C86B2681D8642EEDB6178A078EE
:1009A00080F0FF00814206D0617828A001F00AF8AB
:1009B0004FF0FF30A5E72F480078C8B12946E01C6A
:1009C000FFF72DFC8046281D215CE81C205C41EAD5
:1009D000002AD0450CD0281D205C0090E81C235C28
:1009E000EA1C414624A000F0EDFF4FF0FF3088E7FD
:1009F0003D60002085E70000526563656976655FAC
:100A0000427974652074696D656F75740D0A000014
:100A1000526563656976655F5061636B65742063D9
:100A2000203D202523780D0A00000000666F72200B
:100A3000526563656976655F427974652065727297
:100A40006F722069203D2025640D0A006572726F67
:100A5000723A20646174615B5041434B45545F536B
:100A600045514E4F5F494E4445585D203D2025235A
:100A7000780D0A0028000020636865636B73756D4C
:100A8000206572726F7220636865636B73756D2089
:100A90003D202523782C646174615B25645D203DD5
:100AA000202523782C2523780D0A000070470000AC
:100AB00010B504460548007818B9204600F01CF827
:100AC00010BD204600F004F8FAE7000028000020DE
:100AD000014608480288001D8154001F0088401C00
:100AE0004FF4816290FBF2F302FB1300014A108085
:100AF00000207047BE04002010B50446204600F0D8
:100B00001FF9002010BD000000B589B02BA207CA54
:100B100006AB07C32CA000F0B1F900F071FB394916
:100B20000860084638A1026801A800F05BFF01A830
:100B300000F0A4F933480068002822DD354800F0B1
:100B40009DF9354800F09AF92E48016806A8FFF78C
:100B500003FE32A000F092F906A800F08FF932A04F
:100B600000F08CF933A000F089F9354800F086F9DF
:100B700034A000F083F934A000F080F9002009B01F
:100B800000BD20480068401C18B935A000F076F977
:100B900012E01C480068801C18B941A000F06EF9F2
:100BA0000AE018480068C01C18B944A000F066F9B3
:100BB00002E048A000F062F90120E0E720202020B8
:100BC000202020202020000057616974696E672072
:100BD000666F72207468652066696C6520746F208A
:100BE00062652073656E74202E2E2E20287072652B
:100BF00073732027612720746F2061626F727429DC
:100C00000A0D0000200000200D0A73697A653D2559
:100C1000640D0A00F8340008720000200A0D205309
:100C2000697A653A200000002042797465730D0AE4
:100C3000000000006D643573756D203A20000000DF
:100C400050000020200D0A002D2D2D2D2D2D2D2D95
:100C50002D2D2D2D2D2D2D2D2D2D2D0A000000009B
:100C60000A0A0D54686520696D6167652073697AA9
:100C70006520697320686967686572207468616EB1
:100C80002074686520616C6C6F7765642073706197
:100C90006365206D656D6F7279210A0D000000009B
:100CA0000A0A0D566572696669636174696F6E2020
:100CB0006661696C6564210A0D0000000D0A0A4135
:100CC000626F7274656420627920757365722E0A92
:100CD0000D0000000A0D4661696C656420746F2088
:100CE00072656365697665207468652066696C6500
:100CF000210A0D0010B5044605210748006802F0DE
:100D000048FB012806D10448006802F0EBFA207085
:100D1000012010BD0020FCE74000002010B5044673
:100D20000521064802F035FB012805D1034802F0F1
:100D3000D9FA2070012010BD0020FCE700380140E6
:100D400010B5044600BF06210548006802F021FBEB
:100D50000028F8D021460248006802F0C8FA10BD09
:100D60004000002010B5044600BF0621044802F0F0
:100D700010FB0028F9D02146014802F0B8FA10BD56
:100D80000038014010B500240DA000F077F800F005
:100D9000A8F943280FD14FF4544217A11C4800F082
:100DA000D9FC04461CB11BA000F068F806E024A0A2
:100DB00000F064F802E02BA000F060F810BD000025
:100DC0000A0A0D53656C6563742052656365697624
:100DD000652046696C65202E2E2E20287072657362
:100DE0007320616E79206B657920746F2061626F6A
:100DF0007274290A0D00000055706C6F616465649F
:100E0000466C617368496D6167652E62696E0000AA
:100E1000005C00080A0D4572726F72204F636375A3
:100E2000726564207768696C65205472616E736DB9
:100E3000697474696E672046696C650A0D0000006C
:100E40000A0D46696C6520547261736D697474652E
:100E500064205375636365737366756C6C79200ADF
:100E60000D0000000D0A0A41626F72746564206211
:100E70007920757365722E0A0D00000010B50446C6
:100E800003E02078FFF76EFF641C20780028F8D17B
:100E900010BD70B502460C460021002500231078D5
:100EA000302843D15078782802D0507858283DD146
:100EB000907808B9002070BD022130E0505C10B974
:100EC000236001252DE0505C412802DB505C462860
:100ED0000BDD505C612802DB505C662805DD505C50
:100EE000302819DB505C392816DC505C302805DBD3
:100EF000505C392802DC505C30380AE0505C4128F4
:100F000005DB505C462802DC505C373801E0505C61
:100F1000573800EB031301E0002502E0491C0B29C0
:100F2000CCD300BF0B2934D3002532E000212AE0C6
:100F3000505C10B92360012527E0505C6B2802D07B
:100F4000505C4B2804D119B19B02236001251CE0A1
:100F5000505C6D2802D0505C4D2804D119B11B059E
:100F60002360012511E0505C302809DB505C3928F2
:100F700006DC505C303803EB830600EB460301E0EF
:100F8000002502E0491C0B29D2D300BF0B2900D356
:100F9000002528468FE710B500F068F810BD000066
:100FA00010B51448006840F0010012490860084676
:100FB0004068114908400F494860084600680F49D9
:100FC00008400C4908600846006820F4802008604A
:100FD000084640680A4908400649486008460068D3
:100FE00006490840034908604FF41F00886002F07A
:100FF0007DF810BD001002400C00FFE8FFFFF6FE78
:10100000FFFF00F730B5164800684FF47A72B0FB66
:10101000F2F1481EB0F1807F01D301201BE0481E91
:101020004FF0E022506150170F22002804DB130715
:101030001C0E0C4B1C5406E013071D0E0A4B00F04F
:101040000F04241F1D5500BF00204FF0E0229061C7
:1010500007201061002008B100BFFEE730BD00008E
:101060004800002000E400E018ED00E010B50F4853
:101070000088401C0D490880FFF7F6F80B480088EF
:10108000012802D1FFF7A4FB0EE008480088C92818
:1010900002D1FFF79DFB07E004480088B0F5C87F48
:1010A00002DD00200149088010BD00003C00002046
:1010B00010B503460C46194644F4807200BF49003F
:1010C000520002F4807000B1491C01F4803010B16C
:1010D00041F22100414002F480300028EFD088B274
:1010E00010BD08B50020009004E06846FFF702FE3E
:1010F00000B100E0F9E700BF9DF8000008BD00BFA7
:10110000FEE72DE9FE4305460F4690460120287074
:1011100000206870FF20A870002404E0395DE01C06
:101120002954601C84B2385D08B1402CF6DB0021E4
:10113000E01C29546846D8F80010FFF70DFB002684
:10114000201D84B208E03046711C8EB21DF80020CC
:101150002046611C8CB22A541DF806000028F2D1EA
:10116000264603E00020A855701C86B2832EF9DBCA
:10117000BDE8FE83F0B5074614461D46B5F5806F01
:1011800002D34FF4806C01E04FF0800C63469D4227
:1011900001D2AC4600E09C461FFA8CF2B3F5806F9A
:1011A00004D14FF0020C81F800C003E04FF0010CB5
:1011B00081F800C04C706FEA040C81F802C03E4612
:1011C000032007E016F801CB01F800C000F1010C84
:1011D0001FFA8CF002F1030C6045F3DB9A420EDC3F
:1011E0001FFA8CF007E04FF01A0C01F800C000F174
:1011F000010C1FFA8CF003F1030C6045F3DBF0BD2A
:101200002DE9F04FADF2444D00200790DC480590E9
:1012100000200490029082460190DA48007818B1CC
:10122000D948DA49086002E0D948D8490860D74867
:10123000006803900DF13F074FF0000BD8460020E7
:10124000089000BF00260020099000BF4FF48012D4
:101250000AA90FA8FFF744FB10B1012870D133E1B0
:101260004FF000080A98B0F1FF3F01D070B907E0D5
:101270000620FFF71DFC00200DF2444DBDE8F08F65
:101280000620FFF715FC012009901BE19DF83D00A9
:10129000B04206DA9DF83D103246BE4800F092FB9F
:1012A000D4E79DF83D00F1B2884209D09DF83D1089
:1012B0003246B9A000F086FB1520FFF7F9FB00E1EC
:1012C000002E6FD19DF83F0000286CD000240DF156
:1012D0003F0505E015F8012B2046641CBE490A5461
:1012E000287808B1402CF5DB00222046641CBA495E
:1012F0000A544A46B9A000F065FB00246D1C05E0C5
:1013000015F8012B2046641C0BA90A5428782028C4
:1013100001D0102CF4DB00222046641C0BA90A54D7
:101320004A46B4A000F04EFB07A90BA8FFF7B1FD99
:10133000B6A0079900F046FB6D1C00246D1C0BE065
:10134000CEE0285DB44908550598005D295D8842C6
:1013500001D001200490641C202CF2DB0020AE4957
:101360000855AEA000F02EFB049840B91820FFF7F6
:101370009FFB1820FFF79CFB6FF003007CE70798AA
:10138000B0F5544F10D34DF2FF32A9A0079900F0E9
:1013900019FB1820FFF78CFB1820FFF789FB4FF093
:1013A000FF3069E72FE027E00798FEF7FBFFC0B2A8
:1013B0000190A9A0019900F005FB4FF0000A0DE093
:1013C00072490968A94A128802FB0A1000F046FE19
:1013D000A74908700AF1010000F0FF0A0198824550
:1013E00003DAA34800780028EAD00620FFF760FB64
:1013F0004320FFF75DFB61E00620FFF759FB01206A
:10140000099083465EE0012E22D138686FF3100008
:10141000B0F1005F0AD01820FFF74AFB1820FFF751
:1014200047FB94A000F0CEFAF01E25E778686FF332
:101430000900574988420BD01820FFF739FB1820C4
:10144000FFF736FB92A000F0BDFA6FF0010013E742
:10145000964807604FF0000923E09448006801684F
:101460004A48006800F092FE4848006800688F49CA
:1014700009680968884208D01820FFF719FB18206E
:10148000FFF716FB6FF00100F6E640480068001D0C
:101490003E49086085480068001D8449086009F1DC
:1014A00004090A98814506DA0799039808443749E0
:1014B00009688842D1D80620FFF7FAFA761C012085
:1014C000089000BF00BF46E079A000F07BFA18202A
:1014D000FFF7EEFA1820FFF7EBFA6FF00200CBE609
:1014E00078A000F06FFA0898002810DD08F10108D4
:1014F000B8F1050F1ADD41467AA000F063FA182012
:10150000FFF7D6FA1820FFF7D3FA0020B4E60298C6
:10151000401CC0B202900298502807DB75A000F072
:1015200051FA0020784908804880A5E606A8FFF710
:10153000F5FB60B19DF81800612808D11820FFF76D
:10154000B7FA1820FFF7B4FA6FF0020094E64320D0
:10155000FFF7AEFA00BF00BF099818B16BA000F00A
:1015600031FA00E072E600BFBBF1000F3FF46AAE53
:101570006BA000F027FA00BF00BF07987CE60000D0
:10158000005A000828000020003001082C0000202C
:10159000005C0008443600087061636B65745F642A
:1015A0006174615B5041434B45545F5345514E4F0D
:1015B0005F494E4445585D203D20252378207061C9
:1015C000636B6574735F7265636569766564203DFE
:1015D0002025640D0A0000007200002066696C6519
:1015E0005F6E616D65203D2025732C6A3D25640D7D
:1015F0000A00000066696C655F73697A65203D25A5
:10160000732C6A3D25640D0A0000000073697A6539
:10161000203D2025640D0A00500000206D643573C4
:10162000756D5F646F776E203D2025730D0A000095
:1016300073697A6528256429203E2028464C415349
:10164000485F494D4147455F53495A45202D203158
:1016500029282564290D0A004E62724F6650616781
:1016600065203D2025640D0A0000000030000020A8
:1016700032000020646F776E2066696C65206572A9
:10168000726F7220312C61626F72740D0A0000005B
:10169000646F776E2066696C65206572726F722068
:1016A000322C61626F72740D0A0000003400002059
:1016B000313A2061626F72742062792075736572AD
:1016C0000D0A00002D313A2074696D656F75742024
:1016D0006F72207061636B6574206572726F720D3A
:1016E0000A0000006572726F7273203D2025640D40
:1016F0000A000000646F776E6C6F61642074696D1E
:10170000656F75740D0A0000BE04002066696C6583
:101710005F646F6E6520627265616B0D0A00000088
:1017200073657373696F6E5F646F6E652062726557
:10173000616B0D0A0000000070B505460E460024DE
:1017400004E0285DFFF7B4F9601C84B2B442F8DB12
:1017500070BD00002DE9F74FADF58B6D00200190B5
:10176000814600248046002606E0DDF85C04805DAA
:1017700004A98855701CC6B23F2EF6DB01200190EB
:101780000DF58C6204A914A8FFF7BBFC00BF8321F0
:1017900014A8FFF7D1FF019860B180210DF153002B
:1017A000FEF73DFD05462812FFF782F9E8B2FFF784
:1017B0007FF908E080210DF15300FEF724FD03902E
:1017C0000398FFF775F942F2107102A8FFF75CF871
:1017D00030B99DF80800062803D14FF0010800E059
:1017E000641CB8F1000F01D10A2CD0D30A2C04D309
:1017F000E0B20DF2644DBDE8F08FDDF858A4DDF8DD
:1018000060944FF0010B59E00BF0FF024B4614A916
:101810005046FFF7AFFC4FF0000800208DF808009D
:10182000002400BFB9F5806F02D34FF4806700E059
:101830008027F81C81B214A8FFF77EFF019860B1E1
:1018400039460DF15300FEF7EAFC05462812FFF772
:101850002FF9E8B2FFF72CF908E039460DF15300F3
:10186000FEF7D1FC03900398FFF722F9544902A830
:10187000FFF70AF8C0B99DF80800062814D14FF008
:101880000108B9450CD9BA44A9EB0709BBF1350FDA
:1018900001D1FF20ADE70BF101001FFA80FB04E04E
:1018A000BA444FF0000900E0641CB8F1000F01D108
:1018B0000A2CB7D30A2C01D3E0B29AE7B9F1000F92
:1018C000A2D14FF0000800208DF80800002400BFCE
:1018D0000420FFF7EDF842F2107102A8FEF7D4FFE2
:1018E00030B99DF80800062802D14FF0010800E049
:1018F000641CB8F1000F01D10A2CE9D30A2C01D3E2
:10190000E0B276E74FF0000800208DF808000024D0
:1019100001208DF8500000208DF85100FF208DF837
:101920005200032604E0002014A98855701CC6B29A
:10193000832EF8DB00BF832114A8FFF7FDFE802172
:101940000DF15300FEF76BFC05462812FFF7B0F8C7
:10195000E8B2FFF7ADF842F2107102A8FEF794FF6B
:1019600030B99DF80800062803D14FF0010800E0C7
:10197000641CB8F1000F01D10A2CDCD30A2C01D36E
:10198000E0B236E700BF0420FFF792F842F2107190
:1019900002A8FEF779FF30B99DF80800062802D1A9
:1019A0004FF0010800E0641CB8F1000F01D10A2CCF
:1019B000E9D30A2C01D3E0B21BE7002019E70000AD
:1019C000A08601000FB4054B10B503A9044A029884
:1019D00000F04CF810BC5DF814FB00004D2200082C
:1019E0004C0000200FB4084B10B504A902AA0398BC
:1019F00000F03CF8044602A9002000F097F92046C8
:101A000010BC5DF814FB00002D1D000800BF00BFD6
:101A100000BFBFF34F8F00BF00BF00BF0948006881
:101A200000F4E06008490843001D0649086000BF53
:101A300000BF00BFBFF34F8F00BF00BF00BF00BF9C
:101A400000BFFDE70CED00E00000FA0502E008C869
:101A5000121F08C1002AFAD170477047002001E028
:101A600001C1121F002AFBD1704700002DE9FF4F72
:101A70008DB09B460F460446002606E025280BD075
:101A80005A460F999047641C761C20780028F5D19F
:101A900011B03046BDE8F08F0025A84601229849D4
:101AA00000E0054314F8013F203B02FA03F008422E
:101AB000F7D120782E2817D114F8010F45F004052E
:101AC0002A280ED06FF02F022078A0F130010929CA
:101AD0000AD808EB880102EB410100EB0108641C05
:101AE000F2E757F8048B641C20786C280DD004DCD6
:101AF0004C2812D06A2811D104E074280DD07A281D
:101B00000CD10AE045F4001507E0617845F4801532
:101B1000814202D1641C05F58015641C2278692A73
:101B200045D008DC002AB3D0582A69D0632A10D0E7
:101B3000642A08D13BE0702A67D0732A13D0752A33
:101B40005CD0782A5CD010465A460F999047761C94
:101B5000D3E017F8040B8DF8000000208DF8010089
:101B6000E946012003E057F8049B4FF0FF30690776
:101B70004FF0000501D40AE06D1C45450DDA8542A1
:101B8000FADB19F805100029F6D106E06D1C854234
:101B9000FCDB19F805100029F8D12E4404E019F8EF
:101BA000010B5A460F9990476D1EF8D2A5E00A2006
:101BB0000021CDE90801C5F3025002280DD001CF64
:101BC000C117031E71F100030DDA4FF0000CD0EBCA
:101BD0000C006CEB01012D2308E0FF1D27F0070727
:101BE000F7E80201EDE72B0504D52B238DF828300B
:101BF00001233BE0EB0739D02023F7E70A2000E080
:101C000010200021CDE9080107E01020002145F057
:101C10000405CDE908014FF00808C5F30250022879
:101C20000FD001CF00214FF0000A2B071FD5702ADB
:101C30000DD0DDE908C38CF0100C5CEA030C0CD06D
:101C400015E0FF1D27F00707F7E80201EBE7402248
:101C50008DF828204FF0010A0BE050EA010306D06E
:101C600030238DF828308DF8292002239A46582AEF
:101C700004D024A20DF120090B9209E026A2F9E775
:101C8000DDE90823FEF75AFA0B9B9B5C09F8013D3E
:101C900050EA0102F4D1ADEB09002030089068074A
:101CA00001D44FF001080899884502DDA8EB010036
:101CB00000E000208046002506E00AA85A46405D64
:101CC0000F9990476D1C761C5545F6DB04E03020DB
:101CD0005A460F999047761CB8F10001A8F1010807
:101CE000F5DC05E019F8010B5A460F999047761C70
:101CF0000899481E08900029F4DC641CC5E6000021
:101D000009280100303132333435363738396162D1
:101D10006364656600000000303132333435363795
:101D20003839414243444546000000000A68531CCC
:101D30000B6010707047000010B511A0FFF79EF8FF
:101D40001A48FFF79BF81A48FFF798F81948FFF769
:101D500095F81748FFF792F817A0FFF78FF81B4880
:101D60000068FFF78BF81AA0FFF788F804A0FFF7C8
:101D700085F81DA0FFF782F8FEF74CFD10BD0000AE
:101D80000D0A3D3D3D3D3D3D3D3D3D3D3D3D3D3DE6
:101D90003D3D3D3D3D3D3D3D3D3D3D3D3D3D3D3D73
:101DA0003D3D3D3D3D3D3D3D3D3D0000B4350008E0
:101DB0006C350008FC3500080D0A3D20202020204D
:101DC00042792044617A68692000000024000020E4
:101DD0002020202020202020202020202020202003
:101DE00020202020203D00000D0A0D0A00000000E8
:101DF0002DE9F041274D284E002700F0A5F928686D
:101E00006FF31000B0F1005F07D024A0FFF7DAFDF8
:101E100000F0EEFE0220BDE8F08168686FF3090073
:101E20001D49884206D021A0FFF7CCFD00F0E0FE5E
:101E30000220F0E721480068B0F5806F02DD1F48FE
:101E4000006802E01E48006840680446B4F5806FF0
:101E500002D3B4F5544F01D94FF4544422462146DD
:101E600018A0FFF7AFFD304600F0F8F80BE0E95995
:101E7000304600F08BF9361D3F1DC6F3090010B93E
:101E8000304600F0EBF8A742F1D300F0B1FE00209D
:101E9000C1E7000000300108005C00086E6F74208C
:101EA0007570646174650D0A000000006E6F742027
:101EB00075706461746520330D0A000020000020F5
:101EC00044000020666C6173685F646F776E6C6FAE
:101ED00061645F636F7079746F5F617070207369A4
:101EE0007A65203D20252378202F2F2025640D0A98
:101EF0000000000000B50346012200BF00F00CF80E
:101F000002465B1E012A01D1002BF7D1012A00D124
:101F10000422104600BD000000200A49C96801F0F3
:101F2000010109B101200CE00649C96801F0100166
:101F300009B1032005E00349C96801F0040101B1BA
:101F4000022070470020024000B50346012200BF76
:101F500000F00CF802465B1E012A01D1002BF7D1DC
:101F6000012A00D10422104600BD000000200A49C9
:101F7000C96C01F0010109B101200CE00649C96CEE
:101F800001F0100109B1032005E00349C96C01F01B
:101F9000040101B1022070470020024070B50446E0
:101FA0000D4600262A480088B0F5007F35D2294822
:101FB000844219D24FF47020FFF79CFF0646002E92
:101FC00043D12548006940F001002349086125807C
:101FD0004FF47020FFF78EFF06461F48006920F07F
:101FE00001001D49086130E04FF47020FFF7ACFF9D
:101FF000064656BB1848006D40F0010016490865BA
:1020000025804FF47020FFF79FFF06461248006DB1
:1020100020F001001049086517E04FF47020FFF729
:1020200069FF06468EB90C48006940F001000A4974
:10203000086125804FF47020FFF75CFF06460648D4
:10204000006920F0010004490861304670BD0000BD
:10205000E0F7FF1FFFFF07080020024030B50546EC
:1020600036480088B0F5007F48D9354885421ED2F1
:102070004FF47020FFF73EFF0446002C5BD131483F
:10208000006940F002002F49086108464561006977
:1020900040F0400008614FF47020FFF72BFF04462A
:1020A0002848006920F002002649086143E04FF407
:1020B0007020FFF749FF0446002C3CD12148006DF9
:1020C00040F002001F49086508464565C06900F0F8
:1020D000020008B1084645611A48006D40F0400012
:1020E000184908654FF47020FFF72EFF0446154885
:1020F000006D20F00200134908651CE04FF47020C9
:10210000FFF7F8FE0446B4B90E48006940F002003B
:102110000C49086108464561006940F040000861CB
:102120004FF47020FFF7E6FE04460648006920F0F1
:10213000020004490861204630BD0000E0F7FF1F9F
:10214000FFFF0708002002400C48006900F08000F3
:1021500020B10B48094948600A4848600A4800888D
:10216000B0F5007F09D90548006D00F0800020B16E
:10217000034802494864034848647047002002400D
:1021800023016745AB89EFCDE0F7FF1F70B504462B
:102190000D4600262A480088B0F5007F35D9294829
:1021A000844219D24FF47020FFF7A4FE0646002E99
:1021B00043D12548006940F00100234908612560AA
:1021C0004FF47020FFF796FE06461F48006920F086
:1021D00001001D49086130E04FF47020FFF7B4FEA4
:1021E000064656BB1848006D40F0010016490865C8
:1021F00025604FF47020FFF7A7FE06461248006DD9
:1022000020F001001049086517E04FF47020FFF737
:1022100071FE06468EB90C48006940F001000A497B
:10222000086125604FF47020FFF764FE06460648FB
:10223000006920F0010004490861304670BD0000CB
:10224000E0F7FF1FFFFF07080020024070B50446BB
:102250000D46E0B2FEF786FD204670BD30B5024661
:102260000B46164C002145F25550154D286000BF15
:102270001348C06800F00101601E041E01D000294F
:10228000F6D109B1002030BD0D4843600B4C00BFB2
:102290000B48C06800F00201601E041E01D0002936
:1022A000F6D109B10020EEE7C2F30B00044DA8609F
:1022B0004AF6AA2028600120E5E70000FFFF0F0092
:1022C000003000404CF6CC400149086070470000E7
:1022D0000030004045F25550014908607047000049
:1022E0000030004008B56846FEF718FD50B39DF871
:1022F0000000312805D1002000F09AFEFEF704FC12
:1023000023E09DF80000322805D1002000F090FE67
:10231000FEF738FD19E09DF80000332802D100F0E7
:102320007DF812E09DF80000342801D1FFF76EFB24
:102330009DF80000352806D104480068012802D124
:10234000FDF79EFF01E000F0D5FE08BD1000002063
:10235000F8B52E4D0026684600F082F9002853D0CB
:102360009DF80000552802D10020294908709DF8E9
:1023700000002849264A1278885425480078052804
:102380003FDA23480078401C21490870084600784D
:10239000052839D11F484078AA282ED11D488078B9
:1023A000D0282AD11B48C078D0B91A480079CF2844
:1023B00016D1FF265520FEF78BFBAA20FEF788FBDF
:1023C000002407E0285DFEF783FB285D3044C6B299
:1023D000601CC4B2202CF5DB3046FEF779FB0CE024
:1023E0000C48C078012808D10A480079D02804D1C7
:1023F00001200949087000F011F800200449087014
:1024000002E0002002490870F8BD0000005A0008F0
:102410001C000020140000202800002016A0FFF758
:10242000D1FA1A48006840884FF6FF71884205D1FA
:10243000FFF78AFEFF211648FFF7B0FD00BF00BF7F
:1024400000BF00BF00BFBFF34F8F00BF00BF00BF82
:102450001048006800F4E0600F490843001D0D4972
:10246000086000BF00BF00BFBFF34F8F00BF00BFB9
:1024700000BF00BF00BFFDE7676F746F5F6F7461DF
:102480005F757064617465200D0A000044000020CF
:10249000025800080CED00E00000FA0541617047A9
:1024A00001617047F0B5044616460025002201F090
:1024B0000F0501F0100707B1354300201EE001278A
:1024C00087401F40C7B122684FEA800C0F2707FAE8
:1024D0000CF7BA43870005FA07F73A43282904D1D5
:1024E000012787401F40676105E0482903D1012784
:1024F00087401F4027612260471CB8B20828DED3FE
:10250000082022E0012787401F40E7B16268A0F160
:1025100008074FEA870C0F2707FA0CF7BA43A0F118
:102520000807BF0005FA07F73A43282904D1012715
:1025300087401F40676105E0482903D10127874094
:102540001F4027616260471CB8B21028DAD3F0BD83
:102550000246D068084008B1012070470020FCE71F
:10256000F0B50A46002300240021002500F00046B3
:10257000B6F1004F02D11D4EF16901E01B4E7168AA
:10258000C0F3034583B200F44016B6F5401F08D1EE
:1025900021F07061154E766826F07066134F7E60EC
:1025A00012E000F48016B6F5801F06D1032606FA65
:1025B00005F4A14341F0706106E0460D360103FACF
:1025C00006F6B14341F0706122B1460D360103FABF
:1025D00006F6314300F00046B6F1004F02D1034E3B
:1025E000F16101E0014E7160F0BD000000000140AA
:1025F000F0B50446154610E01848008800F58160E3
:10260000164E7688801B4FF4816690FBF6F706FB2A
:10261000170083B28B4200DB02E0681E051EEBD17F
:1026200000BF8B4202DA4FF0FF30F0BD002211E014
:102630000A484688001D805DA05408484088401C18
:102640004FF4816690FBF6F706FB1700034E70808F
:10265000501C82B28A42EBDB0020E6E7B200002089
:1026600001461148008800F581600F4A5288801A9F
:102670004FF4816290FBF2F302FB1300002801DCAF
:102680000020704708484288001D805C087006489A
:102690004088401C4FF4816290FBF2F302FB130070
:1026A000014A50800120ECE7B2000020012904D14A
:1026B000026842F48062026003E0026822F48062F1
:1026C000026070472DE9F05F04460E4693460220F3
:1026D00000F0ECFB07463148B7FBF0F9B9F13F0FCA
:1026E00001D34FF03F09D4F804A02AF03F0A4AEA88
:1026F000090AC4F804A02A4886421ED82748B7FB16
:10270000F0F000F10108B8F13F0F02D33F20206242
:1027100007E0B8F1020F02D80220206201E0C4F8FD
:1027200020807000B7FBF0F5042D00D20425E0698D
:10273000C5F30B010843E0612EE01A4886422BD80E
:102740004FF4967009FB00F04FF47A71B0FBF1F092
:10275000401C2062BBF1000F08D106EB4600B7FB1E
:10276000F0F5E06920F48040E06109E006EBC60086
:1027700000EB0610B7FBF0F5E06940F48040E06143
:10278000C5F30B0008B945F00105E06940F40040CD
:10279000E061E0692843E061BDE8F09F40420F003E
:1027A000A0860100801A060001460869C0B2704781
:1027B000CAB202617047016841F0010101607047CF
:1027C00010B500EB9112126801F01F040123A34021
:1027D0009A4300EB91131A6010BD10B500EB9112F3
:1027E000126801F01F040123A3401A4300EB911368
:1027F0001A6010BD10B5094A914202D1426982693E
:102800000AE000EB91521268C1F304440123A34093
:102810009A4300EB91531A6010BD000009010105B5
:10282000F0B5024600230024506800F48065C1F32F
:102830008910105801F01F070126BE4000EA060368
:1028400002EB91500068C1F304470126BE4000EA44
:1028500006040848814202D00748814204D113B1DE
:102860000DB1012300E0002314B10BB10120F0BD34
:102870000020FCE7090106050901070530B50C46F3
:102880000021016821F0020121430160C3F3090323
:1028900042EA0305856030BD10B5074800684088EE
:1028A0004FF6FF71884204D004A0FEF7E7FA01203A
:1028B00010BD0020FCE70000440000203D69735F6C
:1028C0006D63755F6E6565645F75706461746520C6
:1028D00031203D3D3D3D0D0A0000000010B5074888
:1028E000006800884FF6FF71884204D104A0FEF70B
:1028F000C5FA012010BD0020FCE7000044000020C4
:102900003D69735F6D63755F6E6565645F75706467
:102910006174652031203D3D3D3D0D0A0000000001
:1029200010B5FFF7D7FC042140F6FF70FFF796FCC7
:10293000FFF7C8FC10BD000008B5002500244FF4C7
:10294000A06000F0C5F94FF4C06000F041FB012128
:102950004848FFF705FEFEF755FBFDF77DFF4648AB
:10296000FDF738FEFDF7E4FEFDF742FFFFF7ECFB55
:1029700042A0FEF783FA4B480068FEF77FFA4AA0B0
:10298000FEF77CFAFFF788FF88B1012000F050FBCA
:1029900046A0FEF773FA01204D490870FEF7B4F81F
:1029A000002827D100F0ECF8FFF722FA22E0FFF729
:1029B00095FF28B147A0FEF761FAFFF719FA19E071
:1029C0004DA0FEF75BFA0CE06846FEF7A7F928B1C8
:1029D0009DF80000032801D1012407E00120FDF744
:1029E00039FC2846691C8DB2C828EDDB00BF0CB14C
:1029F000FFF7A2F9484800686FF31000B0F1005FDC
:102A000002D0FDF707FF09E04348001D00686FF39F
:102A100009004149884201D0FDF7FCFE3FA0FEF7C6
:102A20002DFA3D48006849490840B0F1005F13D1D4
:102A3000FFF776FF72B63848001D00684449086009
:102A400008460068434908603349086880F30888ED
:102A500000BF4048006880473FA0FEF70FFA08E03B
:102A60003DA0FEF70BFAFFF767F94FF47A70FDF718
:102A7000F1FBF5E700023000003801400D0A696102
:102A8000702073746172742862792064617A686955
:102A9000406A63292C20696E6974206F6B21210DB7
:102AA0000A000000240000200D0A00003D69735F49
:102AB0006D63755F6E6565645F646F776E6C6F6183
:102AC00064203D3D203120203D3D3D3D0D0A00006C
:102AD000280000203D69735F6D63755F6E656564F6
:102AE0005F757064617465203D3D203120203D3D5F
:102AF0003D3D0D0A000000003D6764333220626FE7
:102B00006F746C6F616465722073746172743D3DA3
:102B10003D3D3D3D0D0A0000005C00083D2067641E
:102B2000333220626F6F746C6F61646572206175FF
:102B3000746F20626F6F742032303233303530362C
:102B4000203D3D3D3D3D3D0D0A0000000000FE2FB3
:102B500004000020000000203D2067643332206222
:102B60006F6F746C6F61646572206572726F722032
:102B70007768696C6520313D3D3D3D3D3D0D0A0066
:102B800070B5104DFFF7E0FA0FA0FEF777F9154882
:102B9000FFF764FA002407E0134801592846FFF7BD
:102BA000F5FA2D1D201DC4B2202CF5DB0F4800685E
:102BB000B0F5806F05DD0D4801680A48001DFFF77C
:102BC000E5FA70BD005A00083D6D63755F646F776C
:102BD0006E6C6F61645F646F6E653D3D3D3D0D0AD7
:102BE00000000000005800085000002020000020D5
:102BF00010B505A0FEF742F9FFF7A6FAFF21084835
:102C0000FFF7CCF910BD00003D6D63755F75706412
:102C10006174655F646F6E653D3D3D3D0D0A00006A
:102C2000005800082DE9F04103460D4616460024E1
:102C30000027A0462448006800F4E060B0F5A06FCB
:102C400015D006DCB0F5407F18D0B0F5806F19D1F3
:102C500010E0B0F5C06F06D0B0F5E06F12D10027DC
:102C60004FF0040815E001274FF0030811E0022798
:102C7000B8460EE003274FF001080AE004274FF0A2
:102C8000000806E04FF4A06000F022F80227B846E2
:102C900000BF00BFC7F1040005FA00F4C8F1040149
:102CA0000F20C8403040044324010848C45403F0B6
:102CB0001F01012088405911890001F1E021C1F86C
:102CC0000001BDE8F08100000CED00E000E400E050
:102CD00002490143024A1160704700000000FA05F2
:102CE0000CED00E030B5A5254FF47020FFF702F998
:102CF000044600F03DF800B1BB2554BB1A480069FA
:102D000040F02000184908610846006940F0400082
:102D100008614FF47020FFF7EDF80446D4B912486B
:102D2000006920F02000104908610846006940F061
:102D3000100008610D4805804FF47020FFF7DAF8A5
:102D40000446042C0ED00848006920F01000064903
:102D5000086107E0042C05D00348006920F010004A
:102D600001490861204630BD0020024000F8FF1FE5
:102D700000200449C96901F0020109B1012000E005
:102D800000207047002002400248C069C0F387005D
:102D900070470000002002402DE9F04305460E4632
:102DA0001746984600244FF47020FFF7A3F8044616
:102DB000DCB90F48006940F010000D49086148EA8D
:102DC00005003043384340F0F0090A48A0F800906D
:102DD0004FF47020FFF78EF80446042C05D0044809
:102DE000006920F01000024908612046BDE8F08328
:102DF0000020024002F8FF1F2DE9F04304464FF483
:102E00007020FFF777F80546E443E6B2C4F30727DE
:102E1000C4F307484FEA1469DDBB1F48006940F05E
:102E200010001D490861FF2E06D01C4806804FF493
:102E30007020FFF75FF805464DB9FF2F07D0174800
:102E4000801C07804FF47020FFF754F805465DB9E9
:102E5000B8F1FF0F08D01148001DA0F800804FF412
:102E60007020FFF747F805465DB9B9F1FF0F08D0AC
:102E70000A48801DA0F800904FF47020FFF73AF840
:102E80000546042D05D00448006920F010000249D1
:102E900008612846BDE8F0830020024008F8FF1FC3
:102EA0000148006A70470000002002402DE9F04F01
:102EB0008BB00746002009903EA090E8004CC06807
:102EC000CDE905BECDF810A007900FF2EC0ADAE9C3
:102ED000000ACDE9020A0FF2E00ADAE9000ACDE9B8
:102EE000000A38484068C0F381000A900A9820B16F
:102EF000012804D0022829D103E0334928E03249CF
:102F000026E03048406800F48038B8F5803F09D1A9
:102F10002D4C2C48406800F40039B9F5003F02D12F
:102F2000641000E0294C27484068C0F383422548DC
:102F3000406800F0006008B142F010020F2A01D290
:102F4000921C00E0521C04FB02F101E01E4900BF8C
:102F500000BF1C484068C0F3031504A8465D21FA71
:102F600006F318484068C0F3022502A8465D23FA1C
:102F700006FC14484068C0F3C2251DF8056023FA1A
:102F800006F0089037B1012F06D0022F06D0032F8C
:102F90000AD106E0099108E0099306E0CDF824C0C3
:102FA00003E00898099000E000BF00BF09980BB04B
:102FB000BDE8F08F000000000000000001020304E3
:102FC000060708090010024000127A0000093D00BF
:102FD000064A02EB9011096800F01F0301229A4093
:102FE0001143024B03EB9012116070470010024036
:102FF000064A02EB9011096800F01F0301229A4073
:103000009143024B03EB9012116070470010024095
:10301000064A02EB9011096800F01F0301229A4052
:103020001143024B03EB90121160704700100240F5
:103030000149024A116070470038014040000020F9
:1030400000200021264A126842F00102244B1A6037
:1030500000BF401C224A126802F0020111B9B0F50B
:10306000A06FF6D11E4A126802F002020AB900BF30
:10307000FEE71B4A52681A4B5A601A4652685A6059
:103080001A46526842F480625A601A465268154BDA
:103090001A40134B5A601A465268134B1A43104B8E
:1030A0005A601A46126842F080721A6000BF0C4AD9
:1030B000126802F00072002AF9D0094A526822F020
:1030C0000302074B5A601A46526842F002025A60E5
:1030D00000BF034A526802F00802002AF9D0704784
:1030E00000100240FFFFC3F70000280810B5FFF7EB
:1030F000A7FF10BD10B5FFF7D3FE134909680840BC
:1031000011490968884203D001201049086002E093
:1031100000200E4908600EA0FDF7B0FE1CA0FDF7D0
:10312000ADFE2848FDF7AAFE2748FDF7A7FE27A019
:10313000FDF7A4FE0548006810B12DA0FDF79EFE26
:1031400034A0FDF79BFE10BD0C00002010000020F5
:103150000D0A3D3D3D3D3D3D3D3D3D3D3D3D3D3D02
:103160003D3D3D3D204D61696E204D656E75203DB4
:103170003D3D3D3D3D3D3D3D3D3D3D3D3D3D3D3D7F
:103180003D3D3D3D3D3D3D3D3D3D3D0D0A00000089
:10319000312E2020446F776E6C6F616420496D6121
:1031A000676520546F207468652047443332463188
:1031B000307820496E7465726E616C20466C617364
:1031C000680D0A0020340008B0340008342E202096
:1031D0005265626F6F7420746865207379737465CB
:1031E0006D202C2052756E20415050200D0A000099
:1031F000352E202044697361626C652074686520F7
:1032000077726974652070726F74656374696F6E2C
:103210000D0A00003D3D3D3D3D3D3D3D3D3D3D3DBB
:103220003D3D3D3D3D3D3D3D3D3D3D3D3D3D3D3DCE
:103230003D3D3D3D3D3D3D3D3D3D3D3D3D3D3D3DBE
:103240003D3D3D3D3D3D3D3D3D3D3D3D3D3D0D0A11
:10325000000000002DE9F04704460D460027B8465F
:10326000B94600261D49601A8C421CD006DC1C4859
:10327000204470B1B0F5806F1FD10FE0B0F5806FC2
:1032800016D0B0F56C4F18D10320FFF70FFE07469C
:1032900014E00220FFF70AFE07460FE00220FFF7C6
:1032A00005FE07460AE00220FFF700FE074605E09C
:1032B0000220FFF7FBFD074600E000BF00BF07EB61
:1032C0005500B0FBF5F64FF6F07006EA000806F080
:1032D0000F0948EA0900A060BDE8F087004C0040F3
:1032E00000BCFFBF01464868C0F308007047C1F347
:1032F000080242607047000010B504462049601A79
:103300008C4228D006DC1F48204490B1B0F5806F75
:1033100033D117E0B0F5806F26D0B0F56C4F2CD1CB
:1033200040F20E30FFF774FE40F20E30FFF760FE01
:1033300024E040F21140FFF76BFE40F21140FFF72E
:1033400057FE1BE040F21240FFF762FE40F21240CF
:10335000FFF74EFE12E040F21340FFF759FE40F235
:103360001340FFF745FE09E040F21440FFF750FE1E
:1033700040F21440FFF73CFE00E000BF00BF10BD6C
:10338000004C004000BCFFBFC16841F40051C16067
:10339000704710B5024602EB9110006801F01F045F
:1033A0000123A340184008B1012010BD0020FCE714
:1033B0000A460021416921F40071114341617047BF
:1033C0000A460021416921F480711143416170472F
:1033D000C26822F4C062C260C2680A43C260704719
:1033E0000A460021C16821F004011143C160704701
:1033F000026922F44052026102690A430261704785
:103400000A460021C16821F008011143C1607047DC
:10341000C26822F48052C260C2680A43C260704728
:10342000322E202055706C6F616420496D61676594
:103430002046726F6D2074686520474433324631F0
:10344000307820496E7465726E616C20466C6173D1
:103450006820286465627567202075617274302960
:103460000D0A00002E2E2E616E64206120537973A8
:1034700074656D2052657365742077696C6C206289
:10348000652067656E65726174656420746F207273
:10349000652D6C6F616420746865206E6577206FA0
:1034A0007074696F6E2062797465730D0A00000094
:1034B000332E2020446F776E6C6F616420496D61FC
:1034C000676520546F207468652047443332463165
:1034D000307820496E7465726E616C20466C617341
:1034E000682066726F6D20726B33333939207561D5
:1034F00072740D0A000000000A0A0D2050726F67F6
:1035000072616D6D696E6720436F6D706C65746577
:1035100064205375636365737366756C6C79210AF7
:103520000D2D2D2D2D2D2D2D2D2D2D2D2D2D2D2DEB
:103530002D2D2D2D2D2D2D2D2D2D2D2D2D2D2D2DBB
:103540002D0D0A204E616D653A2000004275696CB0
:103550006474696D65203A4D6179202038203230DD
:1035600032332031373A32313A3133000D0A3D20BF
:10357000202020202020202020202020202020204B
:10358000202020202020202020202020202020203B
:10359000202020202020202020202020202020202B
:1035A000202020202020202020202020202020201B
:1035B000203D00000D0A3D2020202020202020203A
:1035C000202028432920434F50595249474854202E
:1035D000323032332048754E616E48544A4320429F
:1035E000592064617A686920202020202020202032
:1035F0002020202020202020203D00000D0A3D20FA
:1036000020202020496E2D4170706C6963617469BF
:103610006F6E2050726F6772616D6D696E672041C9
:1036200070706C69636174696F6E202028566572D2
:1036300073696F6E20332E332E31292020202020F5
:10364000203D00002D2D2D7061636B65745F6461FA
:1036500074615B5041434B45545F5345514E4F5F3E
:10366000494E4445585D203D2025237820706163F4
:103670006B6574735F7265636569766564203D2070
:1036800025640D0A00000000A83600080000002094
:10369000500000004C1A0008F836000850000020C6
:1036A000802800005C1A00080000000000000000F4
:1036B000000000000000000000000000000000000A
:1036C0000000000000000000000000004C35000871
:1036D00000010000005C0008000400000000000081
:1036E0000000000000000000003801400058000801
:0836F00000F36F06000000006A
:0400000508000105E9
:00000001FF
