:020000040800F2
:105C0000C83C0020B15D000821700008BB5D0008A1
:105C10001D700008FD62000801730008000000000C
:105C2000000000000000000000000000195D0008F6
:105C300055680008000000005D5D0008D570000890
:105C4000CB5D0008CB5D0008CB5D0008CB5D000894
:105C5000CB5D0008CB5D0008CB5D0008CB5D000884
:105C6000CB5D0008CB5D0008CB5D0008CB5D000874
:105C7000CB5D0008CB5D0008CB5D0008CB5D000864
:105C8000CB5D0008CB5D0008CB5D0008CB5D000854
:105C9000CB5D0008CB5D0008CB5D0008CB5D000844
:105CA000CB5D0008CB5D0008CB5D0008CB5D000834
:105CB000B5710008CB5D0008CB5D0008B56C00082D
:105CC000116C0008CB5D0008CB5D0008CB5D0008BF
:105CD000CB5D0008C5720008CB5D0008CB5D0008F5
:105CE000CB5D0008CB5D0008CB5D00080000000024
:105CF00000000000000000000000000000000000A4
:105D0000CB5D0008DFF80CD000F0BAF8004800477F
:105D1000FD840008C83C0020224B19680868B0E8E0
:105D2000F00F80F30988BFF36F8F4FF0000080F30E
:105D300011884EF00D0E7047000000000648006804
:105D4000006880F3088862B661B6BFF34F8FBFF377
:105D50006F8F00DF00BF00BF08ED00E0EFF30980A8
:105D6000BFF36F8F0F4B1A6820E9F00F106008B572
:105D70004FF0500080F31188BFF34F8FBFF36F8F48
:105D800003F01AFF4FF0000080F31188BDE80840CF
:105D900019680868B0E8F00F80F30988BFF36F8FC7
:105DA000704700BFFC010020EFF305807047000042
:105DB0000648804706480047FEE7FEE7FEE7FEE7A5
:105DC000FEE7FEE7FEE7FEE7FEE7FEE709710008F3
:105DD000055D000840EA01039B0703D009E008C9FC
:105DE000121F08C0042AFAD203E011F8013B00F8A0
:105DF000013B521EF9D27047D2B201E000F8012BEC
:105E0000491EFBD270470022F6E710B513460A463A
:105E100004461946FFF7F0FF204610BD2DE9F05F5C
:105E20000546002092469B46884606468146402409
:105E30001BE0284641464746224600F042F85346BA
:105E40005A46C01A914110D311461846224600F016
:105E500029F82D1A67EB01084F4622460120002140
:105E600000F020F817EB00094E41201EA4F10104B8
:105E7000DFDC484631462A464346BDE8F09F000035
:105E8000064C074D06E0E06840F0010394E8070087
:105E900098471034AC42F6D3FFF738FFBCA1000896
:105EA000DCA10008202A04DB203A00FA02F10020DD
:105EB00070479140C2F1200320FA03F31943904048
:105EC0007047202A04DB203A21FA02F000217047B3
:105ED00021FA02F3D040C2F1200291400843194652
:105EE000704770B58C1810F8015B15F0070301D1ED
:105EF00010F8013B2A1106D110F8012B03E010F82D
:105F0000016B01F8016B5B1EF9D12B0705D400234F
:105F1000521E0DD401F8013BFAE710F8013BCB1AF1
:105F2000921C03E013F8015B01F8015B521EF9D5E6
:105F3000A142D8D3002070BD70B504460D4600BF05
:105F400040F20161294802F017F90028F8D12748EA
:105F500002F098F900BF4FF4A061244802F00CF958
:105F60000028F8D06FF001027821204802F072F981
:105F700000BF40F201511D4802F0FEF80028F8D0A1
:105F800040F20151194802F0E3F800BF40F2075116
:105F9000164802F0F1F80128F8D12146134802F022
:105FA000CFF800BF40F20751104802F0E5F8002892
:105FB000F8D005B1032529460C4802F0C1F800BF0E
:105FC00040F20751094802F0D7F80028F8D00748F6
:105FD00002F05DF900BF0548006800F40070002879
:105FE000F9D10021252000F033F970BD00580040A0
:105FF00010B5002400BF40F201612B4802F0BCF84C
:106000000028F8D1284802F03DF900BF4FF4A06104
:10601000254802F0B1F80028F8D06FF0010278218D
:10602000214802F017F900BF40F201511E4802F06A
:10603000A3F80028F8D040F201511B4802F088F87C
:1060400000BF40F20751184802F096F80128F8D135
:106050002621154802F074F800BF40F2075112489B
:1060600002F08AF80028F8D000240CE003210E4842
:1060700002F066F800BF40F207510B4802F07CF8CE
:106080000028F8D0641C242CF0DB074802F0FFF84D
:1060900000BF0548006800F400700028F9D1002115
:1060A000252000F0D5F810BD0058004010B50024A0
:1060B00000BF40F201612B4802F05EF80028F8D1E1
:1060C000284802F0DFF800BF4FF4A061254802F035
:1060D00053F80028F8D06FF001027821214802F02F
:1060E000B9F800BF40F201511E4802F045F80028FF
:1060F000F8D040F201511B4802F02AF800BF40F2EC
:106100000751184802F038F80128F8D1262115481F
:1061100002F016F800BF40F20751124802F02CF8C6
:106120000028F8D000240CE000210E4802F008F806
:1061300000BF40F207510B4802F01EF80028F8D0CB
:10614000641C242CF0DB074802F0A1F800BF0548CE
:10615000006800F400700028F9D10021252000F02B
:1061600077F810BD0058004070B50446002500BF08
:1061700040F201612B4801F0FFFF0028F8D12948C7
:1061800002F080F800BF4FF4A061264801F0F4FF50
:106190000028F8D06FF001027821224802F05AF866
:1061A00000BF40F201511F4801F0E6FF0028F8D07F
:1061B00040F201511B4801F0CBFF00BF40F20751F4
:1061C000184801F0D9FF0128F8D10121154801F044
:1061D000B7FF00BF40F20751124801F0CDFF002881
:1061E000F8D000250CE021460E4801F0A9FF00BFC1
:1061F00040F207510B4801F0BFFF0028F8D06D1C9A
:10620000242DF0DB074802F042F800BF0548006883
:1062100000F400700028F9D10021252000F018F8C2
:1062200070BD00000058004010B540F2036002F05D
:10623000C3FD4FF4805303221021044801F07AFD7E
:106240004FF48051014801F073FD10BD000C014076
:1062500070B504460D4600BF40F20161264801F0CA
:106260008BFF0028F8D1244802F00CF800BF4FF44F
:10627000A061214801F080FF0028F8D06FF00102F2
:1062800078211D4801F0E6FF00BF40F201511A4895
:1062900001F072FF0028F8D040F20151164801F0D9
:1062A00057FF00BF40F20751134801F065FF012876
:1062B000F8D12146104801F043FF00BF40F20751DA
:1062C0000D4801F059FF0028F8D029460A4801F08E
:1062D00037FF00BF40F20751074801F04DFF00288B
:1062E000F8D0054801F0D3FF00BF0348006800F470
:1062F00000700028F9D170BD0058004000BFFEE7D3
:1063000000207221AD4A1170262151701321917025
:10631000522111712722A9494A7116228A714221FC
:10632000A64A11722822A5494A7218228A725A2155
:10633000A24A11732922A1494A730D228A73582156
:106340009E4A11742A229D494A7415228A7470212A
:106350009A4A11752B2299494A7512228A75502141
:10636000964A11762C2295494A7617228A76602120
:10637000924A11772D2291494A7714228A7748212F
:106380008E4A82F820102E228C4981F82120112279
:1063900081F822204021894A82F824102F2287493F
:1063A00081F825200E2281F826206821834A82F870
:1063B00028103022814981F829200F2281F82A20D3
:1063C0005B217E4A82F82C1031227C4981F82D20F5
:1063D000062281F82E206B21784A82F83010322272
:1063E000764981F83120052281F832207321734AE1
:1063F00082F834103322714981F83520042281F863
:10640000362053216D4A82F8381034226B4981F8C6
:106410003920032281F83A206321684A82F83C102F
:106420003522664981F83D20022281F83E204B2129
:10643000624A82F840103622604981F841200122E8
:1064400081F8422043215D4A82F8441037225B499B
:1064500081F845201D2281F846204121574A82F8C3
:1064600048103822554981F849201E2281F84A20D7
:106470004921524A82F84C103922504981F84D2066
:10648000072281F84E2061214C4A82F850103A22AE
:106490004A4981F85120082281F852205121474A67
:1064A00082F854103B22454981F85520092281F891
:1064B00056207121414A82F858103C223F4981F808
:1064C00059200A2281F85A2069213C4A82F85C103E
:1064D0003D223A4981F85D200B2281F85E20592146
:1064E000364A82F860103E22344981F861200C223D
:1064F00081F862206221314A82F864103F222F49DC
:1065000081F86520102281F866206A212B4A82F8E2
:1065100068104022294981F86920192281F86A20EF
:106520006421264A82F86C104122244981F86D20AA
:106530001F2281F86E204A21204A82F870104222E0
:106540001E4981F871201A2281F8722054211B4AB9
:1065500082F874104322194981F87520202281F8AD
:1065600076204C21154A82F878104422134981F88C
:1065700079201B2281F87A205C21104A82F87C1055
:1065800045220E4981F87D20212281F87E20442178
:106590000A4A82F880104622084981F881201C228C
:1065A00081F8822000BF05E00021044A02EB80024E
:1065B000D170401C2128F7DB70470000C802002082
:1065C00010B502460B460020002104E0545C044450
:1065D000E0B24C1CE1B25C1E8C42F7DC10BD000046
:1065E00070B50546A5F13000052804D2DFE800F0BB
:1065F0000A1A20263500294620A000F083FE00F06C
:10660000AFF800BF27A000F07DFE2948016829A04F
:1066100000F078FE29A000F075FE042130A000F003
:1066200071FE29E033A000F06DFEFFF7E1FC23E0EE
:1066300036A000F067FEFFF739FD1DE001F030FBEA
:106640000446642C01DA601DC4B2214636A000F075
:1066500059FE204602F00AFD0EE001F021FB04463F
:10666000052C01DB601FC4B2214636A000F04AFEB3
:10667000204602F0FBFC00BF00BF70BD4552524FE8
:10668000523A20436F6D6D616E6420556E6B6E6F74
:106690007720636D64203D20307825782121210DFD
:1066A0000A0000002A4672656552544F532A2000A2
:1066B0002001002025730D0A000000004175746858
:1066C0006F723A4A432644615A6869203C76783AA8
:1066D0003238353430383133363E0D0A0000000090
:1066E00056657273696F6E203A20253032640D0A48
:1066F000000000004154393233365F4C45445F6C32
:1067000069676874416C6C0D0A00000041543932AD
:1067100033365F4C45445F6C69676874416C6C5FED
:106720004F46460D0A0000007365745F6B65796C17
:106730006564735F70776D202B2B2B2025640D0A09
:10674000000000007365745F6B65796C6564735F4E
:1067500070776D202D2D2D2025640D0A000000007E
:1067600010B50BA000F0CEFD0DA000F0CBFD14A0E5
:1067700000F0C8FD18A000F0C5FD1DA000F0C2FD8E
:1067800022A000F0BFFD28A000F0BCFD10BD00005D
:106790000D0A446562756720636D643A0D0A000056
:1067A000302E207072696E742050726F6772616D46
:1067B000206275696C642074696D650D0A000000C3
:1067C000312E206B65795F4C4544735F6C69676857
:1067D00074416C6C0D0A0000322E206B65795F4CA1
:1067E0004544735F4F6666416C6C0D0A0000000003
:1067F000332E206B65795F4C45447320736574209C
:1068000050574D202B2B2B2B200D0A00342E206BA4
:1068100065795F4C454473207365742050574D2053
:106820002D2D2D2D200D0A006F746865722E20709D
:1068300072696E742068656C700D0A0010B50448AA
:1068400002F004FFC4B22046FFF7CAFE10BD0000EC
:1068500000380140704700001D204C49087001209D
:106860004870022088700320C87004200871052039
:106870004871062088710E20C871112008721420FA
:106880004872172088720D20C872152008731220D4
:1068900048730F2088731020C873132008741620C3
:1068A0004874182088741920C874272008751A2085
:1068B00048751B2088752120C875202008761F2068
:1068C00048760C2088760B20C8760A2008770920A5
:1068D0004877082088770720C8771E2081F8200095
:1068E000222081F82100232081F82200242081F831
:1068F0002300262026490870272048702820887009
:106900002920C8702A2008712B2048712C208871FA
:106910003420C87146200872412048723C20887299
:106920003B20C87240200873452048733520887387
:106930003620C873442008743F2048743A20887475
:106940003720C874432008753E2048753920887563
:106950003820C8753D200876422048763320887656
:106960003220C87631200877302048772F2088776A
:106970002E20C8772D2081F82000262081F82100C4
:1069800081F8220081F82300704700004C030020AA
:106990007C0300201D204C49087001204870022013
:1069A00088700320C87004200871052048710620F3
:1069B00088710E20C87111200872142048721720A7
:1069C00088720D20C87215200873122048730F209A
:1069D00088731020C8731320087416204874182078
:1069E00088741920C874272008751A2048751B2040
:1069F00088752120C875202008761F2048760C2035
:106A000088760B20C8760A20087709204877082066
:106A100088770720C8771E2081F82000222081F87F
:106A20002100232081F82200242081F82300262041
:106A30002649087027204870282088702920C870AF
:106A40002A2008712B2048712C2088712D20C871B4
:106A500031200872362048723C2088723B20C87270
:106A600037200873322048732E2088732F20C87374
:106A7000332008743F2048743A2088743020C8744A
:106A8000342008753E204875392088753820C8752F
:106A90003D20087635204876402088764120C8760B
:106AA0004220087743204877442088774520C877DC
:106AB000462081F82000262081F8210081F822005C
:106AC00081F82300704700004C0300207C03002065
:106AD0001D204D4908700120487002208870032055
:106AE000C8700420087105204871062088710E20A6
:106AF000C8711120087214204872172088720D2066
:106B0000C87215200873122048730F208873102054
:106B1000C87313200874162048741820887419202C
:106B2000C874272008751A2048751B2088752120F5
:106B3000C875202008761F2048760C2088760B2008
:106B4000C8760A2008770920487708208877072028
:106B5000C8771E2081F82000222081F82100232000
:106B600081F82200242081F823002620274908707C
:106B700027204870282088702920C8702A20087192
:106B80002B2048712C2088712D20C871312008726B
:106B9000362048723C2088723B20C8723720087328
:106BA000322048732E2088732F20C8733320087436
:106BB0003F2048743A2088743020C8743420087507
:106BC0003E204875392088753820C8753D200876E4
:106BD00035204876402088764120C87642200877C4
:106BE00043204877442088774520C877462081F89D
:106BF0002000472081F82100492081F82200482008
:106C000081F82300704700004C0300207C03002023
:106C100010B52049204801F0EFFA18B11D491E486F
:106C200001F0D4FA1D491C4801F0E6FA18B11B49DD
:106C3000194801F0CBFA1A49174801F0DDFA18B1EA
:106C40001749154801F0C2FA1649134801F0D4FA61
:106C500018B11449104801F0B9FA13490E4801F06F
:106C6000CBFA18B110490C4801F0B0FA0F490A48A4
:106C700001F0C2FA18B10D49074801F0A7FA0C4912
:106C8000054801F0B9FA18B10949034801F09EFA24
:106C900010BD000008010A050054004008010F055E
:106CA00008010E0508010B05080109050801080582
:106CB00008010C0510B55F495F4801F09DFA50B11D
:106CC00000205E4908705B495B4801F07FFA0020B4
:106CD0005B4908709DE05B49574801F08DFAA8B107
:106CE000002056490870544801F026FA56490A789F
:106CF000891C8854891E0978481CC11700EB9161D2
:106D00008911A0EB8111504A117082E04F494A4825
:106D100001F072FA00283CD04D49474801F06CFA66
:106D2000002836D1464800784A49097888422BDA4B
:106D3000434802780078401C414B18704648815CFB
:106D40003D4801F0FDF93E48007842490978884203
:106D50005FD1002040498870C870087148718871FF
:106D6000012036490870002211463C48006802F0B4
:106D700065FE00203249087036480078072848DD53
:106D800007203449087044E000212B4801F0D8F96D
:106D90003FE03349284801F02FFA20B3264801F09C
:106DA000D2F94FF48471244801F0F5F94FF485715C
:106DB000214801F0F0F940F209111F4801F0EBF908
:106DC000002211462748006802F038FE01201B49C6
:106DD0000870002211462148006802F02FFE0020B2
:106DE0001749087015E02049134801F005FA20B151
:106DF0001D49114801F0EAF90BE014490E4801F071
:106E0000FBF930B111490C4801F0E0F900200C49C0
:106E100008704FF48471084801F0CAF940F2091172
:106E2000054801F0C5F94FF48571034801F0C0F938
:106E300010BD000009010105005400405A01002066
:106E40005E01002009010605440200200901070532
:106E500008010A055C010020330100202C010020FC
:106E600009010405240100200901020510B540F2C2
:106E7000026001F0A1FF0421044800F059FF04233F
:106E800002221021014800F055FF10BD000801400A
:106E900010B5012206211F2001F0D4FB012206219A
:106EA000202001F0CFFB4FF48471074801F080F9F6
:106EB00040F20911044801F07BF94FF48571024852
:106EC00001F076F910BD00000054004010B540F20A
:106ED000157001F071FF00220849094801F0BAF865
:106EE000802300221146064801F0BEF9044801F053
:106EF0002AF90121024801F0A1F810BDA086010085
:106F00000054004010B540F2036001F055FF4FF40B
:106F1000C06001F051FF0121022000F069FF4FF431
:106F2000407303221C21024800F004FF10BD000042
:106F3000000C014010B5FFF7E5FFFFF7C7FFFFF7B3
:106F4000A7FF10BD10B540F2167001F035FF00220A
:106F50000849094801F07EF8AC2300221146064892
:106F600001F082F9044801F0EEF80121024801F035
:106F700065F810BDA08601000058004010B540F231
:106F8000036001F019FF4FF4406303221C21024803
:106F900000F0D0FE10BD0000000C014010B5FFF75E
:106FA000EDFFFFF7CFFFFFF7ABF900214F20FFF711
:106FB0004FF901210020FFF74BF900214A20FFF78C
:106FC00047F901214B20FFF743F9042002F04EF866
:106FD000FFF70EF810BD000010B5044624B11021D3
:106FE000044800F0A5FE03E01021024800F09EFED8
:106FF00010BD0000000C014010B540F2036001F02C
:10700000DBFE102303221946034800F093FE1021F3
:10701000014800F08DFE10BD000C014000BFFEE7EE
:107020007047000010B540F2046001F0C5FE4FF457
:10703000C06001F0C1FE072302221021034800F0C6
:1070400079FE07200149086110BD000000100140D1
:107050000721104A1161282806D0292808D02A289B
:107060000AD02B2810D10BE001210A4A51610FE010
:107070000221084A51610BE00421064A516107E0F0
:107080000721044A516103E00721024A116100BF50
:1070900000BF704700100140282806D0292808D0DA
:1070A0002A280AD02B280CD10CE00121084A1161B2
:1070B0000CE00221064A116108E00421044A116132
:1070C00004E000BF0721024A116100BF00BF704702
:1070D0000010014010B500BF502080F31188BFF3AD
:1070E0004F8FBFF36F8F00BF02F036FF18B14FF024
:1070F00080500449086000BF002080F3118800BF61
:1071000010BD000004ED00E010B51448006840F028
:1071100001001249086008464068114908400F49BB
:107120004860084600680F4908400C490860084656
:10713000006820F480200860084640680A4908403A
:107140000649486008460068064908400349086047
:107150004FF41F00886001F0F3FF10BD00100240E3
:107160000C00FFE8FFFFF6FEFFFF00F77FB50546C6
:107170000C464FF4E06001F01FFE684602F0C6F9CD
:107180000295ADF8004069464FF0804002F03AF9B0
:107190004FF0804002F02CF90121880702F0A6F997
:1071A000002207211C2001F04DFA0121880702F07E
:1071B00099F97FBD38B5002500200090012188078E
:1071C00002F098F9002873D00121880702F08EF9A7
:1071D0003848007800F001008DF80000354800784C
:1071E00000F002008DF801003248007800F0040041
:1071F0008DF802002F48007800F008008DF8030099
:107200002D4890F82A00042813DA2B4890F82A0019
:107210002A49085C60BB284890F82A001DF8000045
:1072200008B1012000E0002001462B2000F0ECFA1C
:107230001EE000241AE02048005D042812DA1E48EF
:10724000005D1E49085C78B91B4A125D1DF80220DA
:107250000AB1012200E000221146621CD0B200F007
:10726000D3FA01E0681CC5B2601CC4B2292CE2DB71
:10727000002416E01148005D401C104908550846DE
:10728000005D0F49095D884209DB00200B49085564
:107290000120A04007490978484006490870601C51
:1072A000C4B2042CE6DB2A2D02D1680702F0A0F854
:1072B00038BD0000C9010020D0030020C501002016
:1072C00098A1000810B50B490B4802F04FFA30B1F5
:1072D000FFF7B4FA0749084802F03BFA08E007490B
:1072E000054802F043FA18B10449034802F031FAA4
:1072F00010BD000005030500003801400403040030
:1073000000BFFEE70FB4054B10B503A9044A02986D
:1073100000F018F810BC5DF814FB0000257B000895
:107320004002002002E008C8121F08C1002AFAD15A
:1073300070477047002001E001C1121F002AFBD1F5
:10734000704700002DE9FF4F8DB00F46054600261F
:1073500006E025280BD0DDE90F1290476D1C761C46
:1073600028780028F5D111B03046BDE8F08F002410
:10737000A246A1460122EC4900E0044315F8013F72
:10738000203B02FA03F00842F7D128782A2810D0CF
:107390006FF02F022878A0F13001092914D80AEBE8
:1073A0008A0102EB410144F0020400EB010A6D1C6A
:1073B000F0E701CF5FEA000A03D544F40054CAF1B4
:1073C000000A44F002046D1C28782E2817D115F805
:1073D000010F44F004042A280ED06FF02F02287801
:1073E000A0F1300109290AD809EB890102EB41011A
:1073F00000EB01096D1CF2E757F8049B6D1C28781F
:107400006C280FD006DC4C2817D068280DD06A28CD
:1074100014D104E0742810D07A280FD10DE044F480
:1074200000140AE044F4801401E044F44014697844
:10743000814202D104F580146D1C6D1C2A786E2ADD
:107440001FD00CDC632A31D004DC002A8BD0582AF0
:1074500011D1A3E0642A68D0692A0CD165E0732AAF
:107460002ED004DC6F2A73D0702A04D19BE0752AD9
:107470006FD0782A6ED01046DDE90F129047761C47
:1074800050E1C4F30250022806D0032809D0042892
:1074900001CF09D0066045E101CFF117C0E90061D5
:1074A00040E101CF06803DE106703BE117F8040B97
:1074B0008DF8000000208DF80100EB46012003E06C
:1074C00057F804BB4FF0FF3061074FF0000102D4C2
:1074D0000DE008F10101884649450FDA8045F8DBE7
:1074E0001BF808100029F4D108E008F101018846D2
:1074F0008142FADB1BF808100029F6D1DDE90F23E1
:10750000AAEB08008146214600F036F9304400EB32
:10751000080604E0DDE90F121BF8010B9047B8F1F3
:107520000108F7D221464846F7E00A21C4F3025386
:107530004FF0000B0891022B04D001CFC117032B91
:1075400009D00AE0FF1D27F00707F7E8020108E06D
:1075500032E01FE020E000B2C117042B01D140B29D
:10756000C117031E71F1000307DA4FF0000CD0EBD6
:107570000C006CEB01012D2302E0230504D52B2325
:107580008DF82430012303E0E30701D02023F7E73F
:10759000984658E00A2110E010210EE010204FF02C
:1075A000000B08900CE010214FF0000B44F0040495
:1075B0004FF00809089103E008214FF0000B0891F3
:1075C000C4F30253022B04D001CF0021032B06D0B9
:1075D00006E0FF1D27F00707F7E8020103E080B28D
:1075E000042B00D1C0B24FF0000823072BD5702A1E
:1075F00007D0DDF820C08CF0100C5CEA0B0C05D035
:107600000EE040238DF82430012308E050EA010306
:1076100006D030238DF824308DF82520022398469B
:10762000DDF820C08CF0080C5CEA0B0C0BD150EAA2
:10763000010301D1630706D530238DF824304FF0C4
:107640000108A9F10109582A04D038A20B9208AA0E
:107650000A920BE03AA2F9E75B46089AFEF7DEFBD6
:107660000B9B9B5C0A9A521E0A92137050EA01020D
:10767000F2D10A98ADEB000000F1200B600702D5B3
:1076800024F4803401E04FF00109D94502DDA9EB73
:107690000B0000E0002000EB0B0141440890AAEB36
:1076A000010AE00306D4DDE90F232146504600F02D
:1076B00063F806444FF0000908E009A911F8090031
:1076C000DDE90F12904709F10109761CC145F4DB91
:1076D000E0030CD5DDE90F232146504600F04CF8BD
:1076E000064404E0DDE90F1230209047761C08992B
:1076F000481E08900029F5DC08E00A980A990078ED
:10770000491C0A91DDE90F129047761CBBF100017C
:10771000ABF1010BF1DC21465046DDE90F2300F00F
:1077200019F806446D1C1BE609280100303132337C
:1077300034353637383961626364656600000000AD
:107740003031323334353637383941424344454697
:10775000000000002DE9F041044600251E461746B2
:10776000880404D405E039462020B0476D1C641E0F
:10777000F9D52846BDE8F0812DE9F0410446002501
:107780001E469046C80301D5302700E02027880414
:1077900004D505E041463846B0476D1C641EF9D556
:1077A0002846BDE8F081000010B54FF4407000F0AD
:1077B0009FFF00F017FA00F00BFA0020084908704C
:1077C000487008490870487000F04AFE01F024FB38
:1077D00001F002FC00F028FE03A0FFF793FD10BDAE
:1077E000440200208602002073797320696E697458
:1077F0002066696E69736820323032332D30342D43
:1078000030360D0A000000002DE9F04104460D4617
:107810005A27002C15DD282C13DA204600F094F8A6
:107820000646262E08DB14480078864204DC2946EA
:107830003046FEF781FB03E0A5273846BDE8F0811E
:1078400018E0282C0ADB2A2C08DC1DB92046FFF79B
:1078500023FC0FE02046FFF7FBFB0BE02B2C06D1AF
:1078600015B9FEF723FC05E0FEF7C2FB02E0A527F1
:107870003846E3E73846E1E73201002000F052FDE8
:1078800005A0FFF73FFD00BF00F048FD4FF4FA7080
:1078900002F0B0F8F8E70000666565645F7774672A
:1078A0005F7461736B2073746172740D0A00000061
:1078B000F8B504460D4616461F4621480178801C3F
:1078C0004454811E0978481CC11700EB916189114D
:1078D000A0EB81111A4A117010460178801C4554A2
:1078E000811E0978481CC11700EB91618911A0EB3A
:1078F0008111117010460178801C4654811E097850
:10790000481CC11700EB91618911A0EB8111117026
:1079100010460178801C4754811E0978481CC11705
:1079200000EB91618911A0EB8111117000200223FD
:107930000246014600900348006802F013FAF8BDC1
:10794000860200202C0100200246002107E00748A3
:10795000405C904202D10648405C7047491C054893
:1079600000788142F3DB0020F7E700004C030020A1
:107970007C0300203001002000B50346012200BF37
:1079800000F00CF802465B1E012A01D1002BF7D152
:10799000012A00D10422104600BD000000200A493F
:1079A000C96801F0010109B101200CE00649C9686C
:1079B00001F0100109B1032005E00349C96801F095
:1079C000040101B1022070470020024000B50346C7
:1079D000012200BF00F00CF802465B1E012A01D113
:1079E000002BF7D1012A00D10422104600BD00006F
:1079F00000200A49C96C01F0010109B101200CE025
:107A00000649C96C01F0100109B1032005E00349E2
:107A1000C96C01F0040101B102207047002002404E
:107A200070B504460D4600262A480088B0F5007F50
:107A300035D22948844219D24FF47020FFF79CFFB9
:107A40000646002E43D12548006940F00100234935
:107A5000086125804FF47020FFF78EFF06461F480F
:107A6000006920F001001D49086130E04FF47020EA
:107A7000FFF7ACFF064656BB1848006D40F001000A
:107A80001649086525804FF47020FFF79FFF0646D2
:107A90001248006D20F001001049086517E04FF40E
:107AA0007020FFF769FF06468EB90C48006940F068
:107AB00001000A49086125804FF47020FFF75CFF40
:107AC00006460648006920F0010004490861304676
:107AD00070BD0000E0F7FF1FFFFF07080020024015
:107AE0000C48006900F0800020B10B48094948604B
:107AF0000A4848600A480088B0F5007F09D905485F
:107B0000006D00F0800020B103480249486403483A
:107B1000486470470020024023016745AB89EFCDE0
:107B2000E0F7FF1F70B504460D46E1B2054801F0CD
:107B300092FD00BF0721034801F0DFFD0028F9D0C6
:107B4000204670BD0038014030B502460B46164C49
:107B5000002145F25550154D286000BF1348C068FC
:107B600000F00101601E041E01D00029F6D109B108
:107B7000002030BD0D4843600B4C00BF0B48C0686F
:107B800000F00201601E041E01D00029F6D109B1E7
:107B90000020EEE7C2F30B00044DA8604AF6AA20CD
:107BA00028600120E5E70000FFFF0F0000300040E3
:107BB0004AF6AA20014908607047000000300040E2
:107BC00045F2555001490860704700000030004000
:107BD00010B5FEF729FBFFF725FAFFF70DFAFFF7BF
:107BE00045F910BD10B540F2026001F0E5F840F231
:107BF0000E6001F0E1F84FF40073032218211E48D3
:107C000000F098F84FF48063032204211A4800F032
:107C100091F81A4801F024FD4FF4E131174801F0C2
:107C2000CDFC0021154801F0DDFD0021134801F0D5
:107C3000C9FD0021114801F0B5FD00210F4801F0F8
:107C400073FD00210D4801F067FD04210B4801F090
:107C5000B1FD0821094801F0BDFD084801F048FDCB
:107C600040F20531054801F067FD0022072125207B
:107C700000F0E8FC10BD00000008014000380140A1
:107C800010B50446044A52F82410044A52F824005D
:107C900000F0A6F810BD00009000002000000020B9
:107CA00001480078704700005F01002016A0FFF730
:107CB00029FB1A48006840884FF6FF71884205D1B9
:107CC000FFF70EFFFF211648FFF7AAFE00BF00BF17
:107CD00000BF00BF00BFBFF34F8F00BF00BF00BF9A
:107CE0001048006800F4E0600F490843001D0D498A
:107CF000086000BF00BF00BFBFF34F8F00BF00BFD1
:107D000000BF00BF00BFFDE7676F746F5F6F7461F6
:107D10005F757064617465200D0A0000CC0100205D
:107D2000025800080CED00E00000FA0541617047C0
:107D300001617047F0B5044616460025002201F0A7
:107D40000F0501F0100707B1354300201EE00127A1
:107D500087401F40C7B122684FEA800C0F2707FAFF
:107D60000CF7BA43870005FA07F73A43282904D1EC
:107D7000012787401F40676105E0482903D101279B
:107D800087401F4027612260471CB8B20828DED315
:107D9000082022E0012787401F40E7B16268A0F178
:107DA00008074FEA870C0F2707FA0CF7BA43A0F130
:107DB0000807BF0005FA07F73A43282904D101272D
:107DC00087401F40676105E0482903D101278740AC
:107DD0001F4027616260471CB8B21028DAD3F0BD9B
:107DE00002469068084008B1012070470020FCE777
:107DF000F0B50A46002300240021002500F00046CB
:107E0000B6F1004F02D11D4EF16901E01B4E7168C1
:107E1000C0F3034583B200F44016B6F5401F08D105
:107E200021F07061154E766826F07066134F7E6003
:107E300012E000F48016B6F5801F06D1032606FA7C
:107E400005F4A14341F0706106E0460D360103FAE6
:107E500006F6B14341F0706122B1460D360103FAD6
:107E600006F6314300F00046B6F1004F02D1034E52
:107E7000F16101E0014E7160F0BD000000000140C1
:107E80007CB50446424909784031414A5278881A03
:107E9000C11700EB91618911A0EB8111CEB2052EC3
:107EA00001DA00207CBD00252FE039484178801C94
:107EB000405C207036494978481CC11700EB91613D
:107EC0008911A0EB8111324A5170207855281AD1BE
:107ED00000BF2F484178801C405C60702C49497875
:107EE000481CC11700EB91618911A0EB8111284A50
:107EF0005170681CC5B26078AA2800D107E060788C
:107F0000552800D1E5E7681CC5B2B542CDDB00BFFE
:107F100002E0032001F06EFD1D49097840311C4A42
:107F20005278881AC11700EB91618911A0EB811179
:107F30000329EEDB022511E015484178801C405CE6
:107F4000605513494978481CC11700EB91618911AC
:107F5000A0EB81110E4A5170681CC5B2052DEBDBF8
:107F600005212046FEF72CFB217988420ED009A07E
:107F7000FFF7C8F92079E178CDE90010A37862789D
:107F800021780AA0FFF7BEF900208BE7304689E789
:107F90004402002069326320726563762064617454
:107FA00061206572726F720D0A0000006461746175
:107FB0005B305D203D202523782C5B315D3D202505
:107FC00023782C5B325D3D202523782C5B335D3D8F
:107FD000202523782C5B345D3D202523780D0A0075
:107FE00030B50246144C24784034134D6D78601B34
:107FF000C41700EB9464A411A0EB8414E3B2042B27
:1080000001DA002030BD002111E00B484478801CCB
:10801000005D5054084C6478601CC41700EB9464F5
:10802000A411A0EB8414044D6C70481CC1B2042947
:10803000EBDB0420E6E7000086020020012904D1E2
:10804000026842F48062026003E0026822F4806207
:10805000026070472DE9F05F04460E469346022009
:1080600000F018FE07463148B7FBF0F9B9F13F0FB1
:1080700001D34FF03F09D4F804A02AF03F0A4AEA9E
:10808000090AC4F804A02A4886421ED82748B7FB2C
:10809000F0F000F10108B8F13F0F02D33F20206259
:1080A00007E0B8F1020F02D80220206201E0C4F814
:1080B00020807000B7FBF0F5042D00D20425E069A4
:1080C000C5F30B010843E0612EE01A4886422BD825
:1080D0004FF4967009FB00F04FF47A71B0FBF1F0A9
:1080E000401C2062BBF1000F08D106EB4600B7FB35
:1080F000F0F5E06920F48040E06109E006EBC6009D
:1081000000EB0610B7FBF0F5E06940F48040E06159
:10811000C5F30B0008B945F00105E06940F40040E3
:10812000E061E0692843E061BDE8F09F40420F0054
:10813000A0860100801A060001460869C0B2704797
:10814000CAB202617047016841F0010101607047E5
:1081500010B540F20152914202D1426982690AE0AF
:1081600000EB9112126801F01F040123A3409A430F
:1081700000EB91131A6010BD10B5024602EB91108E
:10818000006801F01F040123A340184008B101203A
:1081900010BD0020FCE710B500EB9112126801F051
:1081A0001F040123A3409A4300EB91131A6010BDF2
:1081B00010B500EB9112126801F01F040123A340D7
:1081C0001A4300EB91131A6010BD000010B5094A64
:1081D000914202D1426982690AE000EB9152126831
:1081E000C1F304440123A3409A4300EB91531A6066
:1081F00010BD000009010105F0B50246002300246E
:10820000506800F48065C1F38910105801F01F0711
:108210000126BE4000EA060302EB91500068C1F35C
:1082200004470126BE4000EA06040848814202D005
:108230000748814204D113B10DB1012300E00023AE
:1082400014B10BB10120F0BD0020FCE709010605C7
:108250000901070512F1020F02D121F0010101E02D
:1082600041F001010161704730B50C460021016801
:1082700021F0020121430160C3F3090342EA03052F
:10828000856030BD016841F480710160704701680C
:1082900041F400710160704710B5044620780B4925
:1082A00088706078C870A0780871E07848710721FC
:1082B0000648FEF785F90549887104210448FFF74F
:1082C00035FD04210248FFF733FD10BD33010020C6
:1082D000000801401CB50020009001901BE04FF009
:1082E000FF321146002001F01DF90FE000BF0A48DF
:1082F000007830B10020084908706846FFF7CCFFCD
:1083000003E00A2001F076FBF1E700BF6846FFF7C3
:1083100067FE0028EADCE2E75A01002010B5FFF70B
:1083200047FC10BD10B5FFF74BFC042140F6FF7071
:10833000FFF70AFC10BD00001CB5FEF72FFEFDF78D
:10834000DFFF00214F20FDF783FF01210020FDF713
:108350007FFF00214A20FDF77BFF01214B20FDF725
:1083600077FF042000F082FEFDF742FE13A0FEF727
:10837000C9FF00BF4FF0FF3001AB00221146009053
:10838000104601F08BFD0198C5B20198C0F3072497
:10839000202D04D0602D06D0702D0ED108E020468F
:1083A00000F064FE09E00121204600F015F804E029
:1083B0000021204600F010F800BFDBE76B65795F15
:1083C0006C696768745F636F6E74726F6C5F746101
:1083D000736B0D0A0000000070B504460E462B2C8E
:1083E00000DC04B970BD2B2C0DD14FF0804000F0A3
:1083F000FFFF002504E005200A494855681CC5B266
:108400002B2DF8DB03E00521601E064A11540EB146
:10841000012000E0002001462046FFF7F5F900BFEB
:10842000E0E70000D003002070B50B48006842F27E
:108430001071B0FBF1F0401E85B2294640F2E730E2
:10844000FEF794FE002404E0052004490855601C52
:10845000C4B22B2CF8DB70BD3C020020D0030020FE
:1084600010B540F2046000F0A7FC40F2056000F097
:10847000A3FC40F2066000F09FFC4FF6F873032265
:1084800048210948FFF756FC4FF6FF7303224821A5
:108490000648FFF74FFC41F6FF73032248210448CA
:1084A000FFF748FC10BD000000100140001401401F
:1084B0000018014070B504460D462B2C00DC04B9B1
:1084C00070BD05F0030504F03F00401EC4B22B2C24
:1084D00010DA4FF0804000F090FF2A2C08D10026DF
:1084E00003E005488555701CC6B22B2EF9DB01E070
:1084F0000148055500BFE3E7D00300201CB54FF449
:10850000B8414FF0006000F0FDF8FFF74DF925A0ED
:10851000FEF7F8FE2948016829A0FEF7F3FE2AA01D
:10852000FEF7F0FE0020012103462022CDE90010D5
:108530002EA1314801F0E6FB304804210023C0227F
:10854000CDE900102EA1304801F0DCFB0020032112
:1085500003468022CDE900102CA12E4801F0D2FB69
:108560002D48022100238022CDE900102BA12D48A7
:1085700001F0C8FB2C48042100238022CDE9001023
:108580002AA12D4801F0BEFB002002210346402213
:10859000CDE9001029A12A4801F0B4FB01F0C4FA8A
:1085A00000BFFEE76672656572746F73202C2069E8
:1085B0006E6974206F6B21210D0A000020010020DC
:1085C00025730D0A00000000417574686F723A4A05
:1085D000432644615A6869203C76783A323835340B
:1085E00030383133363E0D0A000000005461736BA1
:1085F0004C65643100000000B593000824010020A0
:10860000546F437075000000959100086B65795FA9
:10861000626F640049910008280100206C69676856
:1086200074730000398300082C01002069696330ED
:108630005F73656E64000000D58200087774670080
:108640007D7800082DE9F04103460D4616460024CA
:108650000027A0462448006800F4E060B0F5A06F51
:1086600015D006DCB0F5407F18D0B0F5806F19D179
:1086700010E0B0F5C06F06D0B0F5E06F12D1002762
:108680004FF0040815E001274FF0030811E002271E
:10869000B8460EE003274FF001080AE004274FF028
:1086A000000806E04FF4A06000F022F80227B84668
:1086B00000BF00BFC7F1040005FA00F4C8F10401CF
:1086C0000F20C8403040044324010848C45403F03C
:1086D0001F01012088405911890001F1E021C1F8F2
:1086E0000001BDE8F08100000CED00E000E400E0D6
:1086F00002490143024A1160704700000000FA0578
:108700000CED00E0024A0A400243024B1A60704737
:1087100080FFFF1F08ED00E02DE9F04105460E4601
:108720001C4807681C480068001D01F063F850B938
:108730001948006890F82C100120884017490968F2
:10874000814316480160681C38B936B11248016887
:10875000091D134801F08CF81AE07C190E480068D6
:108760004460BC4207D20C480168091D0D480068EE
:1087700001F064F80CE008480168091D0A48006827
:1087800001F05CF809480068844201D2074804609F
:10879000BDE8F08110020020FC010020140200203E
:1087A000B01C002004020020000200202C02002047
:1087B00010B5044601F068F823480068401C2249BF
:1087C00008602248006840B92048046008460068F4
:1087D00001280DD100F01CF90AE01D48006838B9E5
:1087E0001A480068C06AE16A884201D817480460E4
:1087F00018480068401C1749086094F82C100120A4
:10880000884015490968084313490860E16A01EB8B
:108810008101124A02EB8100211D01F029F801F0CB
:1088200055F80B48006868B108480068C06AE16AFA
:10883000884207D24FF0805009490860BFF34F8F3C
:10884000BFF36F8F10BD00000C020020FC01002060
:10885000180200202802002014020020FC1B002027
:1088600004ED00E010B516E001F00EF80C48C06809
:10887000C468201D00F0BEFF0A480068401E094978
:10888000086009480068401E0749086001F01EF8AA
:10889000204600F00BF8044800680028E4D110BD21
:1088A0009C1C00200C0200200802002010B5044689
:1088B000206B01F021F8204601F01EF810BD0000E9
:1088C00030B54FF4C053174800F007042CB1C01D59
:1088D00020F00700134C041B1B1B0246124C2260A5
:1088E0000024114D6C60D018083820F007000F4CA0
:1088F000206000240D4D2D686C600C4D2D682C609F
:108900001146441A4C60094C24680C60084D4C68B0
:108910002C60084D4C682C604FF00044064D2C60D4
:1089200030BD0000FB030020D0010020D801002052
:10893000E0010020DC010020EC01002000BFFFF777
:1089400091FF064800680128F9D94FF0805004498A
:108950000860BFF34F8FBFF36F8FF0E7FC1B002061
:1089600004ED00E02DE9F05F82460E4690469B46FE
:108970000A9F0C9C4FEA8801A522206BFDF73CFA68
:10898000A8F10100216B01EB800929F0070909F02A
:10899000070008B9012000E0002008B900BFFEE789
:1089A00086B1002507E0715D04F134004155705D2A
:1089B00000B902E06D1C0A2DF5D300BF00213D2057
:1089C000015502E0002084F83400052F00D304276D
:1089D000E762276400206064201D00F02CFF04F192
:1089E000180000F028FF2461C7F10500A06164624F
:1089F0000020A06484F84C005A465146484600F0D6
:108A000037F920600B9808B10B980460BDE8F09F1F
:108A100010B5002407E004EB84010F4A02EB81004B
:108A200000F0FCFE641C052CF5D30C4800F0F6FEAB
:108A30000B4800F0F3FE0B4800F0F0FE0A4800F08F
:108A4000EDFE0A4800F0EAFE0448094908600448BF
:108A50000849086010BD0000FC1B0020601C0020BD
:108A6000741C0020881C00209C1C0020B01C0020CE
:108A7000000200200402002010B50146164800E064
:108A8000006803688B42FBD30246436813448B4261
:108A900004D143684C682344436001460A464B684E
:108AA00013440468A34211D10C4C03682468A34208
:108AB00008D04B680468646823444B6003681B68F3
:108AC0000B6005E0054B1B680B6001E003680B6061
:108AD000884200D0016010BDD0010020D8010020E4
:108AE00009480068006808B9012000E0002020B1B2
:108AF0004FF0FF300549086005E003480068C06892
:108B00000068024908607047000200202C02002023
:108B10000A480068401C08B9012000E0002008B99C
:108B200000BFFEE700BF502080F31188BFF34F8FD6
:108B3000BFF36F8F00BF00BFFEE70000F001002011
:108B40002DE9F04104464FF0000801F02DF84248AD
:108B5000006808B9FFF7B4FE4048006820400028CC
:108B60006CD1F4B104F10800A0421AD9083404F021
:108B70000700B8B104F00700C0F108002044A0428B
:108B80000DD904F00700C0F10800044404F0070008
:108B900008B9012000E0002020B900BFFEE7002452
:108BA00000E00024002C49D02D480068844245D8BC
:108BB0002C4E3046056801E02E462D686868A042BC
:108BC00002D228680028F7D123480068854235D0B2
:108BD000306800F10808286830606868001B1028B9
:108BE00010D92F1907F0070008B9012000E0002074
:108BF00008B900BFFEE76868001B78606C60384603
:108C0000FFF73AFF164968680968081A14490860AE
:108C10000846006814490968884203D21048006871
:108C2000114908600D4968680968084368600020B8
:108C300028600E480068401C0C49086001F026FAC4
:108C400008F0070008B9012000E0002008B900BFC3
:108C5000FEE74046BDE8F081D8010020EC0100208D
:108C6000DC010020D0010020E0010020E401002010
:108C7000001F4FF080730360001F21F001030360A9
:108C8000001F034B03601438026020387047000057
:108C9000118B00082DE9F04F8BB00746002009909A
:108CA0003EA090E8004CC068CDE905BECDF810A00C
:108CB00007900FF2EC0ADAE9000ACDE9020A0FF296
:108CC000E00ADAE9000ACDE9000A38484068C0F352
:108CD00081000A900A9820B1012804D0022829D1E5
:108CE00003E0334928E0324926E03048406800F488
:108CF0008038B8F5803F09D12D4C2C48406800F4ED
:108D00000039B9F5003F02D1641000E0294C274832
:108D10004068C0F383422548406800F0006008B115
:108D200042F010020F2A01D2921C00E0521C04FBF8
:108D300002F101E01E4900BF00BF1C484068C0F3BB
:108D4000031504A8465D21FA06F318484068C0F3ED
:108D5000022502A8465D23FA06FC14484068C0F3C9
:108D6000C2251DF8056023FA06F0089037B1012FDF
:108D700006D0022F06D0032F0AD106E0099108E0A1
:108D8000099306E0CDF824C003E00898099000E0BC
:108D900000BF00BF09980BB0BDE8F08F00000000D5
:108DA0000000000001020304060708090010024049
:108DB00000127A0000093D00064A02EB9011096892
:108DC00000F01F0301229A401143024B03EB901263
:108DD0001160704700100240064A02EB90110968CA
:108DE00000F01F0301229A409143024B03EB9012C3
:108DF0001160704700100240064A02EB90110968AA
:108E000000F01F0301229A401143024B03EB901222
:108E1000116070470010024010B586B018221F493B
:108E20006846FCF7D7FF00240AE05DF824101C48D0
:108E3000FEF7D6FF012802D11A490C7002E0641C2B
:108E4000062CF2DB00BF1748007858B115480078AF
:108E5000012807D013480078032803D01148007870
:108E6000042803D121201049087015E00D4800782E
:108E7000022803D121200C4908700DE00948007830
:108E8000052803D124200849087005E0212006495F
:108E9000087006A0FEF736FA06B010BD80A10008E3
:108EA00000180140310100203001002063616E2074
:108EB0006E6F74207363616E20626F617264206EE6
:108EC000756D0A0010B500214F20FDF7C1F9012191
:108ED0000020FDF7BDF900214A20FDF7B9F9012175
:108EE0004B20FDF7B5F9042000F0C0F8002002493E
:108EF0000870487010BD00004402002010B58AB010
:108F0000242101A8FCF77FFF002440E02046FEF763
:108F1000B7FE18B9012001A9085502E0002001A9F7
:108F2000085501A8005D1D49095D884229D001A8A6
:108F3000005D1A49095D884214DD19480078401C1B
:108F4000174908701748005D174908701548015DFA
:108F500000231A460120FEF7ABFC611C13A0FEF7AC
:108F6000D1F90EE00F48005D154908700D48015D0C
:108F700000231A460220FEF79BFC611C11A0FEF79D
:108F8000C1F901A8005D05490855601CC4B211482B
:108F900000788442BADB00200AB010BDAC03002088
:108FA000590100204C0300205701002062757474A1
:108FB0006F6E20256420646F776E0D0A000000003C
:108FC00058010020627574746F6E202564207570DE
:108FD0000D0A00003001002010B51948007858B182
:108FE00017480078012807D015480078032803D0D7
:108FF00013480078042805D1FDF72EFC46201149BE
:1090000008701BE00E480078022805D1FDF7C2FC6D
:1090100049200C49087011E009480078052805D15D
:10902000FDF756FD49200749087007E0FDF714FCDD
:1090300046200449087004A0FEF764F910BD000042
:10904000310100203201002063616E206E6F7420B8
:109050007363616E20626F617264206D61702C7346
:1090600065742064656661756C740A0070B50446A9
:10907000642C00DD64240548047005480349097820
:10908000455C2846FDF770F870BD00005F010020C8
:109090006001002000200021264A126842F00102EF
:1090A000244B1A6000BF401C224A126802F00201E1
:1090B00011B9B0F5A06FF6D11E4A126802F0020293
:1090C0000AB900BFFEE71B4A52681A4B5A601A469B
:1090D00052685A601A46526842F480625A601A46D0
:1090E0005268154B1A40134B5A601A465268134B7C
:1090F0001A43104B5A601A46126842F080721A6086
:1091000000BF0C4A126802F00072002AF9D0094A26
:10911000526822F00302074B5A601A46526842F026
:1091200002025A6000BF034A526802F00802002A95
:10913000F9D0704700100240FFFFC3F70000280875
:1091400010B5FFF7A7FF10BD002409A0FEF7DAF85D
:1091500000BF04E000200E490855601CC4B2242C56
:10916000F8DB04E0FFF7CAFE322000F043FCF9E729
:109170007461736B32207363616E5F6B65795F62DC
:109180006F6172642073746172740D0A00000000D4
:10919000AC0300200EB50020019002908046DFF85D
:1091A000B8916EA0FEF7AEF8FDF7C4FED2E04FF026
:1091B000FF321146002000F0B5F901A8FEF760FE6D
:1091C0000028F3DD9DF806509DF80740402D4ED055
:1091D0000CDC102D23D004DC012D10D0022D6ED11B
:1091E00015E0202D25D0302DF9D138E0502D45D077
:1091F000602D4CD0702D63D0D02DF0D173E060483D
:109200000378002211460220FEF752FBA1E05D48E0
:109210000378002211460220FEF74AFB99E0FEF790
:109220003FFD83465B46002211461020FEF740FBBF
:109230008FE0202040EA042A642C00DD64245A23B5
:10924000002211462020FEF733FB00200323524664
:10925000014600904C48006800F084FD79E04B48DE
:109260000378002211463020FEF722FB71E0042330
:10927000002211464020FEF71BFB6AE0FFF722FEAA
:109280005A23002211465020FEF712FB61E02246CD
:1092900029463FA0FEF736F8602040EA042A002065
:1092A00003235246014600903748006800F05AFDFB
:1092B0005A23002211466020FEF7FAFA49E032E014
:1092C000702040EA042A0020032352460146009001
:1092D0002D48006800F046FD5A23002211467020F8
:1092E000FEF7E6FA35E0CCB94FF0FF0800260BE0B8
:1092F00019F806102D4AB01C115419F80600404404
:1093000000F0FF08701CC6B2202EF1DB2749B01C0C
:1093100001F8008023202649087003E0012C01D1C8
:10932000FEF7C4FC15E005F0FC00802810D12246B1
:10933000294617A0FDF7E6FF05F00307394620464A
:10934000FFF7B8F85A23002211462846FEF7B0FA74
:1093500000BF00BF2BE70000005A00087461736B68
:109360003320636F6D756E6963617465206370751A
:10937000206969632073746172740D0A0000000033
:109380005701002058010020280100203101002051
:10939000636D645F74797065203D2025642C636D76
:1093A00064203D2025640D0A0000000033010020E8
:1093B0005C010020002408A0FDF7A4FF01210B4858
:1093C000FEF716FD07E0E443E0B2FDF705FE4FF4BB
:1093D000FA7000F00FFBF6E77461736B345F66752B
:1093E0006E632073746172740D0A00000002300015
:1093F000016821F0010101607047016841F001013D
:10940000016070470A888262294A904220D0B0F1F8
:10941000804F1DD0274A90421AD0274A904217D039
:10942000264A904214D0264A904211D0254A9042B2
:109430000ED0254A90420BD0244A904208D0244AAC
:10944000904205D0234A904202D0234A90420FD145
:10945000026822F07002026002688B7803F06003F9
:109460001A43026002680B7903F010031A4302608A
:109470008A68C262194A90420CD0194A904209D0B7
:10948000026822F44072026002688B8903F4407320
:109490001A430260064A904202D0094A904201D122
:1094A0008A7B0263426942F0010242617047000018
:1094B000002C01400004004000080040000C004067
:1094C00000340140004C0140005001400054014074
:1094D00000180040001C0040002000400010004028
:1094E00000140040C2680A43C260704702698A43A0
:1094F000026170470246D06800EA01031069084023
:1095000010B10BB1012070470020FCE70021018061
:10951000418081804FF6FF718160002181818173DC
:10952000704700002DE9F04104460F4616460CB97D
:10953000012000E0002008B900BFFEE700F0A4F918
:109540001C480068483050F8240080B901211948AF
:1095500000684C30015556B13046FFF7DDF84FF04A
:10956000805015490860BFF34F8FBFF36F8F00F035
:10957000ADF900F089F90F480068483050F82450E0
:109580006DB137B100210B480068483040F8241015
:1095900005E0681E07490968483141F824000021A8
:1095A000044800684C30015500F090F92846BDE8A9
:1095B000F0810000FC01002004ED00E02DE9F047FF
:1095C00004460D460027B846B94600261D49601AD4
:1095D0008C421CD006DC1C48204470B1B0F5806F72
:1095E0001FD10FE0B0F5806F16D0B0F56C4F18D1D9
:1095F0000320FFF74FFB074614E00220FFF74AFB6A
:1096000007460FE00220FFF745FB07460AE002206D
:10961000FFF740FB074605E00220FFF73BFB07464C
:1096200000E000BF00BF07EB5500B0FBF5F64FF6BA
:10963000F07006EA000806F00F0948EA0900A06089
:10964000BDE8F087004C004000BCFFBF0146486801
:10965000C0F308007047C1F3080242607047000081
:1096600010B504462049601A8C4228D006DC1F48F9
:10967000204490B1B0F5806F33D117E0B0F5806F22
:1096800026D0B0F56C4F2CD140F20E30FFF7B4FB72
:1096900040F20E30FFF7A0FB24E040F21140FFF74C
:1096A000ABFB40F21140FFF797FB1BE040F212408A
:1096B000FFF7A2FB40F21240FFF78EFB12E040F2F0
:1096C0001340FFF799FB40F21340FFF785FB09E0D9
:1096D00040F21440FFF790FB40F21440FFF77CFB90
:1096E00000E000BF00BF10BD004C004000BCFFBF49
:1096F000C16841F40051C160704710B5024602EBE9
:109700009110006801F01F040123A340184008B124
:10971000012010BD0020FCE70A460021416921F428
:1097200000711143416170470A460021416921F4EB
:10973000807111434161704710B5C1F3891282589D
:1097400001F01F040123A3401A43C1F38913C2503F
:1097500010BD10B500EB91521268C1F3044401230F
:10976000A3409A4300EB91531A6010BD70B50246B6
:1097700000230024C1F38910105801F01F060125B1
:10978000B54000EA050302EB91500068C1F30446BE
:109790000125B54000EA050414B10BB1012070BDEC
:1097A0000020FCE7C26822F4C062C260C2680A43BB
:1097B000C26070470A460021C16821F004011143CC
:1097C000C1607047026922F44052026102690A4393
:1097D000026170470A460021C16821F00801114367
:1097E000C1607047C26822F48052C260C2680A43F6
:1097F000C260704701460A69D1E901309860D1E939
:10980000010358605068884201D188685060002088
:1098100008611068401E10601068704700F1080170
:1098200041604FF0FF31816000F10801C1600161CA
:1098300000210160704700210161704710B50246A8
:109840000B685C1C0CB9106907E002F1080000E02D
:109850004068446824689C42FAD944684C604C686B
:10986000A160886041600A611468641C146010BDC6
:1098700042684A6093688B609368596091600861A0
:1098800003685B1C0360704700BF502080F31188A1
:10989000BFF34F8FBFF36F8F00BF0A480068401CB3
:1098A0000849086008460068012809D10648006890
:1098B000C0B208B9012000E0002008B900BFFEE7EF
:1098C00070470000F001002004ED00E00948006846
:1098D00008B900BFFEE707480068401E0549086058
:1098E0000846006820B9002080F3118800BF00BF3F
:1098F00070470000F001002070B506463546002E86
:1099000032D0083D2C46194960680968084008B102
:10991000012000E0002008B900BFFEE7206808B978
:10992000012000E0002008B900BFFEE70F49606891
:1099300009680840C0B12068B0B90C49606809687E
:109940008843606000F030F909496068096808449C
:10995000074908602046FFF78FF806480068401C5A
:109960000449086000F092FB70BD0000EC0100208B
:10997000DC010020E801002000204FF0E021086118
:109980008861064800684FF47A71B0FBF1F0401E20
:109990004FF0E02148610720086170473C02002039
:1099A00070B5FCF701FA0546102D0DD305F1E02046
:1099B00090F8F0430C480078844201DB012000E07D
:1099C000002008B900BFFEE70848006800F4E06026
:1099D00007490968884201D8012000E0002008B941
:1099E00000BFFEE770BD0000F40100200CED00E0B8
:1099F000F801002070B5044600258CB10D480068C0
:109A000008B9012000E0002008B900BFFEE700F01F
:109A1000CBF800212046FEF77FFE00F037FB05461D
:109A20003DB94FF0805004490860BFF34F8FBFF33A
:109A30006F8F70BD3802002004ED00E02DE9F04783
:109A400005460E4690460DB900BFFEE70EB901204F
:109A500000E0002008B900BFFEE7FFF7A1FF2C4699
:109A600000BF5021EFF3118081F31188BFF34F8FB6
:109A7000BFF36F8F00BF074604F14C0010F806904B
:109A800002218155001F50F82600401C04F14801B6
:109A900041F82600B9F1010F34D1A06A08B90120BC
:109AA00000E0002008B900BFFEE719480068A8B927
:109AB000201DFFF79FFE94F82C10012088401549C7
:109AC0000968084313490860E16A01EB8101124A01
:109AD00002EB8100211DFFF7CBFE04E004F1180129
:109AE0000E48FFF7C5FE0E49E06A0968C96A884258
:109AF00008D9B8F1000F02D00120C8F800000120F9
:109B00000849086000BF87F3118800BFBDE8F087EF
:109B10003802002014020020FC1B0020881C0020BA
:109B2000FC010020200200201CB5174800210B4634
:109B30004022CDE9001015A1164800F0E3F80446D4
:109B4000012C15D100BF502080F31188BFF34F8F37
:109B5000BFF36F8F00BF4FF0FF300F490860012047
:109B60000E49086000200E49086000F061F807E027
:109B7000601C08B1012000E0002008B900BFFEE72A
:109B8000084800681CBD00003002002049444C45D4
:109B9000000000003D8900082C020020180200206F
:109BA000100200203402002002480068401C0149D5
:109BB00008607047380200201848006818B101207A
:109BC0001749086029E00020154908601548006819
:109BD000B0FA80F0C0F11F0101EB8100124A52F887
:109BE000200008B1012000E0002008B900BFFEE716
:109BF00001EB81020C4B03EB820042685268426029
:109C000000F108024368934202D142685268426000
:109C10004268D268054B1A6000BF704738020020C6
:109C20002002002014020020FC1B0020FC01002068
:109C30001CB52F48014609780191FF210246117099
:109C40000146097800919DF8001001F0F0019DF89F
:109C50000020914201D1012100E0002109B900BF9B
:109C6000FEE79DF8001001F05001224A1170072113
:109C7000214A116009E020490968491E1E4A116005
:109C80009DF800104906090E00919DF8001001F0A2
:109C900080018029EFD018490968C1F10701042922
:109CA00001D1012100E0002109B900BFFEE71249FE
:109CB00009680902104A11601146098801F4E0613F
:109CC00011600B4A019911700C48006840F4700053
:109CD0000A4908600846006840F070400860FFF7D5
:109CE0004BFE002006490860FCF728F800201CBD48
:109CF00000E400E0F4010020F801002020ED00E085
:109D0000F00100202DE9FF4F85B0804689461746B7
:109D1000DDE912ABB800FEF713FF064656B150203E
:109D2000FEF70EFF04460CB1266304E03046FFF751
:109D3000E3FD00E000247CB10020CDE900ABCDE9DB
:109D400002403A4649464046089BFEF70BFE204635
:109D5000FEF72EFD012501E04FF0FF35284609B042
:109D6000BDE8F08F2DE9F05F07460D461646984690
:109D7000DDF828A04FF0010B0DB9012000E0002014
:109D800008B900BFFEE70FB900BFFEE73C46FFF78A
:109D90007BFDBAF1000F05D004F1480050F8250012
:109DA000CAF8000004F14C0010F80590022141555A
:109DB000B8F1050F29D2DFE808F027030D171C00C2
:109DC00004F1480050F82500304304F1480141F8FF
:109DD000250024E004F1480050F82500401C04F15F
:109DE000480141F825001AE004F1480040F82560D8
:109DF00015E0B9F1020F04D004F1480040F82560E5
:109E000001E04FF0000B0AE009E01F48006808B9C4
:109E1000012000E0002008B900BFFEE700BF00BF3E
:109E2000B9F1010F2AD1201DFFF7E4FC94F82C10A2
:109E30000120884015490968084314490860E16A0F
:109E400001EB8101124A02EB8100211DFFF710FD99
:109E5000A06A08B9012000E0002008B900BFFEE7B1
:109E60000C49E06A0968C96A884207D94FF08050F6
:109E700009490860BFF34F8FBFF36F8FFFF726FDCF
:109E80005846BDE8F09F0000100200201402002098
:109E9000FC1B0020FC01002004ED00E02DE9F04750
:109EA00004460F4690461D46DDF820900CB901206F
:109EB00000E0002008B900BFFEE7FFF7E5FC2448FA
:109EC00000684C30005D02281AD0214909684831E9
:109ED00001EB84000168B943016001211C4800685E
:109EE0004C300155B9F1000F0AD04846FEF714FC7A
:109EF0004FF0805017490860BFF34F8FBFF36F8F4B
:109F0000FFF7E4FCFFF7C0FC2DB1114800684830B2
:109F100050F8240028600E4800684C30005D02288C
:109F200001D0002609E00A490968483101EB8400A4
:109F3000016821EA08010160012600210448006847
:109F40004C300155FFF7C2FC3046BDE8F0870000F9
:109F5000FC01002004ED00E02DE9F0414FF0000885
:109F60003F480068002873D13E480068451C3D48C2
:109F70000560CDB93C480068006808B9012000E0E0
:109F8000002008B900BFFEE7374807683748006877
:109F9000354908603548076035480068401C344939
:109FA0000860FEF79DFD00BF3248006885423CD343
:109FB00000BF2D480068006808B9012000E00020BB
:109FC00020B14FF0FF302B4908602DE02648006893
:109FD000C068C4686668B54202D22648066023E0BD
:109FE000201DFFF707FCA06A18B104F11800FFF765
:109FF00001FC94F82C10012088401F49096808438F
:10A000001D490860E16A01EB81011C4A02EB8100F5
:10A01000211DFFF72DFC1A49E06A0968C96A8842C8
:10A02000C7D34FF00108C4E700BF15480068C06AF5
:10A0300000EB8000114951F82000012801D94FF0B0
:10A0400001081048006808B14FF0010805E0FFE77B
:10A050000D480068401C0C4908604046BDE8F0818E
:10A06000380200201002002000020020040200201C
:10A07000240200202C02002014020020FC1B0020DF
:10A08000FC010020200200201C02002070B50024EA
:10A0900000263248006808B900BFFEE7FFF7F4FB6E
:10A0A0002E480068401E2D490860084600680028B8
:10A0B0004FD12B48006800284BD024E02948C068C5
:10A0C000C46804F11800FFF795FB201DFFF792FB11
:10A0D00094F82C100120884023490968084322493C
:10A0E0000860E16A01EB8101204A02EB8100211D39
:10A0F000FFF7BEFB1E49E06A0968C96A884202D3BD
:10A1000001201C4908601748006808B9012000E0D8
:10A1100000200028D2D00CB1FEF7E2FC16480568FA
:10A1200065B100BFFFF718FF10B1012011490860A9
:10A130006D1E002DF6D100200F4908600D48006803
:10A1400038B1012630070D490860BFF34F8FBFF3C8
:10A150006F8FFFF7BBFB304670BD00003802002058
:10A160000C020020881C002014020020FC1B002090
:10A17000FC010020200200201C02002004ED00E071
:10A180008000000000010000000200000004000048
:10A19000000800000010000005080A144275696CF0
:10A1A0006474696D65203A4D617920203820323021
:10A1B00032332031373A34303A303300DCA10008F2
:10A1C0000000002044020000E25E00088CA20008AB
:10A1D00044020020843A000034730008110C2F1050
:10A1E0000140040A3D14040A1818043208321032DF
:10A1F0002032404280320132023204091121091D0D
:10A200001F093B403B9CA113A112FF032555AA1235
:10A2100001420780650F1923323C3E4042444648C4
:10A220004A4C4E50525456585A5C5E60626466689E
:10A230006A6C6E70727476787A7C7E80828486888E
:10A240008A8C8E90929496989A9C9EA0A2A4A6A87E
:10A25000AAACAEB0B2B4B6B8BABCBEC0C2C4C6C86E
:10A26000CACCCED0D2D4D6D8DADCDEE0E2E4E6E85E
:10A27000EAECEEF0F2F4F6F8FADA58AC01131AAAA6
:0CA28000010140820444F36F060000005E
:0400000508005D058D
:00000001FF
